{
  "address": "0x00d2249ef000002B2Fdec16900058800E900000c",
  "abi": [
    {
      "inputs": [
        {
          "internalType": "contract IShowtimeVerifier",
          "name": "_showtimeVerifier",
          "type": "address"
        },
        {
          "internalType": "contract TimeCop",
          "name": "_timeCop",
          "type": "address"
        }
      ],
      "stateMutability": "nonpayable",
      "type": "constructor"
    },
    {
      "inputs": [],
      "name": "NullAddress",
      "type": "error"
    },
    {
      "inputs": [
        {
          "internalType": "contract IEditionSingleMintable",
          "name": "collection",
          "type": "address"
        }
      ],
      "name": "TimeLimitReached",
      "type": "error"
    },
    {
      "inputs": [],
      "name": "VerificationFailed",
      "type": "error"
    },
    {
      "inputs": [
        {
          "components": [
            {
              "components": [
                {
                  "internalType": "address",
                  "name": "beneficiary",
                  "type": "address"
                },
                {
                  "internalType": "address",
                  "name": "context",
                  "type": "address"
                },
                {
                  "internalType": "uint256",
                  "name": "nonce",
                  "type": "uint256"
                },
                {
                  "internalType": "uint256",
                  "name": "validUntil",
                  "type": "uint256"
                }
              ],
              "internalType": "struct Attestation",
              "name": "attestation",
              "type": "tuple"
            },
            {
              "internalType": "bytes",
              "name": "signature",
              "type": "bytes"
            }
          ],
          "internalType": "struct SignedAttestation",
          "name": "signedAttestation",
          "type": "tuple"
        }
      ],
      "name": "mintEdition",
      "outputs": [],
      "stateMutability": "nonpayable",
      "type": "function"
    },
    {
      "inputs": [
        {
          "components": [
            {
              "components": [
                {
                  "internalType": "address",
                  "name": "beneficiary",
                  "type": "address"
                },
                {
                  "internalType": "address",
                  "name": "context",
                  "type": "address"
                },
                {
                  "internalType": "uint256",
                  "name": "nonce",
                  "type": "uint256"
                },
                {
                  "internalType": "uint256",
                  "name": "validUntil",
                  "type": "uint256"
                }
              ],
              "internalType": "struct Attestation",
              "name": "attestation",
              "type": "tuple"
            },
            {
              "internalType": "bytes",
              "name": "signature",
              "type": "bytes"
            }
          ],
          "internalType": "struct SignedAttestation[]",
          "name": "signedAttestations",
          "type": "tuple[]"
        }
      ],
      "name": "mintEditions",
      "outputs": [],
      "stateMutability": "nonpayable",
      "type": "function"
    },
    {
      "inputs": [],
      "name": "showtimeVerifier",
      "outputs": [
        {
          "internalType": "contract IShowtimeVerifier",
          "name": "",
          "type": "address"
        }
      ],
      "stateMutability": "view",
      "type": "function"
    },
    {
      "inputs": [],
      "name": "timeCop",
      "outputs": [
        {
          "internalType": "contract TimeCop",
          "name": "",
          "type": "address"
        }
      ],
      "stateMutability": "view",
      "type": "function"
    }
  ],
  "transactionHash": "0xec86a6fed4946266d2da6368d811859ef15745fb5cc3ea2056e984bbb5a8c56c",
  "args": [
    "0x50C0017836517dc49C9EBC7615d8B322A0f91F67",
    "0x50c001E4eB10801968F6640E1537D63a557e5d72"
  ],
  "numDeployments": 1,
  "solcInputHash": "84c8e1217695cca8ba1bbd09ead777e3",
  "bytecode": "0x60c03461008f57601f6107fe38819003918201601f19168301916001600160401b0383118484101761009457808492604094855283398101031261008f5780602061006092519161004f836100aa565b01519061005b826100aa565b6100bb565b60405161070490816100fa823960805181818161011d01526104df015260a05181818161020401526104680152f35b600080fd5b634e487b7160e01b600052604160045260246000fd5b6001600160a01b0381160361008f57565b6001600160a01b03818116159081156100ee575b506100dc5760805260a052565b60405163e99d5ac560e01b8152600490fd5b9050821615386100cf56fe60806040526004361015610013575b600080fd5b6000803560e01c90816332345cad14610066575080635360e5d41461005d578063910f3b5d146100545763f565d63d1461004c57600080fd5b61000e6101b8565b5061000e610141565b5061000e6100d1565b346100ce577ffffffffffffffffffffffffffffffffffffffffffffffffffffffffffffffffc6020813601126100c6576004359067ffffffffffffffff82116100ca5760a09082360301126100c6576100c1906004016103ef565b604051f35b5080fd5b8280fd5b80fd5b503461000e5760007ffffffffffffffffffffffffffffffffffffffffffffffffffffffffffffffffc36011261000e57602060405173ffffffffffffffffffffffffffffffffffffffff7f0000000000000000000000000000000000000000000000000000000000000000168152f35b503461000e5760207ffffffffffffffffffffffffffffffffffffffffffffffffffffffffffffffffc36011261000e5760043567ffffffffffffffff80821161000e573660238301121561000e57816004013590811161000e573660248260051b8401011161000e5760246101b69201610699565b005b503461000e5760007ffffffffffffffffffffffffffffffffffffffffffffffffffffffffffffffffc36011261000e57602060405173ffffffffffffffffffffffffffffffffffffffff7f0000000000000000000000000000000000000000000000000000000000000000168152f35b73ffffffffffffffffffffffffffffffffffffffff81160361000e57565b3561025081610228565b90565b90601f7fffffffffffffffffffffffffffffffffffffffffffffffffffffffffffffffe0910116810190811067ffffffffffffffff82111761029457604052565b7f4e487b7100000000000000000000000000000000000000000000000000000000600052604160045260246000fd5b9081602091031261000e5751801515810361000e5790565b506040513d6000823e3d90fd5b601f82602094937fffffffffffffffffffffffffffffffffffffffffffffffffffffffffffffffe0938186528686013760008582860101520116010190565b9060208252803561033781610228565b73ffffffffffffffffffffffffffffffffffffffff8091166020840152602082013561036281610228565b166040830152604081013560608301526060810135608083015260808101357fffffffffffffffffffffffffffffffffffffffffffffffffffffffffffffffe18236030181121561000e5781019081359067ffffffffffffffff821161000e578136031261000e57602060c08460a0806102509701520192016102e8565b9081602091031261000e575190565b602090610419610400838301610246565b73ffffffffffffffffffffffffffffffffffffffff1690565b6040517fcf06dde400000000000000000000000000000000000000000000000000000000815273ffffffffffffffffffffffffffffffffffffffff8281166004830181905292909185816024817f000000000000000000000000000000000000000000000000000000000000000087165afa90811561068c575b60009161066f575b5061062657508360405180927f82059300000000000000000000000000000000000000000000000000000000008252816000816104db8960048301610327565b03927f0000000000000000000000000000000000000000000000000000000000000000165af1908115610619575b6000916105ec575b50156105c2576105798391610527600094610246565b6040519485809481937fa66ff0af0000000000000000000000000000000000000000000000000000000083526004830191909173ffffffffffffffffffffffffffffffffffffffff6020820193169052565b03925af180156105b5575b61058c575050565b816105ab92903d106105ae575b6105a38183610253565b8101906103e0565b50565b503d610599565b6105bd6102db565b610584565b60046040517f439cc0cd000000000000000000000000000000000000000000000000000000008152fd5b61060c9150843d8611610612575b6106048183610253565b8101906102c3565b38610511565b503d6105fa565b6106216102db565b610509565b6040517fd302dcb800000000000000000000000000000000000000000000000000000000815273ffffffffffffffffffffffffffffffffffffffff919091166004820152602490fd5b6106869150863d8811610612576106048183610253565b3861049b565b6106946102db565b610493565b90600091825b8281106106ac5750505050565b8060051b8201357fffffffffffffffffffffffffffffffffffffffffffffffffffffffffffffff61833603018112156106f357906106ed60019284016103ef565b0161069f565b8480fdfea164736f6c634300080d000a",
  "devdoc": {
    "kind": "dev",
    "methods": {
      "mintEdition(((address,address,uint256,uint256),bytes))": {
        "details": "the edition to mint will be determined by the attestation's contextthe recipient of the minted edition will be determined by the attestation's beneficiary",
        "params": {
          "signedAttestation": "the attestation to verify along with a corresponding signature"
        }
      }
    },
    "version": 1
  },
  "userdoc": {
    "kind": "user",
    "methods": {
      "mintEditions(((address,address,uint256,uint256),bytes)[])": {
        "notice": "a batch version of mintEditionany failed call to mintEdition will revert the entire batch"
      }
    },
    "version": 1
  },
  "storageLayout": {
    "storage": [],
    "types": null
  }
}