{
  "address": "0x50c001c8989f0e3799A212A2d50FB61e140266c5",
  "abi": [
    {
      "inputs": [
        {
          "internalType": "address",
          "name": "_trustedForwarder",
          "type": "address"
        },
        {
          "internalType": "address",
          "name": "_timeCop",
          "type": "address"
        }
      ],
      "stateMutability": "nonpayable",
      "type": "constructor"
    },
    {
      "inputs": [],
      "name": "NullAddress",
      "type": "error"
    },
    {
      "inputs": [
        {
          "internalType": "contract IEditionSingleMintable",
          "name": "_edition",
          "type": "address"
        }
      ],
      "name": "createMinter",
      "outputs": [
        {
          "internalType": "contract MetaEditionMinter",
          "name": "newMinter",
          "type": "address"
        }
      ],
      "stateMutability": "nonpayable",
      "type": "function"
    },
    {
      "inputs": [
        {
          "internalType": "address",
          "name": "edition",
          "type": "address"
        }
      ],
      "name": "getMinterForEdition",
      "outputs": [
        {
          "internalType": "address",
          "name": "",
          "type": "address"
        }
      ],
      "stateMutability": "view",
      "type": "function"
    },
    {
      "inputs": [],
      "name": "minterImpl",
      "outputs": [
        {
          "internalType": "contract MetaEditionMinter",
          "name": "",
          "type": "address"
        }
      ],
      "stateMutability": "view",
      "type": "function"
    },
    {
      "inputs": [],
      "name": "timeCop",
      "outputs": [
        {
          "internalType": "contract TimeCop",
          "name": "",
          "type": "address"
        }
      ],
      "stateMutability": "view",
      "type": "function"
    },
    {
      "inputs": [],
      "name": "trustedForwarder",
      "outputs": [
        {
          "internalType": "address",
          "name": "",
          "type": "address"
        }
      ],
      "stateMutability": "view",
      "type": "function"
    }
  ],
  "transactionHash": "0x81d145dce3873a347bee168cf76a0a2c5f6b68421517b2a51513a71348e35d6e",
  "args": [
    "0x50c001c88b59dc3b833E0F062EfC2271CE88Cb89",
    "0x50c001E4eB10801968F6640E1537D63a557e5d72"
  ],
  "numDeployments": 1,
  "solcInputHash": "0884606e5c705d84f25cbe2701d5805e",
  "bytecode": "0x60e060405234801561001057600080fd5b50604051610f2c380380610f2c83398101604081905261002f916100da565b6001600160a01b0381166100565760405163e99d5ac560e01b815260040160405180910390fd5b6001600160601b0319606083811b821660805282901b1660c05260405161007c906100b1565b604051809103906000f080158015610098573d6000803e3d6000fd5b5060601b6001600160601b03191660a0525061010d9050565b610a0b8061052183390190565b80516001600160a01b03811681146100d557600080fd5b919050565b600080604083850312156100ed57600080fd5b6100f6836100be565b9150610104602084016100be565b90509250929050565b60805160601c60a05160601c60c05160601c6103c261015f6000396000818161010101526101da01526000818160da0152818161012a0152610165015260008181607101526101aa01526103c26000f3fe608060405234801561001057600080fd5b50600436106100675760003560e01c8063b8abff0411610050578063b8abff04146100c2578063ec91f26a146100d5578063f565d63d146100fc57600080fd5b80637da0a8771461006c578063a5b0caec146100af575b600080fd5b6100937f000000000000000000000000000000000000000000000000000000000000000081565b6040516001600160a01b03909116815260200160405180910390f35b6100936100bd366004610385565b610123565b6100936100d0366004610385565b61015e565b6100937f000000000000000000000000000000000000000000000000000000000000000081565b6100937f000000000000000000000000000000000000000000000000000000000000000081565b60006101587f00000000000000000000000000000000000000000000000000000000000000006001600160a01b038416610247565b92915050565b60006101937f00000000000000000000000000000000000000000000000000000000000000006001600160a01b0384166102ca565b60405163c0c53b8b60e01b81526001600160a01b037f00000000000000000000000000000000000000000000000000000000000000008116600483015284811660248301527f0000000000000000000000000000000000000000000000000000000000000000811660448301529192509082169063c0c53b8b90606401600060405180830381600087803b15801561022a57600080fd5b505af115801561023e573d6000803e3d6000fd5b50505050919050565b60006102c38383306040517f3d602d80600a3d3981f3363d3d373d3d3d363d730000000000000000000000008152606093841b60148201527f5af43d82803e903d91602b57fd5bf3ff000000000000000000000000000000006028820152921b6038830152604c8201526037808220606c830152605591012090565b9392505050565b60006040517f3d602d80600a3d3981f3363d3d373d3d3d363d7300000000000000000000000081528360601b60148201527f5af43d82803e903d91602b57fd5bf300000000000000000000000000000000006028820152826037826000f59150506001600160a01b0381166101585760405162461bcd60e51b815260206004820152601760248201527f455243313136373a2063726561746532206661696c6564000000000000000000604482015260640160405180910390fd5b60006020828403121561039757600080fd5b81356102c3816001600160a01b03811681146103b257600080fd5b5056fea164736f6c6343000807000a608060405234801561001057600080fd5b5061001961001e565b610155565b61002860ff61002b565b50565b60008054600160a81b900460ff16156100bf578160ff166001148015610061575061005f3061014660201b61059f1760201c565b155b6100b75760405162461bcd60e51b815260206004820152602e60248201526000805160206109eb83398151915260448201526d191e481a5b9a5d1a585b1a5e995960921b60648201526084015b60405180910390fd5b506000919050565b60005460ff808416600160a01b90920416106101225760405162461bcd60e51b815260206004820152602e60248201526000805160206109eb83398151915260448201526d191e481a5b9a5d1a585b1a5e995960921b60648201526084016100ae565b506000805460ff909216600160a01b0260ff60a01b19909216919091179055600190565b6001600160a01b03163b151590565b610887806101646000396000f3fe608060405234801561001057600080fd5b50600436106100885760003560e01c80637de1e5361161005b5780637de1e5361461011c578063a66ff0af1461012f578063c0c53b8b14610142578063f565d63d1461015557600080fd5b80631e7269c51461008d578063572b6c05146100c557806370f0c351146100e75780637da0a877146100f1575b600080fd5b6100b061009b36600461079b565b60036020526000908152604090205460ff1681565b60405190151581526020015b60405180910390f35b6100b06100d336600461079b565b6000546001600160a01b0391821691161490565b6100ef610168565b005b600054610104906001600160a01b031681565b6040516001600160a01b0390911681526020016100bc565b600154610104906001600160a01b031681565b6100ef61013d36600461079b565b61031f565b6100ef6101503660046107dc565b610486565b600254610104906001600160a01b031681565b6001546001600160a01b03166101915760405163e99d5ac560e01b815260040160405180910390fd5b6002546001546040516333c1b77960e21b81526001600160a01b039182166004820152600092919091169063cf06dde49060240160206040518083038186803b1580156101dd57600080fd5b505afa1580156101f1573d6000803e3d6000fd5b505050506040513d601f19601f820116820180604052508101906102159190610827565b9050806102495760015460405163705f879960e11b81526001600160a01b0390911660048201526024015b60405180910390fd5b600154604080513081526001600160a01b0390921660208301527f91ca00fdf29069527d658f8dfc6d1c0bf9861780bb45ff36436f938d3595a8d6910160405180910390a1600160009054906101000a90046001600160a01b03166001600160a01b0316638da5cb5b6040518163ffffffff1660e01b815260040160206040518083038186803b1580156102dc57600080fd5b505afa1580156102f0573d6000803e3d6000fd5b505050506040513d601f19601f8201168201806040525081019061031491906107bf565b6001600160a01b0316ff5b6002546001546040516333c1b77960e21b81526001600160a01b03918216600482015291169063cf06dde49060240160206040518083038186803b15801561036657600080fd5b505afa15801561037a573d6000803e3d6000fd5b505050506040513d601f19601f8201168201806040525081019061039e9190610827565b156103cb57600154604051631a605b9760e31b81526001600160a01b039091166004820152602401610240565b60006103d56105ae565b90506103e0816105e2565b816001600160a01b0316816001600160a01b03161461040257610402826105e2565b60015460405163a66ff0af60e01b81526001600160a01b0384811660048301529091169063a66ff0af90602401602060405180830381600087803b15801561044957600080fd5b505af115801561045d573d6000803e3d6000fd5b505050506040513d601f19601f820116820180604052508101906104819190610849565b505050565b60006104926001610657565b905080156104ae576000805460ff60a81b1916600160a81b1790555b6001600160a01b0383166104d55760405163e99d5ac560e01b815260040160405180910390fd5b6001600160a01b0382166104fc5760405163e99d5ac560e01b815260040160405180910390fd5b600080546001600160a01b038087167fffffffffffffffffffffffff0000000000000000000000000000000000000000928316179092556001805486841690831617905560028054928516929091169190911790558015610599576000805460ff60a81b19169055604051600181527f7f26b83ff96e1f2b6a682f133852f6798a09c465da95921460cefb38474024989060200160405180910390a15b50505050565b6001600160a01b03163b151590565b6000601836108015906105cb57506000546001600160a01b031633145b156105dd575060131936013560601c90565b503390565b6001600160a01b03811660009081526003602052604090205460ff16156106335760015460405163010bb71b60e31b81526001600160a01b0391821660048201529082166024820152604401610240565b6001600160a01b03166000908152600360205260409020805460ff19166001179055565b60008054600160a81b900460ff16156106e7578160ff16600114801561067c5750303b155b6106df5760405162461bcd60e51b815260206004820152602e60248201527f496e697469616c697a61626c653a20636f6e747261637420697320616c72656160448201526d191e481a5b9a5d1a585b1a5e995960921b6064820152608401610240565b506000919050565b60005460ff808416600160a01b909204161061075c5760405162461bcd60e51b815260206004820152602e60248201527f496e697469616c697a61626c653a20636f6e747261637420697320616c72656160448201526d191e481a5b9a5d1a585b1a5e995960921b6064820152608401610240565b506000805460ff909216600160a01b027fffffffffffffffffffffff00ffffffffffffffffffffffffffffffffffffffff909216919091179055600190565b6000602082840312156107ad57600080fd5b81356107b881610862565b9392505050565b6000602082840312156107d157600080fd5b81516107b881610862565b6000806000606084860312156107f157600080fd5b83356107fc81610862565b9250602084013561080c81610862565b9150604084013561081c81610862565b809150509250925092565b60006020828403121561083957600080fd5b815180151581146107b857600080fd5b60006020828403121561085b57600080fd5b5051919050565b6001600160a01b038116811461087757600080fd5b5056fea164736f6c6343000807000a496e697469616c697a61626c653a20636f6e747261637420697320616c726561",
  "devdoc": {
    "kind": "dev",
    "methods": {},
    "version": 1
  },
  "userdoc": {
    "kind": "user",
    "methods": {
      "createMinter(address)": {
        "notice": "returns an initialized minimal proxy to the base MetaEditionMinter implementation"
      }
    },
    "version": 1
  },
  "storageLayout": {
    "storage": [],
    "types": null
  }
}