{
  "address": "0x50C0017836517dc49C9EBC7615d8B322A0f91F67",
  "abi": [
    {
      "inputs": [
        {
          "internalType": "address",
          "name": "_owner",
          "type": "address"
        }
      ],
      "stateMutability": "nonpayable",
      "type": "constructor"
    },
    {
      "inputs": [
        {
          "internalType": "uint256",
          "name": "expected",
          "type": "uint256"
        },
        {
          "internalType": "uint256",
          "name": "actual",
          "type": "uint256"
        }
      ],
      "name": "BadNonce",
      "type": "error"
    },
    {
      "inputs": [],
      "name": "DeadlineTooLong",
      "type": "error"
    },
    {
      "inputs": [],
      "name": "Expired",
      "type": "error"
    },
    {
      "inputs": [],
      "name": "NullAddress",
      "type": "error"
    },
    {
      "inputs": [
        {
          "internalType": "address",
          "name": "signer",
          "type": "address"
        }
      ],
      "name": "SignerExpired",
      "type": "error"
    },
    {
      "inputs": [],
      "name": "Unauthorized",
      "type": "error"
    },
    {
      "inputs": [],
      "name": "UnknownSigner",
      "type": "error"
    },
    {
      "anonymous": false,
      "inputs": [
        {
          "indexed": false,
          "internalType": "address",
          "name": "newManager",
          "type": "address"
        }
      ],
      "name": "ManagerUpdated",
      "type": "event"
    },
    {
      "anonymous": false,
      "inputs": [
        {
          "indexed": true,
          "internalType": "address",
          "name": "previousOwner",
          "type": "address"
        },
        {
          "indexed": true,
          "internalType": "address",
          "name": "newOwner",
          "type": "address"
        }
      ],
      "name": "OwnershipTransferred",
      "type": "event"
    },
    {
      "anonymous": false,
      "inputs": [
        {
          "indexed": false,
          "internalType": "address",
          "name": "signer",
          "type": "address"
        },
        {
          "indexed": false,
          "internalType": "uint256",
          "name": "validUntil",
          "type": "uint256"
        }
      ],
      "name": "SignerAdded",
      "type": "event"
    },
    {
      "anonymous": false,
      "inputs": [
        {
          "indexed": false,
          "internalType": "address",
          "name": "signer",
          "type": "address"
        }
      ],
      "name": "SignerRevoked",
      "type": "event"
    },
    {
      "inputs": [],
      "name": "MAX_ATTESTATION_VALIDITY_SECONDS",
      "outputs": [
        {
          "internalType": "uint256",
          "name": "",
          "type": "uint256"
        }
      ],
      "stateMutability": "view",
      "type": "function"
    },
    {
      "inputs": [],
      "name": "MAX_SIGNER_VALIDITY_DAYS",
      "outputs": [
        {
          "internalType": "uint256",
          "name": "",
          "type": "uint256"
        }
      ],
      "stateMutability": "view",
      "type": "function"
    },
    {
      "inputs": [],
      "name": "REQUEST_TYPE_HASH",
      "outputs": [
        {
          "internalType": "bytes32",
          "name": "",
          "type": "bytes32"
        }
      ],
      "stateMutability": "view",
      "type": "function"
    },
    {
      "inputs": [],
      "name": "domainSeparator",
      "outputs": [
        {
          "internalType": "bytes32",
          "name": "",
          "type": "bytes32"
        }
      ],
      "stateMutability": "view",
      "type": "function"
    },
    {
      "inputs": [
        {
          "components": [
            {
              "internalType": "address",
              "name": "beneficiary",
              "type": "address"
            },
            {
              "internalType": "address",
              "name": "context",
              "type": "address"
            },
            {
              "internalType": "uint256",
              "name": "nonce",
              "type": "uint256"
            },
            {
              "internalType": "uint256",
              "name": "validUntil",
              "type": "uint256"
            }
          ],
          "internalType": "struct Attestation",
          "name": "attestation",
          "type": "tuple"
        }
      ],
      "name": "encode",
      "outputs": [
        {
          "internalType": "bytes",
          "name": "",
          "type": "bytes"
        }
      ],
      "stateMutability": "pure",
      "type": "function"
    },
    {
      "inputs": [],
      "name": "manager",
      "outputs": [
        {
          "internalType": "address",
          "name": "",
          "type": "address"
        }
      ],
      "stateMutability": "view",
      "type": "function"
    },
    {
      "inputs": [
        {
          "internalType": "address",
          "name": "",
          "type": "address"
        }
      ],
      "name": "nonces",
      "outputs": [
        {
          "internalType": "uint256",
          "name": "",
          "type": "uint256"
        }
      ],
      "stateMutability": "view",
      "type": "function"
    },
    {
      "inputs": [],
      "name": "owner",
      "outputs": [
        {
          "internalType": "address",
          "name": "",
          "type": "address"
        }
      ],
      "stateMutability": "view",
      "type": "function"
    },
    {
      "inputs": [
        {
          "internalType": "address",
          "name": "signerToRegister",
          "type": "address"
        },
        {
          "internalType": "address",
          "name": "signerToRevoke",
          "type": "address"
        },
        {
          "internalType": "uint256",
          "name": "validityDays",
          "type": "uint256"
        }
      ],
      "name": "registerAndRevoke",
      "outputs": [
        {
          "internalType": "uint256",
          "name": "validUntil",
          "type": "uint256"
        }
      ],
      "stateMutability": "nonpayable",
      "type": "function"
    },
    {
      "inputs": [
        {
          "internalType": "address",
          "name": "signer",
          "type": "address"
        },
        {
          "internalType": "uint256",
          "name": "validityDays",
          "type": "uint256"
        }
      ],
      "name": "registerSigner",
      "outputs": [
        {
          "internalType": "uint256",
          "name": "validUntil",
          "type": "uint256"
        }
      ],
      "stateMutability": "nonpayable",
      "type": "function"
    },
    {
      "inputs": [],
      "name": "renounceOwnership",
      "outputs": [],
      "stateMutability": "nonpayable",
      "type": "function"
    },
    {
      "inputs": [],
      "name": "requestType",
      "outputs": [
        {
          "internalType": "bytes",
          "name": "",
          "type": "bytes"
        }
      ],
      "stateMutability": "view",
      "type": "function"
    },
    {
      "inputs": [
        {
          "internalType": "address",
          "name": "signer",
          "type": "address"
        }
      ],
      "name": "revokeSigner",
      "outputs": [],
      "stateMutability": "nonpayable",
      "type": "function"
    },
    {
      "inputs": [
        {
          "internalType": "address",
          "name": "_manager",
          "type": "address"
        }
      ],
      "name": "setManager",
      "outputs": [],
      "stateMutability": "nonpayable",
      "type": "function"
    },
    {
      "inputs": [
        {
          "internalType": "address",
          "name": "",
          "type": "address"
        }
      ],
      "name": "signerValidity",
      "outputs": [
        {
          "internalType": "uint256",
          "name": "",
          "type": "uint256"
        }
      ],
      "stateMutability": "view",
      "type": "function"
    },
    {
      "inputs": [
        {
          "internalType": "address",
          "name": "newOwner",
          "type": "address"
        }
      ],
      "name": "transferOwnership",
      "outputs": [],
      "stateMutability": "nonpayable",
      "type": "function"
    },
    {
      "inputs": [
        {
          "components": [
            {
              "components": [
                {
                  "internalType": "address",
                  "name": "beneficiary",
                  "type": "address"
                },
                {
                  "internalType": "address",
                  "name": "context",
                  "type": "address"
                },
                {
                  "internalType": "uint256",
                  "name": "nonce",
                  "type": "uint256"
                },
                {
                  "internalType": "uint256",
                  "name": "validUntil",
                  "type": "uint256"
                }
              ],
              "internalType": "struct Attestation",
              "name": "attestation",
              "type": "tuple"
            },
            {
              "internalType": "bytes",
              "name": "signature",
              "type": "bytes"
            }
          ],
          "internalType": "struct SignedAttestation",
          "name": "signedAttestation",
          "type": "tuple"
        }
      ],
      "name": "verify",
      "outputs": [
        {
          "internalType": "bool",
          "name": "",
          "type": "bool"
        }
      ],
      "stateMutability": "view",
      "type": "function"
    },
    {
      "inputs": [
        {
          "components": [
            {
              "internalType": "address",
              "name": "beneficiary",
              "type": "address"
            },
            {
              "internalType": "address",
              "name": "context",
              "type": "address"
            },
            {
              "internalType": "uint256",
              "name": "nonce",
              "type": "uint256"
            },
            {
              "internalType": "uint256",
              "name": "validUntil",
              "type": "uint256"
            }
          ],
          "internalType": "struct Attestation",
          "name": "attestation",
          "type": "tuple"
        },
        {
          "internalType": "bytes32",
          "name": "typeHash",
          "type": "bytes32"
        },
        {
          "internalType": "bytes",
          "name": "encodedData",
          "type": "bytes"
        },
        {
          "internalType": "bytes",
          "name": "signature",
          "type": "bytes"
        }
      ],
      "name": "verify",
      "outputs": [
        {
          "internalType": "bool",
          "name": "",
          "type": "bool"
        }
      ],
      "stateMutability": "view",
      "type": "function"
    },
    {
      "inputs": [
        {
          "components": [
            {
              "components": [
                {
                  "internalType": "address",
                  "name": "beneficiary",
                  "type": "address"
                },
                {
                  "internalType": "address",
                  "name": "context",
                  "type": "address"
                },
                {
                  "internalType": "uint256",
                  "name": "nonce",
                  "type": "uint256"
                },
                {
                  "internalType": "uint256",
                  "name": "validUntil",
                  "type": "uint256"
                }
              ],
              "internalType": "struct Attestation",
              "name": "attestation",
              "type": "tuple"
            },
            {
              "internalType": "bytes",
              "name": "signature",
              "type": "bytes"
            }
          ],
          "internalType": "struct SignedAttestation",
          "name": "signedAttestation",
          "type": "tuple"
        }
      ],
      "name": "verifyAndBurn",
      "outputs": [
        {
          "internalType": "bool",
          "name": "",
          "type": "bool"
        }
      ],
      "stateMutability": "nonpayable",
      "type": "function"
    },
    {
      "inputs": [
        {
          "components": [
            {
              "internalType": "address",
              "name": "beneficiary",
              "type": "address"
            },
            {
              "internalType": "address",
              "name": "context",
              "type": "address"
            },
            {
              "internalType": "uint256",
              "name": "nonce",
              "type": "uint256"
            },
            {
              "internalType": "uint256",
              "name": "validUntil",
              "type": "uint256"
            }
          ],
          "internalType": "struct Attestation",
          "name": "attestation",
          "type": "tuple"
        },
        {
          "internalType": "bytes32",
          "name": "typeHash",
          "type": "bytes32"
        },
        {
          "internalType": "bytes",
          "name": "encodedData",
          "type": "bytes"
        },
        {
          "internalType": "bytes",
          "name": "signature",
          "type": "bytes"
        }
      ],
      "name": "verifyAndBurn",
      "outputs": [
        {
          "internalType": "bool",
          "name": "",
          "type": "bool"
        }
      ],
      "stateMutability": "nonpayable",
      "type": "function"
    }
  ],
  "transactionHash": "0xf4c8b2181b5c9d6ea5a6678e0f84343c966c15b4012ad4f171df008b7230b3ee",
  "args": [
    "0x515F7d84cEE53051b7ADF645fA2220f65BC25c68"
  ],
  "numDeployments": 1,
  "solcInputHash": "84c8e1217695cca8ba1bbd09ead777e3",
  "bytecode": "0x6101408060405234620000945760208162001b958038038091620000248285620000e7565b8339810103126200009457516001600160a01b038116810362000094576200004c9062000135565b60405161188e908162000307823960805181610ddc015260a05181610e97015260c05181610dad015260e05181610e2b01526101005181610e5101526101205181610e080152f35b600080fd5b604081019081106001600160401b03821117620000b557604052565b634e487b7160e01b600052604160045260246000fd5b60c081019081106001600160401b03821117620000b557604052565b601f909101601f19168101906001600160401b03821190821017620000b557604052565b604051906200011a8262000099565b600c8252565b604051906200012f8262000099565b60028252565b620001f890620001446200010b565b60208101906b39b437bbba34b6b2973c3cbd60a11b82526200016562000120565b91602083019161763160f01b83526200017e33620002ba565b519020915190208160e05280610100524660a05260405160208101917f8b73c3c69bb8fe3d512ecc4cf759cc79239f7b179b0ffacaa9a75d522b39400f93848452604083015260608201524660808201523060a082015260a08152620001e481620000cb565b5190206080523060c05261012052620001fa565b565b6000546001600160a01b03908116330362000276578116156200022257620001f890620002ba565b60405162461bcd60e51b815260206004820152602660248201527f4f776e61626c653a206e6577206f776e657220697320746865207a65726f206160448201526564647265737360d01b6064820152608490fd5b606460405162461bcd60e51b815260206004820152602060248201527f4f776e61626c653a2063616c6c6572206973206e6f7420746865206f776e65726044820152fd5b600080546001600160a01b039283166001600160a01b03198216811783556040519093909116917f8be0079c531659141344cd1fd0a4f28419497f9722a3daafe3b4186f6b6457e091a356fe60806040526004361015610013575b600080fd5b60003560e01c806328425d51146101a35780632ff369691461019a578063308b5569146101915780633840497c1461018857806341366b381461017f578063481c6a7514610176578063715018a61461016d5780637ecebe0014610164578063820593001461015b57806385c10416146101525780638da5cb5b1461014957806396f1804014610140578063c34b44a014610137578063ca194c241461012e578063d0ebdbe714610125578063d7bdd1ae1461011c578063edf8f87814610113578063f2fde38b1461010a578063f698da25146101015763fde6360a146100f957600080fd5b61000e610c7a565b5061000e610c40565b5061000e610b4c565b5061000e610ae2565b5061000e610a57565b5061000e61099f565b5061000e610963565b5061000e6108e4565b5061000e6108c7565b5061000e610874565b5061000e610857565b5061000e61072c565b5061000e6106c2565b5061000e61061a565b5061000e6105c7565b5061000e6105a4565b5061000e6104de565b5061000e6104a2565b5061000e61045b565b5061000e6101ca565b73ffffffffffffffffffffffffffffffffffffffff81160361000e57565b503461000e5760607ffffffffffffffffffffffffffffffffffffffffffffffffffffffffffffffffc36011261000e57600435610206816101ac565b602435610212816101ac565b73ffffffffffffffffffffffffffffffffffffffff80600054163314159081610292575b50610268576102649161024b6102549261182f565b6044359061171f565b6040519081529081906020820190565b0390f35b60046040517f82b42900000000000000000000000000000000000000000000000000000000008152fd5b90506003541633141538610236565b507f4e487b7100000000000000000000000000000000000000000000000000000000600052604160045260246000fd5b6080810190811067ffffffffffffffff8211176102ed57604052565b6102f56102a1565b604052565b60c0810190811067ffffffffffffffff8211176102ed57604052565b90601f7fffffffffffffffffffffffffffffffffffffffffffffffffffffffffffffffe0910116810190811067ffffffffffffffff8211176102ed57604052565b60405190610364826102d1565b605182527f6e743235362076616c6964556e74696c290000000000000000000000000000006060837f4174746573746174696f6e28616464726573732062656e65666963696172792c60208201527f6164647265737320636f6e746578742c75696e74323536206e6f6e63652c756960408201520152565b918091926000905b8282106103fc5750116103f5575050565b6000910152565b915080602091830151818601520182916103e4565b7fffffffffffffffffffffffffffffffffffffffffffffffffffffffffffffffe0601f6040936020845261045481518092816020880152602088880191016103dc565b0116010190565b503461000e5760007ffffffffffffffffffffffffffffffffffffffffffffffffffffffffffffffffc36011261000e57610264610496610357565b60405191829182610411565b503461000e5760007ffffffffffffffffffffffffffffffffffffffffffffffffffffffffffffffffc36011261000e57602060405161012c8152f35b503461000e5760807ffffffffffffffffffffffffffffffffffffffffffffffffffffffffffffffffc36011261000e57610264610496604051610520816102d1565b60043561052c816101ac565b815260243561053a816101ac565b602082015260443560408201526064356060820152610ebd565b7ffffffffffffffffffffffffffffffffffffffffffffffffffffffffffffffffc9060208282011261000e576004359167ffffffffffffffff831161000e578260a09203011261000e5760040190565b503461000e5760206105bd6105b836610554565b610f31565b6040519015158152f35b503461000e5760007ffffffffffffffffffffffffffffffffffffffffffffffffffffffffffffffffc36011261000e57602073ffffffffffffffffffffffffffffffffffffffff60035416604051908152f35b503461000e576000807ffffffffffffffffffffffffffffffffffffffffffffffffffffffffffffffffc3601126106bf5780547fffffffffffffffffffffffff000000000000000000000000000000000000000073ffffffffffffffffffffffffffffffffffffffff821691610691338414610cc2565b16825581604051917f8be0079c531659141344cd1fd0a4f28419497f9722a3daafe3b4186f6b6457e08284a3f35b80fd5b503461000e5760207ffffffffffffffffffffffffffffffffffffffffffffffffffffffffffffffffc36011261000e5773ffffffffffffffffffffffffffffffffffffffff600435610713816101ac565b1660005260026020526020604060002054604051908152f35b503461000e5760206105bd61074036610554565b6116bf565b92919267ffffffffffffffff82116107ab575b6040519161078e60207fffffffffffffffffffffffffffffffffffffffffffffffffffffffffffffffe0601f8401160184610316565b82948184528183011161000e578281602093846000960137010152565b6107b36102a1565b610758565b907ffffffffffffffffffffffffffffffffffffffffffffffffffffffffffffffffc820160e0811261000e5760801361000e576004916084359167ffffffffffffffff9060a43582811161000e578360238201121561000e5783816024610823938901359101610745565b9260c4359083821161000e578060238301121561000e578187013593841161000e576024848301011161000e576024019190565b503461000e5760206105bd61086b366107b8565b93929092611060565b503461000e5760007ffffffffffffffffffffffffffffffffffffffffffffffffffffffffffffffffc36011261000e57602073ffffffffffffffffffffffffffffffffffffffff60005416604051908152f35b503461000e5760206105bd6108db366107b8565b93929092611712565b503461000e5760207ffffffffffffffffffffffffffffffffffffffffffffffffffffffffffffffffc36011261000e57600435610920816101ac565b73ffffffffffffffffffffffffffffffffffffffff80600054163314159081610954575b50610268576109529061182f565b005b90506003541633141538610944565b503461000e5760007ffffffffffffffffffffffffffffffffffffffffffffffffffffffffffffffffc36011261000e57602060405161016d8152f35b503461000e5760207ffffffffffffffffffffffffffffffffffffffffffffffffffffffffffffffffc36011261000e577f2c1c11af44aa5608f1dca38c00275c30ea091e02417d36e70e9a1538689c433d60206004356109fe816101ac565b73ffffffffffffffffffffffffffffffffffffffff90610a2382600054163314610cc2565b16807fffffffffffffffffffffffff00000000000000000000000000000000000000006003541617600355604051908152a1005b503461000e5760407ffffffffffffffffffffffffffffffffffffffffffffffffffffffffffffffffc36011261000e57600435610a93816101ac565b73ffffffffffffffffffffffffffffffffffffffff80600054163314159081610ad3575b5061026857610acb6020916024359061171f565b604051908152f35b90506003541633141538610ab7565b503461000e5760207ffffffffffffffffffffffffffffffffffffffffffffffffffffffffffffffffc36011261000e5773ffffffffffffffffffffffffffffffffffffffff600435610b33816101ac565b1660005260016020526020604060002054604051908152f35b503461000e5760207ffffffffffffffffffffffffffffffffffffffffffffffffffffffffffffffffc36011261000e57600435610b88816101ac565b73ffffffffffffffffffffffffffffffffffffffff610bac81600054163314610cc2565b811615610bbc5761095290610d27565b60846040517f08c379a000000000000000000000000000000000000000000000000000000000815260206004820152602660248201527f4f776e61626c653a206e6577206f776e657220697320746865207a65726f206160448201527f64647265737300000000000000000000000000000000000000000000000000006064820152fd5b503461000e5760007ffffffffffffffffffffffffffffffffffffffffffffffffffffffffffffffffc36011261000e576020610acb610d96565b503461000e5760007ffffffffffffffffffffffffffffffffffffffffffffffffffffffffffffffffc36011261000e576020610cb4610357565b818151910120604051908152f35b15610cc957565b60646040517f08c379a000000000000000000000000000000000000000000000000000000000815260206004820152602060248201527f4f776e61626c653a2063616c6c6572206973206e6f7420746865206f776e65726044820152fd5b6000549073ffffffffffffffffffffffffffffffffffffffff80911691827fffffffffffffffffffffffff0000000000000000000000000000000000000000821617600055167f8be0079c531659141344cd1fd0a4f28419497f9722a3daafe3b4186f6b6457e06000604051a3565b73ffffffffffffffffffffffffffffffffffffffff7f000000000000000000000000000000000000000000000000000000000000000016301480610e94575b15610dfe577f000000000000000000000000000000000000000000000000000000000000000090565b60405160208101907f000000000000000000000000000000000000000000000000000000000000000082527f000000000000000000000000000000000000000000000000000000000000000060408201527f000000000000000000000000000000000000000000000000000000000000000060608201524660808201523060a082015260a08152610e8e816102fa565b51902090565b507f00000000000000000000000000000000000000000000000000000000000000004614610dd5565b73ffffffffffffffffffffffffffffffffffffffff9081815116916020820151169060606040820151910151916040519360208501526040840152606083015260808201526080815260a0810181811067ffffffffffffffff821117610f24575b60405290565b610f2c6102a1565b610f1e565b610f39610357565b60208151910120813603906080821261000e57610f94604051610f5b816102d1565b8435610f66816101ac565b81526020850135610f76816101ac565b60208201526040850135604082015260608501356060820152610ebd565b917fffffffffffffffffffffffffffffffffffffffffffffffffffffffffffffffe16080850135910181121561000e5783019182359267ffffffffffffffff841161000e5760200191833603831361000e57610fef94611060565b90565b507f4e487b7100000000000000000000000000000000000000000000000000000000600052601160045260246000fd5b81811061102d570390565b611035610ff2565b0390565b35610fef816101ac565b60209291815261105b825180938580850191016103dc565b010190565b919091606081013580421161123f5761107d61012c914290611022565b116112155760406110b661109083611039565b73ffffffffffffffffffffffffffffffffffffffff166000526002602052604060002090565b54910135908181036111da5750509161111c611124926110e861111461112a9796604051928391602083019586611043565b037fffffffffffffffffffffffffffffffffffffffffffffffffffffffffffffffe08101835282610316565b519020611673565b923691610745565b90611269565b6111548173ffffffffffffffffffffffffffffffffffffffff166000526001602052604060002090565b5480156111b05742116111675750600190565b6040517f5b0a554300000000000000000000000000000000000000000000000000000000815273ffffffffffffffffffffffffffffffffffffffff919091166004820152602490fd5b60046040517f5e4b9f75000000000000000000000000000000000000000000000000000000008152fd5b6040517f3ddd513100000000000000000000000000000000000000000000000000000000815260048101919091526024810191909152604490fd5b60046040517f54090af9000000000000000000000000000000000000000000000000000000008152fd5b60046040517f203d82d8000000000000000000000000000000000000000000000000000000008152fd5b610fef91611276916114d6565b9190916112b7565b6005111561128857565b7f4e487b7100000000000000000000000000000000000000000000000000000000600052602160045260246000fd5b6112c08161127e565b806112c85750565b6112d18161127e565b60018103611338576040517f08c379a000000000000000000000000000000000000000000000000000000000815260206004820152601860248201527f45434453413a20696e76616c6964207369676e617475726500000000000000006044820152606490fd5b6113418161127e565b600281036113a8576040517f08c379a000000000000000000000000000000000000000000000000000000000815260206004820152601f60248201527f45434453413a20696e76616c6964207369676e6174757265206c656e677468006044820152606490fd5b6113b18161127e565b6003810361143e576040517f08c379a000000000000000000000000000000000000000000000000000000000815260206004820152602260248201527f45434453413a20696e76616c6964207369676e6174757265202773272076616c60448201527f75650000000000000000000000000000000000000000000000000000000000006064820152608490fd5b8061144a60049261127e565b1461145157565b6040517f08c379a000000000000000000000000000000000000000000000000000000000815260206004820152602260248201527f45434453413a20696e76616c6964207369676e6174757265202776272076616c60448201527f75650000000000000000000000000000000000000000000000000000000000006064820152608490fd5b8151604181036115035750906114ff916020820151906060604084015193015160001a906115b0565b9091565b6040036115815781604060206114ff9401519101519160ff601b7f7fffffffffffffffffffffffffffffffffffffffffffffffffffffffffffffff85831c957fffffffffffffffffffffffffffffffffffffffffffffffffffffffffffffffe48711611574575b16940116906115b0565b61157c610ff2565b61156a565b5050600090600290565b81198111611597570190565b61159f610ff2565b0190565b506040513d6000823e3d90fd5b9291907f7fffffffffffffffffffffffffffffff5d576e7357a4501ddfe92f46681b20a083116116675760ff16601b8114158061165c575b611650579160809493916020936040519384528484015260408301526060820152600093849182805260015afa15611643575b815173ffffffffffffffffffffffffffffffffffffffff81161561163d579190565b50600190565b61164b6115a3565b61161b565b50505050600090600490565b50601c8114156115e8565b50505050600090600390565b61167b610d96565b906040519060208201927f190100000000000000000000000000000000000000000000000000000000000084526022830152604282015260428152610e8e816102d1565b6116c881610f31565b1561170c5761170790356116db816101ac565b73ffffffffffffffffffffffffffffffffffffffff166000526002602052604060002060018154019055565b600190565b50600090565b93916116c8939185611060565b919061016d8111611215576117b0620151807f50999ebf9b59bf3157a58816611976f2d723378ad51457d7b0413209e0cdee59927fffffffffffffffffffffffffffffffffffffffffffffffffffffffffffffffff81810460181182151516611822575b60188202808204603c1190151516611815575b6105a082028015159104603c1116611808575b024261158b565b83816117dd819673ffffffffffffffffffffffffffffffffffffffff166000526001602052604060002090565b556040805173ffffffffffffffffffffffffffffffffffffffff9290921682526020820192909252a1565b611810610ff2565b6117a9565b61181d610ff2565b611796565b61182a610ff2565b611783565b602073ffffffffffffffffffffffffffffffffffffffff7f99a705a3c2c3339d0051f56b36a60fef91e30142c93353002617999f27aec4af9216806000526001825260006040812055604051908152a156fea164736f6c634300080d000a",
  "devdoc": {
    "kind": "dev",
    "methods": {
      "owner()": {
        "details": "Returns the address of the current owner."
      },
      "registerSigner(address,uint256)": {
        "params": {
          "signer": "the new signer to register",
          "validityDays": "how long the signer will be valid starting from the moment of registration"
        },
        "returns": {
          "validUntil": "the timestamp in seconds after which the signer expires"
        }
      },
      "renounceOwnership()": {
        "details": "Leaves the contract without owner. It will not be possible to call `onlyOwner` functions anymore. Can only be called by the current owner. NOTE: Renouncing ownership will leave the contract without an owner, thereby removing any functionality that is only available to the owner."
      },
      "setManager(address)": {
        "params": {
          "_manager": "the address that will be authorized to add and remove signers (use address 0 to disable)"
        }
      },
      "transferOwnership(address)": {
        "details": "Transfers ownership of the contract to a new account (`newOwner`). Can only be called by the current owner."
      },
      "verify(((address,address,uint256,uint256),bytes))": {
        "params": {
          "signedAttestation": "the attestation to verify along with a corresponding signature"
        },
        "returns": {
          "_0": "true if the attestation is valid, reverts otherwise"
        }
      },
      "verify((address,address,uint256,uint256),bytes32,bytes,bytes)": {
        "details": "see https://eips.ethereum.org/EIPS/eip-712#definition-of-hashstruct",
        "params": {
          "attestation": "the attestation to verify",
          "encodedData": "the EIP712-encoded struct data to be verified (32 bytes long members, hashed dynamic types)",
          "signature": "the signature of the hashed struct",
          "typeHash": "the EIP712 type hash for the struct data to be verified"
        },
        "returns": {
          "_0": "true if the signature is valid, reverts otherwise"
        }
      }
    },
    "version": 1
  },
  "userdoc": {
    "kind": "user",
    "methods": {
      "nonces(address)": {
        "notice": "maps addresses to their nonces"
      },
      "registerAndRevoke(address,address,uint256)": {
        "notice": "Convenience function for the workflow where one expects a single active signer"
      },
      "registerSigner(address,uint256)": {
        "notice": "Registers an authorized signer"
      },
      "revokeSigner(address)": {
        "notice": "Remove an authorized signer"
      },
      "setManager(address)": {
        "notice": "Delegates the signer management to another address"
      },
      "verify(((address,address,uint256,uint256),bytes))": {
        "notice": "Verifies the given attestationThis method does not increment the nonce so it provides no replay safety"
      },
      "verify((address,address,uint256,uint256),bytes32,bytes,bytes)": {
        "notice": "Verifies arbitrary typed dataThis method does not increment the nonce so it provides no replay safetyThe attestation SHOULD be part of the encodedData (i.e. a change in the attestation should change the signature)"
      }
    },
    "version": 1
  },
  "storageLayout": {
    "storage": [
      {
        "astId": 472,
        "contract": "src/ShowtimeVerifier.sol:ShowtimeVerifier",
        "label": "_owner",
        "offset": 0,
        "slot": "0",
        "type": "t_address"
      },
      {
        "astId": 6045,
        "contract": "src/ShowtimeVerifier.sol:ShowtimeVerifier",
        "label": "signerValidity",
        "offset": 0,
        "slot": "1",
        "type": "t_mapping(t_address,t_uint256)"
      },
      {
        "astId": 6050,
        "contract": "src/ShowtimeVerifier.sol:ShowtimeVerifier",
        "label": "nonces",
        "offset": 0,
        "slot": "2",
        "type": "t_mapping(t_address,t_uint256)"
      },
      {
        "astId": 6052,
        "contract": "src/ShowtimeVerifier.sol:ShowtimeVerifier",
        "label": "manager",
        "offset": 0,
        "slot": "3",
        "type": "t_address"
      }
    ],
    "types": {
      "t_address": {
        "encoding": "inplace",
        "label": "address",
        "numberOfBytes": "20"
      },
      "t_mapping(t_address,t_uint256)": {
        "encoding": "mapping",
        "key": "t_address",
        "label": "mapping(address => uint256)",
        "numberOfBytes": "32",
        "value": "t_uint256"
      },
      "t_uint256": {
        "encoding": "inplace",
        "label": "uint256",
        "numberOfBytes": "32"
      }
    }
  }
}