{
  "address": "0x50c001c88b59dc3b833E0F062EfC2271CE88Cb89",
  "abi": [
    {
      "anonymous": false,
      "inputs": [
        {
          "indexed": true,
          "internalType": "bytes32",
          "name": "domainSeparator",
          "type": "bytes32"
        },
        {
          "indexed": false,
          "internalType": "bytes",
          "name": "domainValue",
          "type": "bytes"
        }
      ],
      "name": "DomainRegistered",
      "type": "event"
    },
    {
      "anonymous": false,
      "inputs": [
        {
          "indexed": true,
          "internalType": "bytes32",
          "name": "typeHash",
          "type": "bytes32"
        },
        {
          "indexed": false,
          "internalType": "string",
          "name": "typeStr",
          "type": "string"
        }
      ],
      "name": "RequestTypeRegistered",
      "type": "event"
    },
    {
      "inputs": [],
      "name": "EIP712_DOMAIN_TYPE",
      "outputs": [
        {
          "internalType": "string",
          "name": "",
          "type": "string"
        }
      ],
      "stateMutability": "view",
      "type": "function"
    },
    {
      "inputs": [],
      "name": "GENERIC_PARAMS",
      "outputs": [
        {
          "internalType": "string",
          "name": "",
          "type": "string"
        }
      ],
      "stateMutability": "view",
      "type": "function"
    },
    {
      "inputs": [
        {
          "components": [
            {
              "internalType": "address",
              "name": "from",
              "type": "address"
            },
            {
              "internalType": "address",
              "name": "to",
              "type": "address"
            },
            {
              "internalType": "uint256",
              "name": "value",
              "type": "uint256"
            },
            {
              "internalType": "uint256",
              "name": "gas",
              "type": "uint256"
            },
            {
              "internalType": "uint256",
              "name": "nonce",
              "type": "uint256"
            },
            {
              "internalType": "bytes",
              "name": "data",
              "type": "bytes"
            },
            {
              "internalType": "uint256",
              "name": "validUntilTime",
              "type": "uint256"
            }
          ],
          "internalType": "struct IForwarder.ForwardRequest",
          "name": "req",
          "type": "tuple"
        },
        {
          "internalType": "bytes32",
          "name": "requestTypeHash",
          "type": "bytes32"
        },
        {
          "internalType": "bytes",
          "name": "suffixData",
          "type": "bytes"
        }
      ],
      "name": "_getEncoded",
      "outputs": [
        {
          "internalType": "bytes",
          "name": "",
          "type": "bytes"
        }
      ],
      "stateMutability": "pure",
      "type": "function"
    },
    {
      "inputs": [
        {
          "internalType": "bytes32",
          "name": "",
          "type": "bytes32"
        }
      ],
      "name": "domains",
      "outputs": [
        {
          "internalType": "bool",
          "name": "",
          "type": "bool"
        }
      ],
      "stateMutability": "view",
      "type": "function"
    },
    {
      "inputs": [
        {
          "components": [
            {
              "internalType": "address",
              "name": "from",
              "type": "address"
            },
            {
              "internalType": "address",
              "name": "to",
              "type": "address"
            },
            {
              "internalType": "uint256",
              "name": "value",
              "type": "uint256"
            },
            {
              "internalType": "uint256",
              "name": "gas",
              "type": "uint256"
            },
            {
              "internalType": "uint256",
              "name": "nonce",
              "type": "uint256"
            },
            {
              "internalType": "bytes",
              "name": "data",
              "type": "bytes"
            },
            {
              "internalType": "uint256",
              "name": "validUntilTime",
              "type": "uint256"
            }
          ],
          "internalType": "struct IForwarder.ForwardRequest",
          "name": "req",
          "type": "tuple"
        },
        {
          "internalType": "bytes32",
          "name": "domainSeparator",
          "type": "bytes32"
        },
        {
          "internalType": "bytes32",
          "name": "requestTypeHash",
          "type": "bytes32"
        },
        {
          "internalType": "bytes",
          "name": "suffixData",
          "type": "bytes"
        },
        {
          "internalType": "bytes",
          "name": "sig",
          "type": "bytes"
        }
      ],
      "name": "execute",
      "outputs": [
        {
          "internalType": "bool",
          "name": "success",
          "type": "bool"
        },
        {
          "internalType": "bytes",
          "name": "ret",
          "type": "bytes"
        }
      ],
      "stateMutability": "payable",
      "type": "function"
    },
    {
      "inputs": [
        {
          "internalType": "address",
          "name": "from",
          "type": "address"
        }
      ],
      "name": "getNonce",
      "outputs": [
        {
          "internalType": "uint256",
          "name": "",
          "type": "uint256"
        }
      ],
      "stateMutability": "view",
      "type": "function"
    },
    {
      "inputs": [
        {
          "internalType": "string",
          "name": "name",
          "type": "string"
        },
        {
          "internalType": "string",
          "name": "version",
          "type": "string"
        }
      ],
      "name": "registerDomainSeparator",
      "outputs": [],
      "stateMutability": "nonpayable",
      "type": "function"
    },
    {
      "inputs": [
        {
          "internalType": "string",
          "name": "typeName",
          "type": "string"
        },
        {
          "internalType": "string",
          "name": "typeSuffix",
          "type": "string"
        }
      ],
      "name": "registerRequestType",
      "outputs": [],
      "stateMutability": "nonpayable",
      "type": "function"
    },
    {
      "inputs": [
        {
          "internalType": "bytes4",
          "name": "interfaceId",
          "type": "bytes4"
        }
      ],
      "name": "supportsInterface",
      "outputs": [
        {
          "internalType": "bool",
          "name": "",
          "type": "bool"
        }
      ],
      "stateMutability": "view",
      "type": "function"
    },
    {
      "inputs": [
        {
          "internalType": "bytes32",
          "name": "",
          "type": "bytes32"
        }
      ],
      "name": "typeHashes",
      "outputs": [
        {
          "internalType": "bool",
          "name": "",
          "type": "bool"
        }
      ],
      "stateMutability": "view",
      "type": "function"
    },
    {
      "inputs": [
        {
          "components": [
            {
              "internalType": "address",
              "name": "from",
              "type": "address"
            },
            {
              "internalType": "address",
              "name": "to",
              "type": "address"
            },
            {
              "internalType": "uint256",
              "name": "value",
              "type": "uint256"
            },
            {
              "internalType": "uint256",
              "name": "gas",
              "type": "uint256"
            },
            {
              "internalType": "uint256",
              "name": "nonce",
              "type": "uint256"
            },
            {
              "internalType": "bytes",
              "name": "data",
              "type": "bytes"
            },
            {
              "internalType": "uint256",
              "name": "validUntilTime",
              "type": "uint256"
            }
          ],
          "internalType": "struct IForwarder.ForwardRequest",
          "name": "req",
          "type": "tuple"
        },
        {
          "internalType": "bytes32",
          "name": "domainSeparator",
          "type": "bytes32"
        },
        {
          "internalType": "bytes32",
          "name": "requestTypeHash",
          "type": "bytes32"
        },
        {
          "internalType": "bytes",
          "name": "suffixData",
          "type": "bytes"
        },
        {
          "internalType": "bytes",
          "name": "sig",
          "type": "bytes"
        }
      ],
      "name": "verify",
      "outputs": [],
      "stateMutability": "view",
      "type": "function"
    },
    {
      "stateMutability": "payable",
      "type": "receive"
    }
  ],
  "transactionHash": "0x14828d8a2919158b711963bd3c2f560d1e1714f29c99cc9dc8e5dc558f6c48c9",
  "args": [],
  "numDeployments": 1,
  "solcInputHash": "0884606e5c705d84f25cbe2701d5805e",
  "bytecode": "0x60806040523480156200001157600080fd5b5060006040518060a0016040528060618152602001620015d160619139604051602001620000409190620000c8565b60408051601f1981840301815291905290506200005d8162000064565b5062000174565b8051602080830191909120600081815291829052604091829020805460ff19166001179055905181907f64d6bce64323458c44643c51fe45113efc882082f7b7fd5f09f0d69d2eedb20290620000bc9085906200010c565b60405180910390a25050565b6e08cdee4eec2e4c8a4cae2eacae6e85608b1b815260008251620000f481600f85016020870162000141565b602960f81b600f939091019283015250601001919050565b60208152600082518060208401526200012d81604085016020870162000141565b601f01601f19169190910160400192915050565b60005b838110156200015e57818101518382015260200162000144565b838111156200016e576000848401525b50505050565b61144d80620001846000396000f3fe6080604052600436106100c05760003560e01c8063ad9f99c711610074578063d9210be51161004e578063d9210be51461021e578063e024dc7f1461023e578063e2b62f2d1461025f57600080fd5b8063ad9f99c7146101b9578063c3f28abd146101d9578063c722f177146101ee57600080fd5b806321fe98df116100a557806321fe98df146101235780632d0335ab146101535780639c7b45921461019757600080fd5b806301ffc9a7146100cc578063066a310c1461010157600080fd5b366100c757005b600080fd5b3480156100d857600080fd5b506100ec6100e7366004610f73565b61027f565b60405190151581526020015b60405180910390f35b34801561010d57600080fd5b506101166102b6565b6040516100f8919061124d565b34801561012f57600080fd5b506100ec61013e366004610f5a565b60006020819052908152604090205460ff1681565b34801561015f57600080fd5b5061018961016e366004610f2a565b6001600160a01b031660009081526002602052604090205490565b6040519081526020016100f8565b3480156101a357600080fd5b506101b76101b2366004610f9d565b6102d2565b005b3480156101c557600080fd5b506101b76101d4366004611009565b6103c9565b3480156101e557600080fd5b506101166103ea565b3480156101fa57600080fd5b506100ec610209366004610f5a565b60016020526000908152604090205460ff1681565b34801561022a57600080fd5b506101b7610239366004610f9d565b610406565b61025161024c366004611009565b610541565b6040516100f892919061122a565b34801561026b57600080fd5b5061011661027a3660046110b1565b610769565b60006001600160e01b031982166309788f9960e21b14806102b057506301ffc9a760e01b6001600160e01b03198316145b92915050565b6040518060a001604052806061815260200161138e6061913981565b600046905060006040518060800160405280605281526020016113ef60529139805190602001208686604051610309929190611186565b60405180910390208585604051610321929190611186565b6040805191829003822060208301949094528101919091526060810191909152608081018390523060a082015260c00160408051601f198184030181528282528051602080830191909120600081815260019283905293909320805460ff1916909117905592509081907f4bc68689cbe89a4a6333a3ab0a70093874da3e5bfb71e93102027f3f073687d8906103b890859061124d565b60405180910390a250505050505050565b6103d287610803565b6103e18787878787878761088a565b50505050505050565b6040518060800160405280605281526020016113ef6052913981565b60005b838110156104ec57600085858381811061042557610425611377565b909101357fff0000000000000000000000000000000000000000000000000000000000000016915050600560fb1b81148015906104885750602960f81b7fff00000000000000000000000000000000000000000000000000000000000000821614155b6104d95760405162461bcd60e51b815260206004820152601560248201527f4657443a20696e76616c696420747970656e616d65000000000000000000000060448201526064015b60405180910390fd5b50806104e481611330565b915050610409565b50600084846040518060a001604052806061815260200161138e6061913985856040516020016105209594939291906111d8565b604051602081830303815290604052905061053a81610a52565b5050505050565b600060606105548989898989898961088a565b61055d89610ab4565b60c089013515806105715750428960c00135115b6105bd5760405162461bcd60e51b815260206004820152601460248201527f4657443a2072657175657374206578706972656400000000000000000000000060448201526064016104d0565b600060408a0135156105ce5750619c405b60006105dd60a08c018c611260565b6105ea60208e018e610f2a565b6040516020016105fc93929190611196565b60408051601f19818403018152919052905061061c8260608d01356112a7565b60405a61062a90603f6112e1565b61063491906112bf565b10156106825760405162461bcd60e51b815260206004820152601560248201527f4657443a20696e73756666696369656e7420676173000000000000000000000060448201526064016104d0565b61069260408c0160208d01610f2a565b6001600160a01b03168b606001358c60400135836040516106b391906111bc565b600060405180830381858888f193505050503d80600081146106f1576040519150601f19603f3d011682016040523d82523d6000602084013e6106f6565b606091505b50909450925060408b01351580159061070f5750600047115b1561075b5761072160208c018c610f2a565b6001600160a01b03166108fc479081150290604051600060405180830381858888f19350505050158015610759573d6000803e3d6000fd5b505b505097509795505050505050565b6060836107796020870187610f2a565b6001600160a01b03166107926040880160208901610f2a565b6001600160a01b03166040880135606089013560808a01356107b760a08c018c611260565b6040516107c5929190611186565b6040519081900381206107ea9796959493929160c08e0135908c908c90602001611134565b6040516020818303038152906040529050949350505050565b6080810135600260006108196020850185610f2a565b6001600160a01b03166001600160a01b0316815260200190815260200160002054146108875760405162461bcd60e51b815260206004820152601360248201527f4657443a206e6f6e6365206d69736d617463680000000000000000000000000060448201526064016104d0565b50565b60008681526001602052604090205460ff166108e85760405162461bcd60e51b815260206004820152601d60248201527f4657443a20756e7265676973746572656420646f6d61696e207365702e00000060448201526064016104d0565b60008581526020819052604090205460ff166109465760405162461bcd60e51b815260206004820152601a60248201527f4657443a20756e7265676973746572656420747970656861736800000000000060448201526064016104d0565b60008661095589888888610769565b805160209182012060405161098193920161190160f01b81526002810192909252602282015260420190565b60408051601f19818403018152919052805160209182012091506109a790890189610f2a565b6001600160a01b03166109f284848080601f0160208091040260200160405190810160405280939291908181526020018383808284376000920191909152508693925050610b429050565b6001600160a01b031614610a485760405162461bcd60e51b815260206004820152601760248201527f4657443a207369676e6174757265206d69736d6174636800000000000000000060448201526064016104d0565b5050505050505050565b8051602080830191909120600081815291829052604091829020805460ff19166001179055905181907f64d6bce64323458c44643c51fe45113efc882082f7b7fd5f09f0d69d2eedb20290610aa890859061124d565b60405180910390a25050565b608081013560026000610aca6020850185610f2a565b6001600160a01b0316815260208101919091526040016000908120805491610af183611330565b91905055146108875760405162461bcd60e51b815260206004820152601360248201527f4657443a206e6f6e6365206d69736d617463680000000000000000000000000060448201526064016104d0565b6000806000610b518585610b66565b91509150610b5e81610bd6565b509392505050565b600080825160411415610b9d5760208301516040840151606085015160001a610b9187828585610d91565b94509450505050610bcf565b825160401415610bc75760208301516040840151610bbc868383610e7e565b935093505050610bcf565b506000905060025b9250929050565b6000816004811115610bea57610bea611361565b1415610bf35750565b6001816004811115610c0757610c07611361565b1415610c555760405162461bcd60e51b815260206004820152601860248201527f45434453413a20696e76616c6964207369676e6174757265000000000000000060448201526064016104d0565b6002816004811115610c6957610c69611361565b1415610cb75760405162461bcd60e51b815260206004820152601f60248201527f45434453413a20696e76616c6964207369676e6174757265206c656e6774680060448201526064016104d0565b6003816004811115610ccb57610ccb611361565b1415610d245760405162461bcd60e51b815260206004820152602260248201527f45434453413a20696e76616c6964207369676e6174757265202773272076616c604482015261756560f01b60648201526084016104d0565b6004816004811115610d3857610d38611361565b14156108875760405162461bcd60e51b815260206004820152602260248201527f45434453413a20696e76616c6964207369676e6174757265202776272076616c604482015261756560f01b60648201526084016104d0565b6000807f7fffffffffffffffffffffffffffffff5d576e7357a4501ddfe92f46681b20a0831115610dc85750600090506003610e75565b8460ff16601b14158015610de057508460ff16601c14155b15610df15750600090506004610e75565b6040805160008082526020820180845289905260ff881692820192909252606081018690526080810185905260019060a0016020604051602081039080840390855afa158015610e45573d6000803e3d6000fd5b5050604051601f1901519150506001600160a01b038116610e6e57600060019250925050610e75565b9150600090505b94509492505050565b6000807f7fffffffffffffffffffffffffffffffffffffffffffffffffffffffffffffff831681610eb460ff86901c601b6112a7565b9050610ec287828885610d91565b935093505050935093915050565b60008083601f840112610ee257600080fd5b50813567ffffffffffffffff811115610efa57600080fd5b602083019150836020828501011115610bcf57600080fd5b600060e08284031215610f2457600080fd5b50919050565b600060208284031215610f3c57600080fd5b81356001600160a01b0381168114610f5357600080fd5b9392505050565b600060208284031215610f6c57600080fd5b5035919050565b600060208284031215610f8557600080fd5b81356001600160e01b031981168114610f5357600080fd5b60008060008060408587031215610fb357600080fd5b843567ffffffffffffffff80821115610fcb57600080fd5b610fd788838901610ed0565b90965094506020870135915080821115610ff057600080fd5b50610ffd87828801610ed0565b95989497509550505050565b600080600080600080600060a0888a03121561102457600080fd5b873567ffffffffffffffff8082111561103c57600080fd5b6110488b838c01610f12565b985060208a0135975060408a0135965060608a013591508082111561106c57600080fd5b6110788b838c01610ed0565b909650945060808a013591508082111561109157600080fd5b5061109e8a828b01610ed0565b989b979a50959850939692959293505050565b600080600080606085870312156110c757600080fd5b843567ffffffffffffffff808211156110df57600080fd5b6110eb88838901610f12565b9550602087013594506040870135915080821115610ff057600080fd5b60008151808452611120816020860160208601611300565b601f01601f19169290920160200192915050565b8a81528960208201528860408201528760608201528660808201528560a08201528460c08201528360e082015260006101008385828501376000929093019092019081529a9950505050505050505050565b8183823760009101908152919050565b8284823760609190911b6bffffffffffffffffffffffff19169101908152601401919050565b600082516111ce818460208701611300565b9190910192915050565b84868237600085820160008152600560fb1b815285516111ff816001840160208a01611300565b600b60fa1b600192909101918201528385600283013760009301600201928352509095945050505050565b82151581526040602082015260006112456040830184611108565b949350505050565b602081526000610f536020830184611108565b6000808335601e1984360301811261127757600080fd5b83018035915067ffffffffffffffff82111561129257600080fd5b602001915036819003821315610bcf57600080fd5b600082198211156112ba576112ba61134b565b500190565b6000826112dc57634e487b7160e01b600052601260045260246000fd5b500490565b60008160001904831182151516156112fb576112fb61134b565b500290565b60005b8381101561131b578181015183820152602001611303565b8381111561132a576000848401525b50505050565b60006000198214156113445761134461134b565b5060010190565b634e487b7160e01b600052601160045260246000fd5b634e487b7160e01b600052602160045260246000fd5b634e487b7160e01b600052603260045260246000fdfe616464726573732066726f6d2c6164647265737320746f2c75696e743235362076616c75652c75696e74323536206761732c75696e74323536206e6f6e63652c627974657320646174612c75696e743235362076616c6964556e74696c54696d65454950373132446f6d61696e28737472696e67206e616d652c737472696e672076657273696f6e2c75696e7432353620636861696e49642c6164647265737320766572696679696e67436f6e747261637429a164736f6c6343000807000a616464726573732066726f6d2c6164647265737320746f2c75696e743235362076616c75652c75696e74323536206761732c75696e74323536206e6f6e63652c627974657320646174612c75696e743235362076616c6964556e74696c54696d65",
  "devdoc": {
    "kind": "dev",
    "methods": {
      "execute((address,address,uint256,uint256,uint256,bytes,uint256),bytes32,bytes32,bytes,bytes)": {
        "params": {
          "domainSeparator": "The domain used when signing this request.",
          "forwardRequest": "All requested transaction parameters.",
          "requestTypeHash": "The request type used when signing this request.",
          "signature": "The client signature to be validated.",
          "suffixData": "The ABI-encoded extension data for the current `RequestType` used when signing this request."
        },
        "returns": {
          "ret": "The byte array returned by the underlying `CALL` to the target address.",
          "success": "The success flag of the underlying `CALL` to the target address."
        }
      },
      "getNonce(address)": {
        "params": {
          "from": "The address of a sender."
        },
        "returns": {
          "_0": "The nonce for this address."
        }
      },
      "registerDomainSeparator(string,string)": {
        "params": {
          "name": "The domain's display name.",
          "version": "The domain/protocol version."
        }
      },
      "registerRequestType(string,string)": {
        "params": {
          "typeName": "The name of the request type.",
          "typeSuffix": "Any extra data after the generic params. Must contain add at least one param. The generic ForwardRequest type is always registered by the constructor."
        }
      },
      "supportsInterface(bytes4)": {
        "details": "Returns true if this contract implements the interface defined by `interfaceId`. See the corresponding https://eips.ethereum.org/EIPS/eip-165#how-interfaces-are-identified[EIP section] to learn more about how these ids are created. This function call must use less than 30 000 gas."
      }
    },
    "version": 1
  },
  "userdoc": {
    "kind": "user",
    "methods": {
      "_getEncoded((address,address,uint256,uint256,uint256,bytes,uint256),bytes32,bytes)": {
        "notice": "Creates a byte array that is a valid ABI encoding of a request of a `RequestType` type. See `execute()`."
      },
      "execute((address,address,uint256,uint256,uint256,bytes,uint256),bytes32,bytes32,bytes,bytes)": {
        "notice": "Executes a transaction specified by the `ForwardRequest`. The transaction is first verified and then executed. The success flag and returned bytes array of the `CALL` are returned as-is. This method would revert only in case of a verification error. All the target errors are reported using the returned success flag and returned bytes array."
      },
      "registerDomainSeparator(string,string)": {
        "notice": "Register a new domain separator.This is necessary for the Forwarder to be able to verify the signatures conforming to the ERC-712.The domain separator must have the following fields: `name`, `version`, `chainId`, `verifyingContract`. The `chainId` is the current network's `chainId`, and the `verifyingContract` is this Forwarder's address. This method accepts the domain name and version to create and register the domain separator value."
      },
      "registerRequestType(string,string)": {
        "notice": "Register a new Request typehash.This is necessary for the Forwarder to be able to verify the signatures conforming to the ERC-712."
      },
      "verify((address,address,uint256,uint256,uint256,bytes,uint256),bytes32,bytes32,bytes,bytes)": {
        "notice": "Verify the transaction is valid and can be executed. Implementations must validate the signature and the nonce of the request are correct. Does not revert and returns successfully if the input is valid. Reverts if any validation has failed. For instance, if either signature or nonce are incorrect. Reverts if `domainSeparator` or `requestTypeHash` are not registered as well."
      }
    },
    "version": 1
  },
  "storageLayout": {
    "storage": [
      {
        "astId": 3980,
        "contract": "src/meta-tx/ShowtimeForwarder.sol:ShowtimeForwarder",
        "label": "typeHashes",
        "offset": 0,
        "slot": "0",
        "type": "t_mapping(t_bytes32,t_bool)"
      },
      {
        "astId": 3984,
        "contract": "src/meta-tx/ShowtimeForwarder.sol:ShowtimeForwarder",
        "label": "domains",
        "offset": 0,
        "slot": "1",
        "type": "t_mapping(t_bytes32,t_bool)"
      },
      {
        "astId": 3988,
        "contract": "src/meta-tx/ShowtimeForwarder.sol:ShowtimeForwarder",
        "label": "nonces",
        "offset": 0,
        "slot": "2",
        "type": "t_mapping(t_address,t_uint256)"
      }
    ],
    "types": {
      "t_address": {
        "encoding": "inplace",
        "label": "address",
        "numberOfBytes": "20"
      },
      "t_bool": {
        "encoding": "inplace",
        "label": "bool",
        "numberOfBytes": "1"
      },
      "t_bytes32": {
        "encoding": "inplace",
        "label": "bytes32",
        "numberOfBytes": "32"
      },
      "t_mapping(t_address,t_uint256)": {
        "encoding": "mapping",
        "key": "t_address",
        "label": "mapping(address => uint256)",
        "numberOfBytes": "32",
        "value": "t_uint256"
      },
      "t_mapping(t_bytes32,t_bool)": {
        "encoding": "mapping",
        "key": "t_bytes32",
        "label": "mapping(bytes32 => bool)",
        "numberOfBytes": "32",
        "value": "t_bool"
      },
      "t_uint256": {
        "encoding": "inplace",
        "label": "uint256",
        "numberOfBytes": "32"
      }
    }
  }
}