{
  "address": "0xd93d362c0024dc3b8020043FD70c0D0fC01576EB",
  "abi": [
    {
      "inputs": [
        {
          "internalType": "contract IShowtimeVerifier",
          "name": "_showtimeVerifier",
          "type": "address"
        },
        {
          "internalType": "contract TimeCop",
          "name": "_timeCop",
          "type": "address"
        }
      ],
      "stateMutability": "nonpayable",
      "type": "constructor"
    },
    {
      "inputs": [],
      "name": "NullAddress",
      "type": "error"
    },
    {
      "inputs": [
        {
          "internalType": "contract IEditionSingleMintable",
          "name": "collection",
          "type": "address"
        }
      ],
      "name": "TimeLimitReached",
      "type": "error"
    },
    {
      "inputs": [],
      "name": "VerificationFailed",
      "type": "error"
    },
    {
      "inputs": [
        {
          "components": [
            {
              "components": [
                {
                  "internalType": "address",
                  "name": "beneficiary",
                  "type": "address"
                },
                {
                  "internalType": "address",
                  "name": "context",
                  "type": "address"
                },
                {
                  "internalType": "uint256",
                  "name": "nonce",
                  "type": "uint256"
                },
                {
                  "internalType": "uint256",
                  "name": "validUntil",
                  "type": "uint256"
                }
              ],
              "internalType": "struct Attestation",
              "name": "attestation",
              "type": "tuple"
            },
            {
              "internalType": "bytes",
              "name": "signature",
              "type": "bytes"
            }
          ],
          "internalType": "struct SignedAttestation",
          "name": "signedAttestation",
          "type": "tuple"
        }
      ],
      "name": "mintEdition",
      "outputs": [],
      "stateMutability": "nonpayable",
      "type": "function"
    },
    {
      "inputs": [],
      "name": "showtimeVerifier",
      "outputs": [
        {
          "internalType": "contract IShowtimeVerifier",
          "name": "",
          "type": "address"
        }
      ],
      "stateMutability": "view",
      "type": "function"
    },
    {
      "inputs": [],
      "name": "timeCop",
      "outputs": [
        {
          "internalType": "contract TimeCop",
          "name": "",
          "type": "address"
        }
      ],
      "stateMutability": "view",
      "type": "function"
    }
  ],
  "transactionHash": "0xee67b97d5a85961e910252b28ff61c028ece9f1ed5c94973cbb55cfd18f91409",
  "args": [
    "0xE5eC1D79E0AF57C57AAeE8D64cDCDf52493b8711",
    "0x50c001E4eB10801968F6640E1537D63a557e5d72"
  ],
  "numDeployments": 1,
  "solcInputHash": "7dd94dde600f3f638c5876206305049e",
  "bytecode": "0x60c03461008f57601f61073638819003918201601f19168301916001600160401b0383118484101761009457808492604094855283398101031261008f5780602061006092519161004f836100aa565b01519061005b826100aa565b6100bb565b60405161063c90816100fa82396080518181816101bd01526103cf015260a05181818161014b01526104440152f35b600080fd5b634e487b7160e01b600052604160045260246000fd5b6001600160a01b0381160361008f57565b6001600160a01b03818116159081156100ee575b506100dc5760805260a052565b60405163e99d5ac560e01b8152600490fd5b9050821615386100cf56fe60806040908082526004918236101561001757600080fd5b600091823560e01c93846332345cad14610063575050505080635360e5d41461005a5763f565d63d1461004d575b388080600080fd5b6100556103f8565b610045565b50610055610383565b3461037f576020917ffffffffffffffffffffffffffffffffffffffffffffffffffffffffffffffffc838136011261037b57823567ffffffffffffffff81116103775760a0818501928236030112610377576100c460246100dd9201610486565b73ffffffffffffffffffffffffffffffffffffffff1690565b73ffffffffffffffffffffffffffffffffffffffff90818116937fcf06dde4000000000000000000000000000000000000000000000000000000008152868180610146888a830191909173ffffffffffffffffffffffffffffffffffffffff6020820193169052565b0381867f0000000000000000000000000000000000000000000000000000000000000000165afa90811561036a575b899161034d575b50610301575084865180927f82059300000000000000000000000000000000000000000000000000000000008252818a816101b9888b8301610567565b03927f0000000000000000000000000000000000000000000000000000000000000000165af19081156102f4575b87916102c7575b501561029f5791839161020361025494610486565b918787518096819582947fa66ff0af000000000000000000000000000000000000000000000000000000008452830191909173ffffffffffffffffffffffffffffffffffffffff6020820193169052565b03925af18015610292575b61026857505051f35b8161028792903d1061028b575b61027f8183610493565b810190610620565b5051f35b503d610275565b61029a61051b565b61025f565b8285517f439cc0cd000000000000000000000000000000000000000000000000000000008152fd5b6102e79150853d87116102ed575b6102df8183610493565b810190610503565b876101ee565b503d6102d5565b6102fc61051b565b6101e7565b86517fd302dcb800000000000000000000000000000000000000000000000000000000815273ffffffffffffffffffffffffffffffffffffffff90911681860190815281906020010390fd5b6103649150873d89116102ed576102df8183610493565b8961017c565b61037261051b565b610175565b8680fd5b8580fd5b8380fd5b50346103f35760007ffffffffffffffffffffffffffffffffffffffffffffffffffffffffffffffffc3601126103f357602060405173ffffffffffffffffffffffffffffffffffffffff7f0000000000000000000000000000000000000000000000000000000000000000168152f35b600080fd5b50346103f35760007ffffffffffffffffffffffffffffffffffffffffffffffffffffffffffffffffc3601126103f357602060405173ffffffffffffffffffffffffffffffffffffffff7f0000000000000000000000000000000000000000000000000000000000000000168152f35b73ffffffffffffffffffffffffffffffffffffffff8116036103f357565b3561049081610468565b90565b90601f7fffffffffffffffffffffffffffffffffffffffffffffffffffffffffffffffe0910116810190811067ffffffffffffffff8211176104d457604052565b7f4e487b7100000000000000000000000000000000000000000000000000000000600052604160045260246000fd5b908160209103126103f3575180151581036103f35790565b506040513d6000823e3d90fd5b601f82602094937fffffffffffffffffffffffffffffffffffffffffffffffffffffffffffffffe0938186528686013760008582860101520116010190565b9060208252803561057781610468565b73ffffffffffffffffffffffffffffffffffffffff809116602084015260208201356105a281610468565b166040830152604081013560608301526060810135608083015260808101357fffffffffffffffffffffffffffffffffffffffffffffffffffffffffffffffe1823603018112156103f35781019081359067ffffffffffffffff82116103f357813603126103f357602060c08460a080610490970152019201610528565b908160209103126103f357519056fea164736f6c634300080d000a",
  "devdoc": {
    "kind": "dev",
    "methods": {
      "mintEdition(((address,address,uint256,uint256),bytes))": {
        "details": "the edition to mint will be determined by the attestation's contextthe recipient of the minted edition will be determined by the attestation's beneficiary",
        "params": {
          "signedAttestation": "the attestation to verify along with a corresponding signature"
        }
      }
    },
    "version": 1
  },
  "userdoc": {
    "kind": "user",
    "methods": {},
    "version": 1
  },
  "storageLayout": {
    "storage": [],
    "types": null
  }
}