{
  "address": "0x8d16B48AE01d5b5a66178074Debb90204aeF6a51",
  "abi": [
    {
      "inputs": [
        {
          "internalType": "address",
          "name": "_editionCreator",
          "type": "address"
        },
        {
          "internalType": "address",
          "name": "_minter",
          "type": "address"
        },
        {
          "internalType": "address",
          "name": "_timeCop",
          "type": "address"
        }
      ],
      "stateMutability": "nonpayable",
      "type": "constructor"
    },
    {
      "inputs": [],
      "name": "NullAddress",
      "type": "error"
    },
    {
      "inputs": [
        {
          "internalType": "address",
          "name": "context",
          "type": "address"
        }
      ],
      "name": "UnexpectedContext",
      "type": "error"
    },
    {
      "inputs": [],
      "name": "VerificationFailed",
      "type": "error"
    },
    {
      "inputs": [
        {
          "internalType": "string",
          "name": "name",
          "type": "string"
        },
        {
          "internalType": "string",
          "name": "description",
          "type": "string"
        },
        {
          "internalType": "string",
          "name": "animationUrl",
          "type": "string"
        },
        {
          "internalType": "string",
          "name": "imageUrl",
          "type": "string"
        },
        {
          "internalType": "uint256",
          "name": "editionSize",
          "type": "uint256"
        },
        {
          "internalType": "uint256",
          "name": "royaltyBPS",
          "type": "uint256"
        },
        {
          "internalType": "uint256",
          "name": "claimWindowDurationSeconds",
          "type": "uint256"
        },
        {
          "components": [
            {
              "components": [
                {
                  "internalType": "address",
                  "name": "beneficiary",
                  "type": "address"
                },
                {
                  "internalType": "address",
                  "name": "context",
                  "type": "address"
                },
                {
                  "internalType": "uint256",
                  "name": "nonce",
                  "type": "uint256"
                },
                {
                  "internalType": "uint256",
                  "name": "validUntil",
                  "type": "uint256"
                }
              ],
              "internalType": "struct Attestation",
              "name": "attestation",
              "type": "tuple"
            },
            {
              "internalType": "bytes",
              "name": "signature",
              "type": "bytes"
            }
          ],
          "internalType": "struct SignedAttestation",
          "name": "signedAttestation",
          "type": "tuple"
        }
      ],
      "name": "createEdition",
      "outputs": [
        {
          "internalType": "address",
          "name": "",
          "type": "address"
        }
      ],
      "stateMutability": "nonpayable",
      "type": "function"
    },
    {
      "inputs": [],
      "name": "editionCreator",
      "outputs": [
        {
          "internalType": "contract ISingleEditionMintableCreator",
          "name": "",
          "type": "address"
        }
      ],
      "stateMutability": "view",
      "type": "function"
    },
    {
      "inputs": [
        {
          "internalType": "uint256",
          "name": "editionId",
          "type": "uint256"
        }
      ],
      "name": "getEditionAtId",
      "outputs": [
        {
          "internalType": "contract IEditionSingleMintable",
          "name": "",
          "type": "address"
        }
      ],
      "stateMutability": "view",
      "type": "function"
    },
    {
      "inputs": [],
      "name": "minter",
      "outputs": [
        {
          "internalType": "contract IGatedEditionMinter",
          "name": "",
          "type": "address"
        }
      ],
      "stateMutability": "view",
      "type": "function"
    },
    {
      "inputs": [],
      "name": "showtimeVerifier",
      "outputs": [
        {
          "internalType": "contract IShowtimeVerifier",
          "name": "",
          "type": "address"
        }
      ],
      "stateMutability": "view",
      "type": "function"
    },
    {
      "inputs": [],
      "name": "timeCop",
      "outputs": [
        {
          "internalType": "contract TimeCop",
          "name": "",
          "type": "address"
        }
      ],
      "stateMutability": "view",
      "type": "function"
    }
  ],
  "transactionHash": "0xa3634d9538d31d4a214b1b5ba2d4e1795076367f6f2a6f23e0846329f792ba9b",
  "args": [
    "0x773E5B82179E6CE1CdF8c5C0d736e797b3ceDDDC",
    "0xd93d362c0024dc3b8020043FD70c0D0fC01576EB",
    "0x50c001E4eB10801968F6640E1537D63a557e5d72"
  ],
  "numDeployments": 1,
  "solcInputHash": "7dd94dde600f3f638c5876206305049e",
  "bytecode": "0x6101008060405234620000be5760608162000f978038038091620000248285620000c3565b833981010312620000be57805162000068916200004182620000fd565b60406020820151916200005483620000fd565b0151916200006283620000fd565b62000137565b604051610d8f9081620002088239608051818181610203015281816102c70152610731015260a05181818160de0152610bd3015260c0518181816101620152610a04015260e05181818161054d0152610b130152f35b600080fd5b601f909101601f19168101906001600160401b03821190821017620000e757604052565b634e487b7160e01b600052604160045260246000fd5b6001600160a01b03811603620000be57565b90816020910312620000be57516200012781620000fd565b90565b506040513d6000823e3d90fd5b6001600160a01b03908116929083158015620001fc575b8015620001f1575b620001df578060209360049560805216918260a0521660e052604051928380926314d8397560e21b82525afa908115620001cf575b6000916200019a575b5060c052565b620001c0915060203d8111620001c7575b620001b78183620000c3565b8101906200010f565b3862000194565b503d620001ab565b620001d96200012a565b6200018b565b60405163e99d5ac560e01b8152600490fd5b508082161562000156565b50808316156200014e56fe608080604052600436101561001357600080fd5b6000803560e01c918263075461721461009657505080635360e5d41461008d578063ac52edfd14610084578063d33ed8b81461007b578063e4e22e1e146100725763f565d63d14610065575b38600080fd5b61006d610501565b61005f565b5061006d61040e565b5061006d61027b565b5061006d610186565b5061006d610116565b3461010257817ffffffffffffffffffffffffffffffffffffffffffffffffffffffffffffffffc3601126101025760209073ffffffffffffffffffffffffffffffffffffffff7f0000000000000000000000000000000000000000000000000000000000000000168152f35b5080fd5b600091031261011157565b600080fd5b50346101115760007ffffffffffffffffffffffffffffffffffffffffffffffffffffffffffffffffc36011261011157602060405173ffffffffffffffffffffffffffffffffffffffff7f0000000000000000000000000000000000000000000000000000000000000000168152f35b50346101115760207ffffffffffffffffffffffffffffffffffffffffffffffffffffffffffffffffc3601126101115760206040517fac52edfd000000000000000000000000000000000000000000000000000000008152600435600482015273ffffffffffffffffffffffffffffffffffffffff8282602481847f0000000000000000000000000000000000000000000000000000000000000000165afa91821561026e575b60009261023f575b5060405191168152f35b610260919250833d8111610267575b610258818361033c565b8101906106eb565b9038610235565b503d61024e565b6102766106c0565b61022d565b50346101115760007ffffffffffffffffffffffffffffffffffffffffffffffffffffffffffffffffc36011261011157602060405173ffffffffffffffffffffffffffffffffffffffff7f0000000000000000000000000000000000000000000000000000000000000000168152f35b507f4e487b7100000000000000000000000000000000000000000000000000000000600052604160045260246000fd5b67ffffffffffffffff811161032f57604052565b6103376102eb565b604052565b90601f7fffffffffffffffffffffffffffffffffffffffffffffffffffffffffffffffe0910116810190811067ffffffffffffffff82111761032f57604052565b81601f820112156101115780359067ffffffffffffffff82116103f3575b604051926103d160207fffffffffffffffffffffffffffffffffffffffffffffffffffffffffffffffe0601f860116018561033c565b8284526020838301011161011157816000926020809301838601378301015290565b6103fb6102eb565b61039b565b908160a09103126101115790565b5034610111576101007ffffffffffffffffffffffffffffffffffffffffffffffffffffffffffffffffc3601126101115767ffffffffffffffff6004803582811161011157610460903690830161037d565b60243583811161011157610477903690840161037d565b6044358481116101115761048e903690850161037d565b90606435858111610111576104a6903690860161037d565b9260e435958611610111576104c46104d6956104fd97369101610400565b9360c4359360a4359360843593610703565b60405173ffffffffffffffffffffffffffffffffffffffff90911681529081906020820190565b0390f35b50346101115760007ffffffffffffffffffffffffffffffffffffffffffffffffffffffffffffffffc36011261011157602060405173ffffffffffffffffffffffffffffffffffffffff7f0000000000000000000000000000000000000000000000000000000000000000168152f35b604051906040820182811067ffffffffffffffff8211176105bc575b604052600882527f53484f5754494d450000000000000000000000000000000000000000000000006020830152565b6105c46102eb565b61058d565b90816020910312610111575190565b91908251928382526000905b84821061062f5750601f84602094957fffffffffffffffffffffffffffffffffffffffffffffffffffffffffffffffe09311610622575b0116010190565b600085828601015261061b565b906020908180828501015190828601015201906105e4565b9361068c6106af9461067e610100989561067061069a969d9c9b9d610120808c528b01906105d8565b9089820360208b01526105d8565b9087820360408901526105d8565b9085820360608701526105d8565b906000608085015283820360a08501526105d8565b94600060c083015260e08201520152565b506040513d6000823e3d90fd5b73ffffffffffffffffffffffffffffffffffffffff81160361011157565b908160209103126101115751610700816106cd565b90565b916107ea9397969491959261071788610995565b5073ffffffffffffffffffffffffffffffffffffffff98897f0000000000000000000000000000000000000000000000000000000000000000169261079961075d610571565b9660405196879485947f10c3009e00000000000000000000000000000000000000000000000000000000865260209d8e9b8c9960048901610647565b03816000855af191821561086e575b60009261083f575b5060405180809581947fac52edfd000000000000000000000000000000000000000000000000000000008352600483019190602083019252565b03915afa928315610832575b60009361080f575b5050819261080b92610aef565b1690565b61080b9350908161082b92903d1061026757610258818361033c565b91386107fe565b61083a6106c0565b6107f6565b610860919250833d8511610867575b610858818361033c565b8101906105c9565b90386107b0565b503d61084e565b6108766106c0565b6107a8565b35610700816106cd565b90816020910312610111575180151581036101115790565b601f82602094937fffffffffffffffffffffffffffffffffffffffffffffffffffffffffffffffe0938186528686013760008582860101520116010190565b906020825280356108ec816106cd565b73ffffffffffffffffffffffffffffffffffffffff80911660208401526020820135610917816106cd565b166040830152604081013560608301526060810135608083015260808101357fffffffffffffffffffffffffffffffffffffffffffffffffffffffffffffffe1823603018112156101115781019081359067ffffffffffffffff8211610111578136031261011157602060c08460a08061070097015201920161089d565b6109a16020820161087b565b9073ffffffffffffffffffffffffffffffffffffffff913083821603610aa65750610a006000926020926040519485809481937f82059300000000000000000000000000000000000000000000000000000000008352600483016108dc565b03927f0000000000000000000000000000000000000000000000000000000000000000165af1908115610a99575b600091610a6b575b5015610a4157600190565b60046040517f439cc0cd000000000000000000000000000000000000000000000000000000008152fd5b610a8c915060203d8111610a92575b610a84818361033c565b810190610885565b38610a36565b503d610a7a565b610aa16106c0565b610a2e565b6040517fcc49271c00000000000000000000000000000000000000000000000000000000815273ffffffffffffffffffffffffffffffffffffffff919091166004820152602490fd5b9190610afa9061087b565b73ffffffffffffffffffffffffffffffffffffffff80807f000000000000000000000000000000000000000000000000000000000000000016941692843b15610111576040517f26d79f7c00000000000000000000000000000000000000000000000000000000815273ffffffffffffffffffffffffffffffffffffffff85166004820152602481019190915260009485908290604490829084905af18015610d75575b610d62575b50823b15610d5e576040517f29ec16dd0000000000000000000000000000000000000000000000000000000081527f00000000000000000000000000000000000000000000000000000000000000009190911673ffffffffffffffffffffffffffffffffffffffff16600482015260016024820152838160448183875af18015610d51575b610d3e575b506040517fa66ff0af00000000000000000000000000000000000000000000000000000000815273ffffffffffffffffffffffffffffffffffffffff8216600482015260208160248187875af18015610d31575b610d13575b50813b15610d0f576040517ff2fde38b00000000000000000000000000000000000000000000000000000000815273ffffffffffffffffffffffffffffffffffffffff91909116600482015291908290602490829084905af18015610d02575b610ced5750565b80610cfa610d009261031b565b80610106565b565b610d0a6106c0565b610ce6565b8280fd5b610d2a9060203d811161086757610858818361033c565b5038610c86565b610d396106c0565b610c81565b80610cfa610d4b9261031b565b38610c2d565b610d596106c0565b610c28565b8380fd5b80610cfa610d6f9261031b565b38610ba3565b610d7d6106c0565b610b9e56fea164736f6c634300080d000a",
  "devdoc": {
    "kind": "dev",
    "methods": {
      "createEdition(string,string,string,string,uint256,uint256,uint256,((address,address,uint256,uint256),bytes))": {
        "details": "we expect the signed attestation's context to correspond to this contract's addresswe expect the signed attestation's beneficiary to be the edition's creator",
        "params": {
          "animationUrl": "Metadata: Animation url (optional) of the edition entry",
          "claimWindowDurationSeconds": "How long after deployment the edition can be claimed, in seconds",
          "description": "Metadata: Description of the edition entry",
          "editionSize": "Total size of the edition (number of possible editions)",
          "imageUrl": "Metadata: Image url (semi-required) of the edition entry",
          "name": "Name of the edition contract",
          "royaltyBPS": "BPS amount of royalty",
          "signedAttestation": "the attestation to verify along with a corresponding signature"
        },
        "returns": {
          "_0": "the address of the created edition"
        }
      }
    },
    "version": 1
  },
  "userdoc": {
    "kind": "user",
    "methods": {
      "createEdition(string,string,string,string,uint256,uint256,uint256,((address,address,uint256,uint256),bytes))": {
        "notice": "Creates a new edition contract as a factory with a deterministic address Important: None of these fields (except the Url fields with the same hash) can be changed after calling"
      }
    },
    "version": 1
  },
  "storageLayout": {
    "storage": [],
    "types": null
  }
}