{
  "address": "0x50c001c0aaa97B06De431432FDbF275e1F349694",
  "abi": [
    {
      "inputs": [
        {
          "internalType": "address",
          "name": "_trustedForwarder",
          "type": "address"
        },
        {
          "internalType": "address",
          "name": "_editionCreator",
          "type": "address"
        }
      ],
      "stateMutability": "nonpayable",
      "type": "constructor"
    },
    {
      "inputs": [
        {
          "internalType": "string",
          "name": "_name",
          "type": "string"
        },
        {
          "internalType": "string",
          "name": "_symbol",
          "type": "string"
        },
        {
          "internalType": "string",
          "name": "_description",
          "type": "string"
        },
        {
          "internalType": "string",
          "name": "_animationUrl",
          "type": "string"
        },
        {
          "internalType": "bytes32",
          "name": "_animationHash",
          "type": "bytes32"
        },
        {
          "internalType": "string",
          "name": "_imageUrl",
          "type": "string"
        },
        {
          "internalType": "bytes32",
          "name": "_imageHash",
          "type": "bytes32"
        },
        {
          "internalType": "uint256",
          "name": "_editionSize",
          "type": "uint256"
        },
        {
          "internalType": "uint256",
          "name": "_royaltyBPS",
          "type": "uint256"
        },
        {
          "internalType": "address",
          "name": "minter",
          "type": "address"
        }
      ],
      "name": "createEdition",
      "outputs": [
        {
          "internalType": "uint256",
          "name": "",
          "type": "uint256"
        }
      ],
      "stateMutability": "nonpayable",
      "type": "function"
    },
    {
      "inputs": [
        {
          "internalType": "uint256",
          "name": "editionId",
          "type": "uint256"
        }
      ],
      "name": "getEditionAtId",
      "outputs": [
        {
          "internalType": "contract ISingleEditionMintable",
          "name": "",
          "type": "address"
        }
      ],
      "stateMutability": "view",
      "type": "function"
    },
    {
      "inputs": [
        {
          "internalType": "address",
          "name": "forwarder",
          "type": "address"
        }
      ],
      "name": "isTrustedForwarder",
      "outputs": [
        {
          "internalType": "bool",
          "name": "",
          "type": "bool"
        }
      ],
      "stateMutability": "view",
      "type": "function"
    },
    {
      "inputs": [],
      "name": "trustedForwarder",
      "outputs": [
        {
          "internalType": "address",
          "name": "",
          "type": "address"
        }
      ],
      "stateMutability": "view",
      "type": "function"
    }
  ],
  "transactionHash": "0x85ab29ed182e5b0ca40b6577aa87ed72e341ced44e99ed99d80d0fa181e0b15f",
  "args": [
    "0x50c001c88b59dc3b833E0F062EfC2271CE88Cb89",
    "0x773E5B82179E6CE1CdF8c5C0d736e797b3ceDDDC"
  ],
  "numDeployments": 1,
  "solcInputHash": "ee375ee01832e46d149a4cceac0ecc23",
  "bytecode": "0x60a060405234801561001057600080fd5b5060405161081938038061081983398101604081905261002f91610081565b600080546001600160a01b0319166001600160a01b03939093169290921790915560601b6001600160601b0319166080526100b4565b80516001600160a01b038116811461007c57600080fd5b919050565b6000806040838503121561009457600080fd5b61009d83610065565b91506100ab60208401610065565b90509250929050565b60805160601c61073a6100df6000396000818160ec015281816101bc015261034e015261073a6000f3fe608060405234801561001057600080fd5b506004361061004c5760003560e01c8063246d510f14610051578063572b6c05146100775780637da0a877146100a9578063ac52edfd146100d4575b600080fd5b61006461005f3660046104e8565b6100e7565b6040519081526020015b60405180910390f35b6100996100853660046104a7565b6000546001600160a01b0391821691161490565b604051901515815260200161006e565b6000546100bc906001600160a01b031681565b6040516001600160a01b03909116815260200161006e565b6100bc6100e23660046105f3565b610335565b6000807f00000000000000000000000000000000000000000000000000000000000000006001600160a01b03166310c3009e8d8d8d8d8d8d8d8d8d6040518a63ffffffff1660e01b815260040161014699989796959493929190610672565b602060405180830381600087803b15801561016057600080fd5b505af1158015610174573d6000803e3d6000fd5b505050506040513d601f19601f82011682018060405250810190610198919061060c565b60405163ac52edfd60e01b8152600481018290529091506000906001600160a01b037f0000000000000000000000000000000000000000000000000000000000000000169063ac52edfd9060240160206040518083038186803b1580156101fe57600080fd5b505afa158015610212573d6000803e3d6000fd5b505050506040513d601f19601f8201168201806040525081019061023691906104cb565b6040516329ec16dd60e01b81526001600160a01b03868116600483015260016024830152919250908216906329ec16dd90604401600060405180830381600087803b15801561028457600080fd5b505af1158015610298573d6000803e3d6000fd5b50505050806001600160a01b031663f2fde38b6102b36103d6565b6040517fffffffff0000000000000000000000000000000000000000000000000000000060e084901b1681526001600160a01b039091166004820152602401600060405180830381600087803b15801561030c57600080fd5b505af1158015610320573d6000803e3d6000fd5b50939f9e505050505050505050505050505050565b60405163ac52edfd60e01b8152600481018290526000907f00000000000000000000000000000000000000000000000000000000000000006001600160a01b03169063ac52edfd9060240160206040518083038186803b15801561039857600080fd5b505afa1580156103ac573d6000803e3d6000fd5b505050506040513d601f19601f820116820180604052508101906103d091906104cb565b92915050565b6000601836108015906103f357506000546001600160a01b031633145b15610405575060131936013560601c90565b503390565b803561041581610715565b919050565b600082601f83011261042b57600080fd5b813567ffffffffffffffff80821115610446576104466106ff565b604051601f8301601f19908116603f0116810190828211818310171561046e5761046e6106ff565b8160405283815286602085880101111561048757600080fd5b836020870160208301376000602085830101528094505050505092915050565b6000602082840312156104b957600080fd5b81356104c481610715565b9392505050565b6000602082840312156104dd57600080fd5b81516104c481610715565b6000806000806000806000806000806101408b8d03121561050857600080fd5b8a3567ffffffffffffffff8082111561052057600080fd5b61052c8e838f0161041a565b9b5060208d013591508082111561054257600080fd5b61054e8e838f0161041a565b9a5060408d013591508082111561056457600080fd5b6105708e838f0161041a565b995060608d013591508082111561058657600080fd5b6105928e838f0161041a565b985060808d0135975060a08d01359150808211156105af57600080fd5b506105bc8d828e0161041a565b95505060c08b0135935060e08b013592506101008b013591506105e26101208c0161040a565b90509295989b9194979a5092959850565b60006020828403121561060557600080fd5b5035919050565b60006020828403121561061e57600080fd5b5051919050565b6000815180845260005b8181101561064b5760208185018101518683018201520161062f565b8181111561065d576000602083870101525b50601f01601f19169290920160200192915050565b60006101208083526106868184018d610625565b9050828103602084015261069a818c610625565b905082810360408401526106ae818b610625565b905082810360608401526106c2818a610625565b905087608084015282810360a08401526106dc8188610625565b60c0840196909652505060e0810192909252610100909101529695505050505050565b634e487b7160e01b600052604160045260246000fd5b6001600160a01b038116811461072a57600080fd5b5056fea164736f6c6343000807000a",
  "devdoc": {
    "kind": "dev",
    "methods": {
      "createEdition(string,string,string,string,bytes32,string,bytes32,uint256,uint256,address)": {
        "params": {
          "minter": "the address of the minter contract to use for this edition, or 0 for an open mint"
        }
      }
    },
    "version": 1
  },
  "userdoc": {
    "kind": "user",
    "methods": {},
    "version": 1
  },
  "storageLayout": {
    "storage": [
      {
        "astId": 19912,
        "contract": "src/periphery/MetaSingleEditionMintableCreator.sol:MetaSingleEditionMintableCreator",
        "label": "trustedForwarder",
        "offset": 0,
        "slot": "0",
        "type": "t_address"
      }
    ],
    "types": {
      "t_address": {
        "encoding": "inplace",
        "label": "address",
        "numberOfBytes": "20"
      }
    }
  }
}