{
  "address": "0x50C001A33Caa446c8b84C489F371F77754F41024",
  "abi": [
    {
      "inputs": [
        {
          "internalType": "address",
          "name": "_trustedForwarder",
          "type": "address"
        },
        {
          "internalType": "address",
          "name": "_editionCreator",
          "type": "address"
        },
        {
          "internalType": "address",
          "name": "_minterFactory",
          "type": "address"
        },
        {
          "internalType": "address",
          "name": "_timeCop",
          "type": "address"
        }
      ],
      "stateMutability": "nonpayable",
      "type": "constructor"
    },
    {
      "inputs": [],
      "name": "NullAddress",
      "type": "error"
    },
    {
      "inputs": [
        {
          "internalType": "string",
          "name": "_name",
          "type": "string"
        },
        {
          "internalType": "string",
          "name": "_symbol",
          "type": "string"
        },
        {
          "internalType": "string",
          "name": "_description",
          "type": "string"
        },
        {
          "internalType": "string",
          "name": "_animationUrl",
          "type": "string"
        },
        {
          "internalType": "bytes32",
          "name": "_animationHash",
          "type": "bytes32"
        },
        {
          "internalType": "string",
          "name": "_imageUrl",
          "type": "string"
        },
        {
          "internalType": "bytes32",
          "name": "_imageHash",
          "type": "bytes32"
        },
        {
          "internalType": "uint256",
          "name": "_editionSize",
          "type": "uint256"
        },
        {
          "internalType": "uint256",
          "name": "_royaltyBPS",
          "type": "uint256"
        },
        {
          "internalType": "uint256",
          "name": "_claimWindowDurationSeconds",
          "type": "uint256"
        }
      ],
      "name": "createEdition",
      "outputs": [
        {
          "internalType": "address",
          "name": "",
          "type": "address"
        },
        {
          "internalType": "address",
          "name": "",
          "type": "address"
        }
      ],
      "stateMutability": "nonpayable",
      "type": "function"
    },
    {
      "inputs": [],
      "name": "editionCreator",
      "outputs": [
        {
          "internalType": "contract ISingleEditionMintableCreator",
          "name": "",
          "type": "address"
        }
      ],
      "stateMutability": "view",
      "type": "function"
    },
    {
      "inputs": [
        {
          "internalType": "uint256",
          "name": "editionId",
          "type": "uint256"
        }
      ],
      "name": "getEditionAtId",
      "outputs": [
        {
          "internalType": "contract IEditionSingleMintable",
          "name": "",
          "type": "address"
        }
      ],
      "stateMutability": "view",
      "type": "function"
    },
    {
      "inputs": [
        {
          "internalType": "address",
          "name": "forwarder",
          "type": "address"
        }
      ],
      "name": "isTrustedForwarder",
      "outputs": [
        {
          "internalType": "bool",
          "name": "",
          "type": "bool"
        }
      ],
      "stateMutability": "view",
      "type": "function"
    },
    {
      "inputs": [],
      "name": "minterFactory",
      "outputs": [
        {
          "internalType": "contract MetaEditionMinterFactory",
          "name": "",
          "type": "address"
        }
      ],
      "stateMutability": "view",
      "type": "function"
    },
    {
      "inputs": [],
      "name": "timeCop",
      "outputs": [
        {
          "internalType": "contract TimeCop",
          "name": "",
          "type": "address"
        }
      ],
      "stateMutability": "view",
      "type": "function"
    },
    {
      "inputs": [],
      "name": "trustedForwarder",
      "outputs": [
        {
          "internalType": "address",
          "name": "",
          "type": "address"
        }
      ],
      "stateMutability": "view",
      "type": "function"
    }
  ],
  "transactionHash": "0xa08646838daf8bbc19ab6daa5692cd23a78795deefc0578c7e93c0abccc84dff",
  "args": [
    "0x50c001c88b59dc3b833E0F062EfC2271CE88Cb89",
    "0x773E5B82179E6CE1CdF8c5C0d736e797b3ceDDDC",
    "0x50c001c8989f0e3799A212A2d50FB61e140266c5",
    "0x50c001E4eB10801968F6640E1537D63a557e5d72"
  ],
  "numDeployments": 2,
  "solcInputHash": "1833dc003425e1951c41a2e7b99a3092",
  "bytecode": "0x60e060405234801561001057600080fd5b50604051610a94380380610a9483398101604081905261002f916100e0565b6001600160a01b038316158061004c57506001600160a01b038216155b8061005e57506001600160a01b038116155b1561007c5760405163e99d5ac560e01b815260040160405180910390fd5b606092831b6001600160601b031990811660805291831b821660a05290911b1660c052600080546001600160a01b0319166001600160a01b0392909216919091179055610134565b80516001600160a01b03811681146100db57600080fd5b919050565b600080600080608085870312156100f657600080fd5b6100ff856100c4565b935061010d602086016100c4565b925061011b604086016100c4565b9150610129606086016100c4565b905092959194509250565b60805160601c60a05160601c60c05160601c61090661018e6000396000818161017d01526103ba01526000818160f10152610315015260008181610156015281816101a601528181610276015261053101526109066000f3fe608060405234801561001057600080fd5b506004361061007d5760003560e01c80637da0a8771161005b5780637da0a8771461012b578063ac52edfd1461013e578063d33ed8b814610151578063f565d63d1461017857600080fd5b8063572b6c05146100825780636606648d146100b957806366f7490f146100ec575b600080fd5b6100a461009036600461067a565b6000546001600160a01b0391821691161490565b60405190151581526020015b60405180910390f35b6100cc6100c73660046106bb565b61019f565b604080516001600160a01b039384168152929091166020830152016100b0565b6101137f000000000000000000000000000000000000000000000000000000000000000081565b6040516001600160a01b0390911681526020016100b0565b600054610113906001600160a01b031681565b61011361014c3660046107bf565b610518565b6101137f000000000000000000000000000000000000000000000000000000000000000081565b6101137f000000000000000000000000000000000000000000000000000000000000000081565b60008060007f00000000000000000000000000000000000000000000000000000000000000006001600160a01b03166310c3009e8e8e8e8e8e8e8e8e8e6040518a63ffffffff1660e01b81526004016102009998979695949392919061083e565b602060405180830381600087803b15801561021a57600080fd5b505af115801561022e573d6000803e3d6000fd5b505050506040513d601f19601f8201168201806040525081019061025291906107d8565b60405163ac52edfd60e01b8152600481018290529091506000906001600160a01b037f0000000000000000000000000000000000000000000000000000000000000000169063ac52edfd9060240160206040518083038186803b1580156102b857600080fd5b505afa1580156102cc573d6000803e3d6000fd5b505050506040513d601f19601f820116820180604052508101906102f0919061069e565b604051632e2affc160e21b81526001600160a01b0380831660048301529192506000917f0000000000000000000000000000000000000000000000000000000000000000169063b8abff0490602401602060405180830381600087803b15801561035957600080fd5b505af115801561036d573d6000803e3d6000fd5b505050506040513d601f19601f82011682018060405250810190610391919061069e565b6040516309b5e7df60e21b81526001600160a01b038481166004830152602482018990529192507f0000000000000000000000000000000000000000000000000000000000000000909116906326d79f7c90604401600060405180830381600087803b15801561040057600080fd5b505af1158015610414573d6000803e3d6000fd5b50506040516329ec16dd60e01b81526001600160a01b03848116600483015260016024830152851692506329ec16dd9150604401600060405180830381600087803b15801561046257600080fd5b505af1158015610476573d6000803e3d6000fd5b50505050816001600160a01b031663f2fde38b6104916105b9565b6040517fffffffff0000000000000000000000000000000000000000000000000000000060e084901b1681526001600160a01b039091166004820152602401600060405180830381600087803b1580156104ea57600080fd5b505af11580156104fe573d6000803e3d6000fd5b50939650919450505050509a509a98505050505050505050565b60405163ac52edfd60e01b8152600481018290526000907f00000000000000000000000000000000000000000000000000000000000000006001600160a01b03169063ac52edfd9060240160206040518083038186803b15801561057b57600080fd5b505afa15801561058f573d6000803e3d6000fd5b505050506040513d601f19601f820116820180604052508101906105b3919061069e565b92915050565b6000601836108015906105d657506000546001600160a01b031633145b156105e8575060131936013560601c90565b503390565b600082601f8301126105fe57600080fd5b813567ffffffffffffffff80821115610619576106196108cb565b604051601f8301601f19908116603f01168101908282118183101715610641576106416108cb565b8160405283815286602085880101111561065a57600080fd5b836020870160208301376000602085830101528094505050505092915050565b60006020828403121561068c57600080fd5b8135610697816108e1565b9392505050565b6000602082840312156106b057600080fd5b8151610697816108e1565b6000806000806000806000806000806101408b8d0312156106db57600080fd5b8a3567ffffffffffffffff808211156106f357600080fd5b6106ff8e838f016105ed565b9b5060208d013591508082111561071557600080fd5b6107218e838f016105ed565b9a5060408d013591508082111561073757600080fd5b6107438e838f016105ed565b995060608d013591508082111561075957600080fd5b6107658e838f016105ed565b985060808d0135975060a08d013591508082111561078257600080fd5b5061078f8d828e016105ed565b95505060c08b0135935060e08b013592506101008b013591506101208b013590509295989b9194979a5092959850565b6000602082840312156107d157600080fd5b5035919050565b6000602082840312156107ea57600080fd5b5051919050565b6000815180845260005b81811015610817576020818501810151868301820152016107fb565b81811115610829576000602083870101525b50601f01601f19169290920160200192915050565b60006101208083526108528184018d6107f1565b90508281036020840152610866818c6107f1565b9050828103604084015261087a818b6107f1565b9050828103606084015261088e818a6107f1565b905087608084015282810360a08401526108a881886107f1565b60c0840196909652505060e0810192909252610100909101529695505050505050565b634e487b7160e01b600052604160045260246000fd5b6001600160a01b03811681146108f657600080fd5b5056fea164736f6c6343000807000a",
  "devdoc": {
    "kind": "dev",
    "methods": {},
    "version": 1
  },
  "userdoc": {
    "kind": "user",
    "methods": {},
    "version": 1
  },
  "storageLayout": {
    "storage": [
      {
        "astId": 7104,
        "contract": "src/editions/MetaSingleEditionMintableCreator.sol:MetaSingleEditionMintableCreator",
        "label": "trustedForwarder",
        "offset": 0,
        "slot": "0",
        "type": "t_address"
      }
    ],
    "types": {
      "t_address": {
        "encoding": "inplace",
        "label": "address",
        "numberOfBytes": "20"
      }
    }
  }
}