{
  "address": "0x50c001362FB06E2CB4D4e8138654267328a8B247",
  "abi": [
    {
      "inputs": [
        {
          "internalType": "address",
          "name": "_trustedForwarder",
          "type": "address"
        }
      ],
      "stateMutability": "nonpayable",
      "type": "constructor"
    },
    {
      "inputs": [
        {
          "internalType": "address",
          "name": "collection",
          "type": "address"
        },
        {
          "internalType": "address",
          "name": "operator",
          "type": "address"
        }
      ],
      "name": "AlreadyMinted",
      "type": "error"
    },
    {
      "inputs": [
        {
          "internalType": "address",
          "name": "collection",
          "type": "address"
        },
        {
          "internalType": "address",
          "name": "operator",
          "type": "address"
        }
      ],
      "name": "hasMinted",
      "outputs": [
        {
          "internalType": "bool",
          "name": "",
          "type": "bool"
        }
      ],
      "stateMutability": "view",
      "type": "function"
    },
    {
      "inputs": [
        {
          "internalType": "address",
          "name": "forwarder",
          "type": "address"
        }
      ],
      "name": "isTrustedForwarder",
      "outputs": [
        {
          "internalType": "bool",
          "name": "",
          "type": "bool"
        }
      ],
      "stateMutability": "view",
      "type": "function"
    },
    {
      "inputs": [
        {
          "internalType": "address",
          "name": "collection",
          "type": "address"
        },
        {
          "internalType": "address",
          "name": "_to",
          "type": "address"
        }
      ],
      "name": "mintEdition",
      "outputs": [],
      "stateMutability": "nonpayable",
      "type": "function"
    },
    {
      "inputs": [
        {
          "internalType": "address",
          "name": "collection",
          "type": "address"
        },
        {
          "internalType": "address",
          "name": "operator",
          "type": "address"
        }
      ],
      "name": "mintId",
      "outputs": [
        {
          "internalType": "bytes32",
          "name": "",
          "type": "bytes32"
        }
      ],
      "stateMutability": "pure",
      "type": "function"
    },
    {
      "inputs": [],
      "name": "trustedForwarder",
      "outputs": [
        {
          "internalType": "address",
          "name": "",
          "type": "address"
        }
      ],
      "stateMutability": "view",
      "type": "function"
    }
  ],
  "transactionHash": "0xe7a4ec3060d7c618ffc6765c6a5a29e7431a5cec3df4bc21fda1514bc44d5338",
  "args": [
    "0x50c001c88b59dc3b833E0F062EfC2271CE88Cb89"
  ],
  "numDeployments": 1,
  "solcInputHash": "ee375ee01832e46d149a4cceac0ecc23",
  "bytecode": "0x608060405234801561001057600080fd5b5060405161049538038061049583398101604081905261002f91610054565b600080546001600160a01b0319166001600160a01b0392909216919091179055610084565b60006020828403121561006657600080fd5b81516001600160a01b038116811461007d57600080fd5b9392505050565b610402806100936000396000f3fe608060405234801561001057600080fd5b50600436106100675760003560e01c80637da0a877116100505780637da0a877146100b85780639a7ae5aa146100e3578063ea217b20146100f657600080fd5b8063331c14321461006c578063572b6c0514610081575b600080fd5b61007f61007a3660046103a9565b61015c565b005b6100a361008f366004610387565b6000546001600160a01b0391821691161490565b60405190151581526020015b60405180910390f35b6000546100cb906001600160a01b031681565b6040516001600160a01b0390911681526020016100af565b6100a36100f13660046103a9565b610216565b61014e6101043660046103a9565b6040516bffffffffffffffffffffffff19606084811b8216602084015283901b16603482015260009060480160405160208183030381529060405280519060200120905092915050565b6040519081526020016100af565b6000610166610286565b905061017283826102ba565b816001600160a01b0316816001600160a01b0316146101955761019583836102ba565b60405163a66ff0af60e01b81526001600160a01b03838116600483015284169063a66ff0af90602401602060405180830381600087803b1580156101d857600080fd5b505af11580156101ec573d6000803e3d6000fd5b505050506040513d601f19601f8201168201806040525081019061021091906103dc565b50505050565b60006001600061026b85856040516bffffffffffffffffffffffff19606084811b8216602084015283901b16603482015260009060480160405160208183030381529060405280519060200120905092915050565b815260208101919091526040016000205460ff169392505050565b6000601836108015906102a357506000546001600160a01b031633145b156102b5575060131936013560601c90565b503390565b60408051606084811b6bffffffffffffffffffffffff199081166020808501919091529185901b166034830152825160288184030181526048909201909252805191012060009060008181526001602052604090205490915060ff161561034b5760405163010bb71b60e31b81526001600160a01b0380851660048301528316602482015260440160405180910390fd5b6000908152600160208190526040909120805460ff191690911790555050565b80356001600160a01b038116811461038257600080fd5b919050565b60006020828403121561039957600080fd5b6103a28261036b565b9392505050565b600080604083850312156103bc57600080fd5b6103c58361036b565b91506103d36020840161036b565b90509250929050565b6000602082840312156103ee57600080fd5b505191905056fea164736f6c6343000807000a",
  "devdoc": {
    "kind": "dev",
    "methods": {},
    "version": 1
  },
  "userdoc": {
    "kind": "user",
    "methods": {},
    "version": 1
  },
  "storageLayout": {
    "storage": [
      {
        "astId": 19912,
        "contract": "src/periphery/OnePerAddressEditionMinter.sol:OnePerAddressEditionMinter",
        "label": "trustedForwarder",
        "offset": 0,
        "slot": "0",
        "type": "t_address"
      },
      {
        "astId": 11552,
        "contract": "src/periphery/OnePerAddressEditionMinter.sol:OnePerAddressEditionMinter",
        "label": "minted",
        "offset": 0,
        "slot": "1",
        "type": "t_mapping(t_bytes32,t_bool)"
      }
    ],
    "types": {
      "t_address": {
        "encoding": "inplace",
        "label": "address",
        "numberOfBytes": "20"
      },
      "t_bool": {
        "encoding": "inplace",
        "label": "bool",
        "numberOfBytes": "1"
      },
      "t_bytes32": {
        "encoding": "inplace",
        "label": "bytes32",
        "numberOfBytes": "32"
      },
      "t_mapping(t_bytes32,t_bool)": {
        "encoding": "mapping",
        "key": "t_bytes32",
        "label": "mapping(bytes32 => bool)",
        "numberOfBytes": "32",
        "value": "t_bool"
      }
    }
  }
}