{
  "address": "0x4712e57fF5e4d053Dca30F76024dFE2792D6D2A9",
  "abi": [
    {
      "inputs": [
        {
          "internalType": "address",
          "name": "_owner",
          "type": "address"
        }
      ],
      "stateMutability": "nonpayable",
      "type": "constructor"
    },
    {
      "inputs": [
        {
          "internalType": "uint256",
          "name": "expected",
          "type": "uint256"
        },
        {
          "internalType": "uint256",
          "name": "actual",
          "type": "uint256"
        }
      ],
      "name": "BadNonce",
      "type": "error"
    },
    {
      "inputs": [],
      "name": "DeadlineTooLong",
      "type": "error"
    },
    {
      "inputs": [],
      "name": "Expired",
      "type": "error"
    },
    {
      "inputs": [],
      "name": "NullAddress",
      "type": "error"
    },
    {
      "inputs": [
        {
          "internalType": "address",
          "name": "signer",
          "type": "address"
        }
      ],
      "name": "SignerExpired",
      "type": "error"
    },
    {
      "inputs": [],
      "name": "Unauthorized",
      "type": "error"
    },
    {
      "inputs": [
        {
          "internalType": "address",
          "name": "signer",
          "type": "address"
        }
      ],
      "name": "UnknownSigner",
      "type": "error"
    },
    {
      "anonymous": false,
      "inputs": [
        {
          "indexed": false,
          "internalType": "address",
          "name": "newManager",
          "type": "address"
        }
      ],
      "name": "ManagerUpdated",
      "type": "event"
    },
    {
      "anonymous": false,
      "inputs": [
        {
          "indexed": true,
          "internalType": "address",
          "name": "previousOwner",
          "type": "address"
        },
        {
          "indexed": true,
          "internalType": "address",
          "name": "newOwner",
          "type": "address"
        }
      ],
      "name": "OwnershipTransferred",
      "type": "event"
    },
    {
      "anonymous": false,
      "inputs": [
        {
          "indexed": false,
          "internalType": "address",
          "name": "signer",
          "type": "address"
        },
        {
          "indexed": false,
          "internalType": "uint256",
          "name": "validUntil",
          "type": "uint256"
        }
      ],
      "name": "SignerAdded",
      "type": "event"
    },
    {
      "anonymous": false,
      "inputs": [
        {
          "indexed": false,
          "internalType": "address",
          "name": "signer",
          "type": "address"
        }
      ],
      "name": "SignerRevoked",
      "type": "event"
    },
    {
      "inputs": [],
      "name": "MAX_ATTESTATION_VALIDITY_SECONDS",
      "outputs": [
        {
          "internalType": "uint256",
          "name": "",
          "type": "uint256"
        }
      ],
      "stateMutability": "view",
      "type": "function"
    },
    {
      "inputs": [],
      "name": "MAX_SIGNER_VALIDITY_DAYS",
      "outputs": [
        {
          "internalType": "uint256",
          "name": "",
          "type": "uint256"
        }
      ],
      "stateMutability": "view",
      "type": "function"
    },
    {
      "inputs": [],
      "name": "REQUEST_TYPE_HASH",
      "outputs": [
        {
          "internalType": "bytes32",
          "name": "",
          "type": "bytes32"
        }
      ],
      "stateMutability": "view",
      "type": "function"
    },
    {
      "inputs": [],
      "name": "domainSeparator",
      "outputs": [
        {
          "internalType": "bytes32",
          "name": "",
          "type": "bytes32"
        }
      ],
      "stateMutability": "view",
      "type": "function"
    },
    {
      "inputs": [
        {
          "components": [
            {
              "internalType": "address",
              "name": "beneficiary",
              "type": "address"
            },
            {
              "internalType": "address",
              "name": "context",
              "type": "address"
            },
            {
              "internalType": "uint256",
              "name": "nonce",
              "type": "uint256"
            },
            {
              "internalType": "uint256",
              "name": "validUntil",
              "type": "uint256"
            }
          ],
          "internalType": "struct Attestation",
          "name": "attestation",
          "type": "tuple"
        }
      ],
      "name": "encode",
      "outputs": [
        {
          "internalType": "bytes",
          "name": "",
          "type": "bytes"
        }
      ],
      "stateMutability": "pure",
      "type": "function"
    },
    {
      "inputs": [],
      "name": "manager",
      "outputs": [
        {
          "internalType": "address",
          "name": "",
          "type": "address"
        }
      ],
      "stateMutability": "view",
      "type": "function"
    },
    {
      "inputs": [
        {
          "internalType": "address",
          "name": "",
          "type": "address"
        }
      ],
      "name": "nonces",
      "outputs": [
        {
          "internalType": "uint256",
          "name": "",
          "type": "uint256"
        }
      ],
      "stateMutability": "view",
      "type": "function"
    },
    {
      "inputs": [],
      "name": "owner",
      "outputs": [
        {
          "internalType": "address",
          "name": "",
          "type": "address"
        }
      ],
      "stateMutability": "view",
      "type": "function"
    },
    {
      "inputs": [
        {
          "internalType": "address",
          "name": "signerToRegister",
          "type": "address"
        },
        {
          "internalType": "address",
          "name": "signerToRevoke",
          "type": "address"
        },
        {
          "internalType": "uint256",
          "name": "validityDays",
          "type": "uint256"
        }
      ],
      "name": "registerAndRevoke",
      "outputs": [
        {
          "internalType": "uint256",
          "name": "validUntil",
          "type": "uint256"
        }
      ],
      "stateMutability": "nonpayable",
      "type": "function"
    },
    {
      "inputs": [
        {
          "internalType": "address",
          "name": "signer",
          "type": "address"
        },
        {
          "internalType": "uint256",
          "name": "validityDays",
          "type": "uint256"
        }
      ],
      "name": "registerSigner",
      "outputs": [
        {
          "internalType": "uint256",
          "name": "validUntil",
          "type": "uint256"
        }
      ],
      "stateMutability": "nonpayable",
      "type": "function"
    },
    {
      "inputs": [],
      "name": "renounceOwnership",
      "outputs": [],
      "stateMutability": "nonpayable",
      "type": "function"
    },
    {
      "inputs": [],
      "name": "requestType",
      "outputs": [
        {
          "internalType": "bytes",
          "name": "",
          "type": "bytes"
        }
      ],
      "stateMutability": "view",
      "type": "function"
    },
    {
      "inputs": [
        {
          "internalType": "address",
          "name": "signer",
          "type": "address"
        }
      ],
      "name": "revokeSigner",
      "outputs": [],
      "stateMutability": "nonpayable",
      "type": "function"
    },
    {
      "inputs": [
        {
          "internalType": "address",
          "name": "_manager",
          "type": "address"
        }
      ],
      "name": "setManager",
      "outputs": [],
      "stateMutability": "nonpayable",
      "type": "function"
    },
    {
      "inputs": [
        {
          "internalType": "address",
          "name": "",
          "type": "address"
        }
      ],
      "name": "signerValidity",
      "outputs": [
        {
          "internalType": "uint256",
          "name": "",
          "type": "uint256"
        }
      ],
      "stateMutability": "view",
      "type": "function"
    },
    {
      "inputs": [
        {
          "internalType": "address",
          "name": "newOwner",
          "type": "address"
        }
      ],
      "name": "transferOwnership",
      "outputs": [],
      "stateMutability": "nonpayable",
      "type": "function"
    },
    {
      "inputs": [
        {
          "components": [
            {
              "internalType": "address",
              "name": "beneficiary",
              "type": "address"
            },
            {
              "internalType": "address",
              "name": "context",
              "type": "address"
            },
            {
              "internalType": "uint256",
              "name": "nonce",
              "type": "uint256"
            },
            {
              "internalType": "uint256",
              "name": "validUntil",
              "type": "uint256"
            }
          ],
          "internalType": "struct Attestation",
          "name": "attestation",
          "type": "tuple"
        },
        {
          "internalType": "bytes32",
          "name": "typeHash",
          "type": "bytes32"
        },
        {
          "internalType": "bytes",
          "name": "encodedData",
          "type": "bytes"
        },
        {
          "internalType": "bytes",
          "name": "signature",
          "type": "bytes"
        }
      ],
      "name": "verify",
      "outputs": [
        {
          "internalType": "bool",
          "name": "",
          "type": "bool"
        }
      ],
      "stateMutability": "view",
      "type": "function"
    },
    {
      "inputs": [
        {
          "components": [
            {
              "internalType": "address",
              "name": "beneficiary",
              "type": "address"
            },
            {
              "internalType": "address",
              "name": "context",
              "type": "address"
            },
            {
              "internalType": "uint256",
              "name": "nonce",
              "type": "uint256"
            },
            {
              "internalType": "uint256",
              "name": "validUntil",
              "type": "uint256"
            }
          ],
          "internalType": "struct Attestation",
          "name": "attestation",
          "type": "tuple"
        },
        {
          "internalType": "bytes",
          "name": "signature",
          "type": "bytes"
        }
      ],
      "name": "verify",
      "outputs": [
        {
          "internalType": "bool",
          "name": "",
          "type": "bool"
        }
      ],
      "stateMutability": "view",
      "type": "function"
    },
    {
      "inputs": [
        {
          "components": [
            {
              "internalType": "address",
              "name": "beneficiary",
              "type": "address"
            },
            {
              "internalType": "address",
              "name": "context",
              "type": "address"
            },
            {
              "internalType": "uint256",
              "name": "nonce",
              "type": "uint256"
            },
            {
              "internalType": "uint256",
              "name": "validUntil",
              "type": "uint256"
            }
          ],
          "internalType": "struct Attestation",
          "name": "attestation",
          "type": "tuple"
        },
        {
          "internalType": "bytes",
          "name": "signature",
          "type": "bytes"
        }
      ],
      "name": "verifyAndBurn",
      "outputs": [
        {
          "internalType": "bool",
          "name": "",
          "type": "bool"
        }
      ],
      "stateMutability": "nonpayable",
      "type": "function"
    },
    {
      "inputs": [
        {
          "components": [
            {
              "internalType": "address",
              "name": "beneficiary",
              "type": "address"
            },
            {
              "internalType": "address",
              "name": "context",
              "type": "address"
            },
            {
              "internalType": "uint256",
              "name": "nonce",
              "type": "uint256"
            },
            {
              "internalType": "uint256",
              "name": "validUntil",
              "type": "uint256"
            }
          ],
          "internalType": "struct Attestation",
          "name": "attestation",
          "type": "tuple"
        },
        {
          "internalType": "bytes32",
          "name": "typeHash",
          "type": "bytes32"
        },
        {
          "internalType": "bytes",
          "name": "encodedData",
          "type": "bytes"
        },
        {
          "internalType": "bytes",
          "name": "signature",
          "type": "bytes"
        }
      ],
      "name": "verifyAndBurn",
      "outputs": [
        {
          "internalType": "bool",
          "name": "",
          "type": "bool"
        }
      ],
      "stateMutability": "nonpayable",
      "type": "function"
    }
  ],
  "transactionHash": "0x524ecfa3c025c1e667c02de8fe0e3adf516328aee428bcc7e6a3840817f5984a",
  "args": [
    "0x515F7d84cEE53051b7ADF645fA2220f65BC25c68"
  ],
  "numDeployments": 4,
  "solcInputHash": "60bd1e977ce3660d49d0836214a7c382",
  "bytecode": "0x6101406040523480156200001257600080fd5b5060405162001b1c38038062001b1c833981016040819052620000359162000259565b6040518060400160405280600c81526020016b39b437bbba34b6b2973c3cbd60a11b81525060405180604001604052806002815260200161763160f01b8152506200008f620000896200013060201b60201c565b62000134565b815160209283012081519183019190912060e08290526101008190524660a0818152604080517f8b73c3c69bb8fe3d512ecc4cf759cc79239f7b179b0ffacaa9a75d522b39400f818801819052818301969096526060810194909452608080850193909352308483018190528151808603909301835260c09485019091528151919095012090529190915261012052620001298162000184565b506200028b565b3390565b600080546001600160a01b038381166001600160a01b0319831681178455604051919092169283917f8be0079c531659141344cd1fd0a4f28419497f9722a3daafe3b4186f6b6457e09190a35050565b6000546001600160a01b03163314620001e45760405162461bcd60e51b815260206004820181905260248201527f4f776e61626c653a2063616c6c6572206973206e6f7420746865206f776e657260448201526064015b60405180910390fd5b6001600160a01b0381166200024b5760405162461bcd60e51b815260206004820152602660248201527f4f776e61626c653a206e6577206f776e657220697320746865207a65726f206160448201526564647265737360d01b6064820152608401620001db565b620002568162000134565b50565b6000602082840312156200026c57600080fd5b81516001600160a01b03811681146200028457600080fd5b9392505050565b60805160a05160c05160e0516101005161012051611841620002db6000396000610e6501526000610eb401526000610e8f01526000610de801526000610e1201526000610e3c01526118416000f3fe608060405234801561001057600080fd5b506004361061016c5760003560e01c806396f18040116100cd578063d7bdd1ae11610081578063f2fde38b11610066578063f2fde38b14610313578063f698da2514610326578063fde6360a1461032e57600080fd5b8063d7bdd1ae146102e0578063edf8f878146102f357600080fd5b8063ca194c24116100b2578063ca194c24146102b1578063cb74082d146102ba578063d0ebdbe7146102cd57600080fd5b806396f180401461028b578063c34b44a01461029e57600080fd5b8063715018a6116101245780637ecebe00116101095780637ecebe001461023a57806385c104161461025a5780638da5cb5b1461026d57600080fd5b8063715018a61461020d57806376fb297f1461021757600080fd5b8063308b556911610155578063308b5569146101ac5780633840497c146101b5578063481c6a75146101c857600080fd5b806328425d51146101715780632ff3696914610197575b600080fd5b61018461017f366004611357565b610336565b6040519081526020015b60405180910390f35b61019f6103cb565b60405161018e91906113c3565b61018461012c81565b61019f6101c3366004611492565b6103e7565b6003546101e89073ffffffffffffffffffffffffffffffffffffffff1681565b60405173ffffffffffffffffffffffffffffffffffffffff909116815260200161018e565b610215610457565b005b61022a61022536600461155e565b6104e9565b604051901515815260200161018e565b6101846102483660046115b2565b60026020526000908152604090205481565b61022a6102683660046115cd565b610549565b60005473ffffffffffffffffffffffffffffffffffffffff166101e8565b61022a6102993660046115cd565b6107c4565b6102156102ac3660046115b2565b6107fb565b61018461016d81565b61022a6102c836600461155e565b61087e565b6102156102db3660046115b2565b6108be565b6101846102ee3660046116c9565b6109b9565b6101846103013660046115b2565b60016020526000908152604090205481565b6102156103213660046115b2565b610a3b565b610184610b68565b610184610b77565b6000805473ffffffffffffffffffffffffffffffffffffffff163314801590610377575060035473ffffffffffffffffffffffffffffffffffffffff163314155b156103ae576040517f82b4290000000000000000000000000000000000000000000000000000000000815260040160405180910390fd5b6103b783610b9a565b6103c18483610bf3565b90505b9392505050565b6040518060800160405280605181526020016117e46051913981565b60608160000151826020015183604001518460600151604051602001610441949392919073ffffffffffffffffffffffffffffffffffffffff94851681529290931660208301526040820152606081019190915260800190565b6040516020818303038152906040529050919050565b60005473ffffffffffffffffffffffffffffffffffffffff1633146104dd576040517f08c379a000000000000000000000000000000000000000000000000000000000815260206004820181905260248201527f4f776e61626c653a2063616c6c6572206973206e6f7420746865206f776e657260448201526064015b60405180910390fd5b6104e76000610cc6565b565b60006104f684848461087e565b610502575060006103c4565b61053f61051260208601866115b2565b73ffffffffffffffffffffffffffffffffffffffff16600090815260026020526040902080546001019055565b5060019392505050565b600060608601354281101561058a576040517f203d82d800000000000000000000000000000000000000000000000000000000815260040160405180910390fd5b61012c6105974283611722565b11156105cf576040517f54090af900000000000000000000000000000000000000000000000000000000815260040160405180910390fd5b60006002816105e160208b018b6115b2565b73ffffffffffffffffffffffffffffffffffffffff1673ffffffffffffffffffffffffffffffffffffffff1681526020019081526020016000205490508760400135811461066857604080517f3ddd5131000000000000000000000000000000000000000000000000000000008152600481018390529089013560248201526044016104d4565b6000878760405160200161067d929190611739565b60405160208183030381529060405280519060200120905060006106a082610d3b565b905060006106e48289898080601f016020809104026020016040519081016040528093929190818152602001838380828437600092019190915250610daa92505050565b73ffffffffffffffffffffffffffffffffffffffff811660009081526001602052604081205491925081900361075e576040517fd7e8a2c200000000000000000000000000000000000000000000000000000000815273ffffffffffffffffffffffffffffffffffffffff831660048201526024016104d4565b804211156107b0576040517f5b0a554300000000000000000000000000000000000000000000000000000000815273ffffffffffffffffffffffffffffffffffffffff831660048201526024016104d4565b600196505050505050505b95945050505050565b60006107d38686868686610549565b6107df575060006107bb565b6107ef61051260208801886115b2565b50600195945050505050565b60005473ffffffffffffffffffffffffffffffffffffffff16331480159061083b575060035473ffffffffffffffffffffffffffffffffffffffff163314155b15610872576040517f82b4290000000000000000000000000000000000000000000000000000000000815260040160405180910390fd5b61087b81610b9a565b50565b60006103c1846040518060800160405280605181526020016117e46051913980516020909101206108b76101c336899003890189611492565b8686610549565b60005473ffffffffffffffffffffffffffffffffffffffff16331461093f576040517f08c379a000000000000000000000000000000000000000000000000000000000815260206004820181905260248201527f4f776e61626c653a2063616c6c6572206973206e6f7420746865206f776e657260448201526064016104d4565b600380547fffffffffffffffffffffffff00000000000000000000000000000000000000001673ffffffffffffffffffffffffffffffffffffffff83169081179091556040519081527f2c1c11af44aa5608f1dca38c00275c30ea091e02417d36e70e9a1538689c433d906020015b60405180910390a150565b6000805473ffffffffffffffffffffffffffffffffffffffff1633148015906109fa575060035473ffffffffffffffffffffffffffffffffffffffff163314155b15610a31576040517f82b4290000000000000000000000000000000000000000000000000000000000815260040160405180910390fd5b6103c48383610bf3565b60005473ffffffffffffffffffffffffffffffffffffffff163314610abc576040517f08c379a000000000000000000000000000000000000000000000000000000000815260206004820181905260248201527f4f776e61626c653a2063616c6c6572206973206e6f7420746865206f776e657260448201526064016104d4565b73ffffffffffffffffffffffffffffffffffffffff8116610b5f576040517f08c379a000000000000000000000000000000000000000000000000000000000815260206004820152602660248201527f4f776e61626c653a206e6577206f776e657220697320746865207a65726f206160448201527f646472657373000000000000000000000000000000000000000000000000000060648201526084016104d4565b61087b81610cc6565b6000610b72610dce565b905090565b6040518060800160405280605181526020016117e4605191398051906020012081565b73ffffffffffffffffffffffffffffffffffffffff811660008181526001602090815260408083209290925590519182527f99a705a3c2c3339d0051f56b36a60fef91e30142c93353002617999f27aec4af91016109ae565b600061016d821115610c31576040517f54090af900000000000000000000000000000000000000000000000000000000815260040160405180910390fd5b610c3c82601861175f565b610c4790603c61175f565b610c5290603c61175f565b610c5c904261179c565b73ffffffffffffffffffffffffffffffffffffffff8416600081815260016020908152604091829020849055815192835282018390529192507f50999ebf9b59bf3157a58816611976f2d723378ad51457d7b0413209e0cdee59910160405180910390a192915050565b6000805473ffffffffffffffffffffffffffffffffffffffff8381167fffffffffffffffffffffffff0000000000000000000000000000000000000000831681178455604051919092169283917f8be0079c531659141344cd1fd0a4f28419497f9722a3daafe3b4186f6b6457e09190a35050565b6000610da4610d48610dce565b836040517f19010000000000000000000000000000000000000000000000000000000000006020820152602281018390526042810182905260009060620160405160208183030381529060405280519060200120905092915050565b92915050565b6000806000610db98585610f02565b91509150610dc681610f70565b509392505050565b60003073ffffffffffffffffffffffffffffffffffffffff7f000000000000000000000000000000000000000000000000000000000000000016148015610e3457507f000000000000000000000000000000000000000000000000000000000000000046145b15610e5e57507f000000000000000000000000000000000000000000000000000000000000000090565b50604080517f00000000000000000000000000000000000000000000000000000000000000006020808301919091527f0000000000000000000000000000000000000000000000000000000000000000828401527f000000000000000000000000000000000000000000000000000000000000000060608301524660808301523060a0808401919091528351808403909101815260c0909201909252805191012090565b6000808251604103610f385760208301516040840151606085015160001a610f2c878285856111c4565b94509450505050610f69565b8251604003610f615760208301516040840151610f568683836112dc565b935093505050610f69565b506000905060025b9250929050565b6000816004811115610f8457610f846117b4565b03610f8c5750565b6001816004811115610fa057610fa06117b4565b03611007576040517f08c379a000000000000000000000000000000000000000000000000000000000815260206004820152601860248201527f45434453413a20696e76616c6964207369676e6174757265000000000000000060448201526064016104d4565b600281600481111561101b5761101b6117b4565b03611082576040517f08c379a000000000000000000000000000000000000000000000000000000000815260206004820152601f60248201527f45434453413a20696e76616c6964207369676e6174757265206c656e6774680060448201526064016104d4565b6003816004811115611096576110966117b4565b03611123576040517f08c379a000000000000000000000000000000000000000000000000000000000815260206004820152602260248201527f45434453413a20696e76616c6964207369676e6174757265202773272076616c60448201527f756500000000000000000000000000000000000000000000000000000000000060648201526084016104d4565b6004816004811115611137576111376117b4565b0361087b576040517f08c379a000000000000000000000000000000000000000000000000000000000815260206004820152602260248201527f45434453413a20696e76616c6964207369676e6174757265202776272076616c60448201527f756500000000000000000000000000000000000000000000000000000000000060648201526084016104d4565b6000807f7fffffffffffffffffffffffffffffff5d576e7357a4501ddfe92f46681b20a08311156111fb57506000905060036112d3565b8460ff16601b1415801561121357508460ff16601c14155b1561122457506000905060046112d3565b6040805160008082526020820180845289905260ff881692820192909252606081018690526080810185905260019060a0016020604051602081039080840390855afa158015611278573d6000803e3d6000fd5b50506040517fffffffffffffffffffffffffffffffffffffffffffffffffffffffffffffffe0015191505073ffffffffffffffffffffffffffffffffffffffff81166112cc576000600192509250506112d3565b9150600090505b94509492505050565b6000807f7fffffffffffffffffffffffffffffffffffffffffffffffffffffffffffffff83168161131260ff86901c601b61179c565b9050611320878288856111c4565b935093505050935093915050565b803573ffffffffffffffffffffffffffffffffffffffff8116811461135257600080fd5b919050565b60008060006060848603121561136c57600080fd5b6113758461132e565b92506113836020850161132e565b9150604084013590509250925092565b60005b838110156113ae578181015183820152602001611396565b838111156113bd576000848401525b50505050565b60208152600082518060208401526113e2816040850160208701611393565b601f017fffffffffffffffffffffffffffffffffffffffffffffffffffffffffffffffe0169190910160400192915050565b7f4e487b7100000000000000000000000000000000000000000000000000000000600052604160045260246000fd5b604051601f82017fffffffffffffffffffffffffffffffffffffffffffffffffffffffffffffffe016810167ffffffffffffffff8111828210171561148a5761148a611414565b604052919050565b6000608082840312156114a457600080fd5b6040516080810181811067ffffffffffffffff821117156114c7576114c7611414565b6040526114d38361132e565b81526114e16020840161132e565b602082015260408301356040820152606083013560608201528091505092915050565b60006080828403121561151657600080fd5b50919050565b60008083601f84011261152e57600080fd5b50813567ffffffffffffffff81111561154657600080fd5b602083019150836020828501011115610f6957600080fd5b600080600060a0848603121561157357600080fd5b61157d8585611504565b9250608084013567ffffffffffffffff81111561159957600080fd5b6115a58682870161151c565b9497909650939450505050565b6000602082840312156115c457600080fd5b6103c48261132e565b600080600080600060e086880312156115e557600080fd5b6115ef8787611504565b94506080860135935060a086013567ffffffffffffffff8082111561161357600080fd5b818801915088601f83011261162757600080fd5b81358181111561163957611639611414565b61166a60207fffffffffffffffffffffffffffffffffffffffffffffffffffffffffffffffe0601f84011601611443565b8181528a602083860101111561167f57600080fd5b81602085016020830137600060208383010152809650505060c08801359150808211156116ab57600080fd5b506116b88882890161151c565b969995985093965092949392505050565b600080604083850312156116dc57600080fd5b6116e58361132e565b946020939093013593505050565b7f4e487b7100000000000000000000000000000000000000000000000000000000600052601160045260246000fd5b600082821015611734576117346116f3565b500390565b82815260008251611751816020850160208701611393565b919091016020019392505050565b6000817fffffffffffffffffffffffffffffffffffffffffffffffffffffffffffffffff0483118215151615611797576117976116f3565b500290565b600082198211156117af576117af6116f3565b500190565b7f4e487b7100000000000000000000000000000000000000000000000000000000600052602160045260246000fdfe4174746573746174696f6e28616464726573732062656e65666963696172792c6164647265737320636f6e746578742c75696e74323536206e6f6e63652c75696e743235362076616c6964556e74696c29a164736f6c634300080d000a",
  "devdoc": {
    "kind": "dev",
    "methods": {
      "owner()": {
        "details": "Returns the address of the current owner."
      },
      "registerSigner(address,uint256)": {
        "params": {
          "signer": "the new signer to register",
          "validityDays": "how long the signer will be valid starting from the moment of registration"
        },
        "returns": {
          "validUntil": "the timestamp in seconds after which the signer expires"
        }
      },
      "renounceOwnership()": {
        "details": "Leaves the contract without owner. It will not be possible to call `onlyOwner` functions anymore. Can only be called by the current owner. NOTE: Renouncing ownership will leave the contract without an owner, thereby removing any functionality that is only available to the owner."
      },
      "setManager(address)": {
        "params": {
          "_manager": "the address that will be authorized to add and remove signers (use address 0 to disable)"
        }
      },
      "transferOwnership(address)": {
        "details": "Transfers ownership of the contract to a new account (`newOwner`). Can only be called by the current owner."
      },
      "verify((address,address,uint256,uint256),bytes)": {
        "params": {
          "attestation": "the attestation to verify",
          "signature": "the signature of the attestation"
        },
        "returns": {
          "_0": "true if the attestation is valid, reverts otherwise"
        }
      },
      "verify((address,address,uint256,uint256),bytes32,bytes,bytes)": {
        "details": "see https://eips.ethereum.org/EIPS/eip-712#definition-of-hashstruct",
        "params": {
          "attestation": "the attestation to verify",
          "encodedData": "the EIP712-encoded struct data to be verified (32 bytes long members, hashed dynamic types)",
          "signature": "the signature of the hashed struct",
          "typeHash": "the EIP712 type hash for the struct data to be verified"
        },
        "returns": {
          "_0": "true if the signature is valid, reverts otherwise"
        }
      }
    },
    "version": 1
  },
  "userdoc": {
    "kind": "user",
    "methods": {
      "nonces(address)": {
        "notice": "maps addresses to their nonces"
      },
      "registerAndRevoke(address,address,uint256)": {
        "notice": "Convenience function for the workflow where one expects a single active signer"
      },
      "registerSigner(address,uint256)": {
        "notice": "Registers an authorized signer"
      },
      "revokeSigner(address)": {
        "notice": "Remove an authorized signer"
      },
      "setManager(address)": {
        "notice": "Delegates the signer management to another address"
      },
      "verify((address,address,uint256,uint256),bytes)": {
        "notice": "Verifies the given attestationThis method does not increment the nonce so it provides no replay safety"
      },
      "verify((address,address,uint256,uint256),bytes32,bytes,bytes)": {
        "notice": "Verifies arbitrary typed dataThis method does not increment the nonce so it provides no replay safetyThe attestation SHOULD be part of the encodedData (i.e. a change in the attestation should change the signature)"
      }
    },
    "version": 1
  },
  "storageLayout": {
    "storage": [
      {
        "astId": 472,
        "contract": "src/ShowtimeVerifier.sol:ShowtimeVerifier",
        "label": "_owner",
        "offset": 0,
        "slot": "0",
        "type": "t_address"
      },
      {
        "astId": 6044,
        "contract": "src/ShowtimeVerifier.sol:ShowtimeVerifier",
        "label": "signerValidity",
        "offset": 0,
        "slot": "1",
        "type": "t_mapping(t_address,t_uint256)"
      },
      {
        "astId": 6049,
        "contract": "src/ShowtimeVerifier.sol:ShowtimeVerifier",
        "label": "nonces",
        "offset": 0,
        "slot": "2",
        "type": "t_mapping(t_address,t_uint256)"
      },
      {
        "astId": 6051,
        "contract": "src/ShowtimeVerifier.sol:ShowtimeVerifier",
        "label": "manager",
        "offset": 0,
        "slot": "3",
        "type": "t_address"
      }
    ],
    "types": {
      "t_address": {
        "encoding": "inplace",
        "label": "address",
        "numberOfBytes": "20"
      },
      "t_mapping(t_address,t_uint256)": {
        "encoding": "mapping",
        "key": "t_address",
        "label": "mapping(address => uint256)",
        "numberOfBytes": "32",
        "value": "t_uint256"
      },
      "t_uint256": {
        "encoding": "inplace",
        "label": "uint256",
        "numberOfBytes": "32"
      }
    }
  }
}