{
  "address": "0x21494B31025259bBc3B61aB41478005b4505e05D",
  "abi": [
    {
      "inputs": [
        {
          "internalType": "contract IERC1155",
          "name": "_showtimeMT",
          "type": "address"
        },
        {
          "internalType": "contract ShowtimeV1Market",
          "name": "_showtimeMarket",
          "type": "address"
        },
        {
          "internalType": "address[]",
          "name": "payees",
          "type": "address[]"
        },
        {
          "internalType": "uint256[]",
          "name": "shares_",
          "type": "uint256[]"
        }
      ],
      "stateMutability": "nonpayable",
      "type": "constructor"
    },
    {
      "inputs": [
        {
          "internalType": "address",
          "name": "_nftContract",
          "type": "address"
        },
        {
          "internalType": "uint256[]",
          "name": "ids",
          "type": "uint256[]"
        }
      ],
      "name": "UnexpectedERC1155BatchTransfer",
      "type": "error"
    },
    {
      "inputs": [
        {
          "internalType": "address",
          "name": "_nftContract",
          "type": "address"
        },
        {
          "internalType": "uint256",
          "name": "id",
          "type": "uint256"
        }
      ],
      "name": "UnexpectedERC1155Transfer",
      "type": "error"
    },
    {
      "anonymous": false,
      "inputs": [
        {
          "indexed": true,
          "internalType": "contract IERC20",
          "name": "token",
          "type": "address"
        },
        {
          "indexed": false,
          "internalType": "address",
          "name": "to",
          "type": "address"
        },
        {
          "indexed": false,
          "internalType": "uint256",
          "name": "amount",
          "type": "uint256"
        }
      ],
      "name": "ERC20PaymentReleased",
      "type": "event"
    },
    {
      "anonymous": false,
      "inputs": [
        {
          "indexed": true,
          "internalType": "address",
          "name": "previousOwner",
          "type": "address"
        },
        {
          "indexed": true,
          "internalType": "address",
          "name": "newOwner",
          "type": "address"
        }
      ],
      "name": "OwnershipTransferred",
      "type": "event"
    },
    {
      "anonymous": false,
      "inputs": [
        {
          "indexed": false,
          "internalType": "address",
          "name": "account",
          "type": "address"
        },
        {
          "indexed": false,
          "internalType": "uint256",
          "name": "shares",
          "type": "uint256"
        }
      ],
      "name": "PayeeAdded",
      "type": "event"
    },
    {
      "anonymous": false,
      "inputs": [
        {
          "indexed": false,
          "internalType": "address",
          "name": "from",
          "type": "address"
        },
        {
          "indexed": false,
          "internalType": "uint256",
          "name": "amount",
          "type": "uint256"
        }
      ],
      "name": "PaymentReceived",
      "type": "event"
    },
    {
      "anonymous": false,
      "inputs": [
        {
          "indexed": false,
          "internalType": "address",
          "name": "to",
          "type": "address"
        },
        {
          "indexed": false,
          "internalType": "uint256",
          "name": "amount",
          "type": "uint256"
        }
      ],
      "name": "PaymentReleased",
      "type": "event"
    },
    {
      "inputs": [
        {
          "internalType": "address",
          "name": "",
          "type": "address"
        }
      ],
      "name": "balancesReceived",
      "outputs": [
        {
          "internalType": "uint256",
          "name": "",
          "type": "uint256"
        }
      ],
      "stateMutability": "view",
      "type": "function"
    },
    {
      "inputs": [
        {
          "internalType": "uint256",
          "name": "_tokenId",
          "type": "uint256"
        }
      ],
      "name": "burn",
      "outputs": [],
      "stateMutability": "nonpayable",
      "type": "function"
    },
    {
      "inputs": [
        {
          "internalType": "uint256",
          "name": "listingId",
          "type": "uint256"
        }
      ],
      "name": "cancelSale",
      "outputs": [],
      "stateMutability": "nonpayable",
      "type": "function"
    },
    {
      "inputs": [
        {
          "internalType": "uint256",
          "name": "_tokenId",
          "type": "uint256"
        },
        {
          "internalType": "uint256",
          "name": "_quantity",
          "type": "uint256"
        },
        {
          "internalType": "uint256",
          "name": "_price",
          "type": "uint256"
        },
        {
          "internalType": "address",
          "name": "_currency",
          "type": "address"
        }
      ],
      "name": "createSale",
      "outputs": [
        {
          "internalType": "uint256",
          "name": "listingId",
          "type": "uint256"
        }
      ],
      "stateMutability": "nonpayable",
      "type": "function"
    },
    {
      "inputs": [
        {
          "internalType": "address",
          "name": "",
          "type": "address"
        },
        {
          "internalType": "address",
          "name": "",
          "type": "address"
        },
        {
          "internalType": "uint256[]",
          "name": "ids",
          "type": "uint256[]"
        },
        {
          "internalType": "uint256[]",
          "name": "",
          "type": "uint256[]"
        },
        {
          "internalType": "bytes",
          "name": "",
          "type": "bytes"
        }
      ],
      "name": "onERC1155BatchReceived",
      "outputs": [
        {
          "internalType": "bytes4",
          "name": "",
          "type": "bytes4"
        }
      ],
      "stateMutability": "view",
      "type": "function"
    },
    {
      "inputs": [
        {
          "internalType": "address",
          "name": "",
          "type": "address"
        },
        {
          "internalType": "address",
          "name": "",
          "type": "address"
        },
        {
          "internalType": "uint256",
          "name": "id",
          "type": "uint256"
        },
        {
          "internalType": "uint256",
          "name": "",
          "type": "uint256"
        },
        {
          "internalType": "bytes",
          "name": "",
          "type": "bytes"
        }
      ],
      "name": "onERC1155Received",
      "outputs": [
        {
          "internalType": "bytes4",
          "name": "",
          "type": "bytes4"
        }
      ],
      "stateMutability": "view",
      "type": "function"
    },
    {
      "inputs": [],
      "name": "owner",
      "outputs": [
        {
          "internalType": "address",
          "name": "",
          "type": "address"
        }
      ],
      "stateMutability": "view",
      "type": "function"
    },
    {
      "inputs": [
        {
          "internalType": "uint256",
          "name": "index",
          "type": "uint256"
        }
      ],
      "name": "payee",
      "outputs": [
        {
          "internalType": "address",
          "name": "",
          "type": "address"
        }
      ],
      "stateMutability": "view",
      "type": "function"
    },
    {
      "inputs": [
        {
          "internalType": "address payable",
          "name": "account",
          "type": "address"
        }
      ],
      "name": "release",
      "outputs": [],
      "stateMutability": "nonpayable",
      "type": "function"
    },
    {
      "inputs": [
        {
          "internalType": "contract IERC20",
          "name": "token",
          "type": "address"
        },
        {
          "internalType": "address",
          "name": "account",
          "type": "address"
        }
      ],
      "name": "release",
      "outputs": [],
      "stateMutability": "nonpayable",
      "type": "function"
    },
    {
      "inputs": [
        {
          "internalType": "contract IERC20",
          "name": "token",
          "type": "address"
        },
        {
          "internalType": "address",
          "name": "account",
          "type": "address"
        }
      ],
      "name": "released",
      "outputs": [
        {
          "internalType": "uint256",
          "name": "",
          "type": "uint256"
        }
      ],
      "stateMutability": "view",
      "type": "function"
    },
    {
      "inputs": [
        {
          "internalType": "address",
          "name": "account",
          "type": "address"
        }
      ],
      "name": "released",
      "outputs": [
        {
          "internalType": "uint256",
          "name": "",
          "type": "uint256"
        }
      ],
      "stateMutability": "view",
      "type": "function"
    },
    {
      "inputs": [],
      "name": "renounceOwnership",
      "outputs": [],
      "stateMutability": "nonpayable",
      "type": "function"
    },
    {
      "inputs": [
        {
          "internalType": "address",
          "name": "account",
          "type": "address"
        }
      ],
      "name": "shares",
      "outputs": [
        {
          "internalType": "uint256",
          "name": "",
          "type": "uint256"
        }
      ],
      "stateMutability": "view",
      "type": "function"
    },
    {
      "inputs": [],
      "name": "showtimeMT",
      "outputs": [
        {
          "internalType": "contract IERC1155",
          "name": "",
          "type": "address"
        }
      ],
      "stateMutability": "view",
      "type": "function"
    },
    {
      "inputs": [],
      "name": "showtimeMarket",
      "outputs": [
        {
          "internalType": "contract ShowtimeV1Market",
          "name": "",
          "type": "address"
        }
      ],
      "stateMutability": "view",
      "type": "function"
    },
    {
      "inputs": [
        {
          "internalType": "bytes4",
          "name": "interfaceId",
          "type": "bytes4"
        }
      ],
      "name": "supportsInterface",
      "outputs": [
        {
          "internalType": "bool",
          "name": "",
          "type": "bool"
        }
      ],
      "stateMutability": "view",
      "type": "function"
    },
    {
      "inputs": [
        {
          "internalType": "contract IERC20",
          "name": "token",
          "type": "address"
        }
      ],
      "name": "totalReleased",
      "outputs": [
        {
          "internalType": "uint256",
          "name": "",
          "type": "uint256"
        }
      ],
      "stateMutability": "view",
      "type": "function"
    },
    {
      "inputs": [],
      "name": "totalReleased",
      "outputs": [
        {
          "internalType": "uint256",
          "name": "",
          "type": "uint256"
        }
      ],
      "stateMutability": "view",
      "type": "function"
    },
    {
      "inputs": [],
      "name": "totalShares",
      "outputs": [
        {
          "internalType": "uint256",
          "name": "",
          "type": "uint256"
        }
      ],
      "stateMutability": "view",
      "type": "function"
    },
    {
      "inputs": [
        {
          "internalType": "address",
          "name": "newOwner",
          "type": "address"
        }
      ],
      "name": "transferOwnership",
      "outputs": [],
      "stateMutability": "nonpayable",
      "type": "function"
    },
    {
      "stateMutability": "payable",
      "type": "receive"
    }
  ],
  "transactionHash": "0x52df553610a8421d7ec4b92bf214a0e4f0c8ea9e8ae9c4875c4f0c53f7da6bbd",
  "args": [
    "0x09F3a26302e1c45f0d78Be5D592f52b6fca43811",
    "0xB38a0Ed9d60CEa911E43DBbEC205cd3ddE0C51B6",
    [
      "0x633b7218644b83D57d90e7299039ebAb19698e9C"
    ],
    [
      100
    ]
  ],
  "numDeployments": 1,
  "solcInputHash": "4faf6c793cc2e4ce2186b6ecb31b1d8d",
  "bytecode": "0x60e06040523480156200001157600080fd5b5060405162001eb438038062001eb48339810160408190526200003491620004cd565b8382828051825114620000a95760405162461bcd60e51b815260206004820152603260248201527f5061796d656e7453706c69747465723a2070617965657320616e6420736861726044820152710cae640d8cadccee8d040dad2e6dac2e8c6d60731b60648201526084015b60405180910390fd5b6000825111620000fc5760405162461bcd60e51b815260206004820152601a60248201527f5061796d656e7453706c69747465723a206e6f207061796565730000000000006044820152606401620000a0565b60005b82518110156200016857620001538382815181106200012257620001226200067a565b60200260200101518383815181106200013f576200013f6200067a565b60200260200101516200021560201b60201c565b806200015f8162000646565b915050620000ff565b50505060601b6001600160601b0319166080526200018d620001873390565b62000401565b6001600160601b0319606085811b821660a05284901b1660c05260405163a22cb46560e01b81526001600160a01b0380851660048301526001602483015285169063a22cb46590604401600060405180830381600087803b158015620001f257600080fd5b505af115801562000207573d6000803e3d6000fd5b5050505050505050620006bf565b6001600160a01b038216620002825760405162461bcd60e51b815260206004820152602c60248201527f5061796d656e7453706c69747465723a206163636f756e74206973207468652060448201526b7a65726f206164647265737360a01b6064820152608401620000a0565b60008111620002d45760405162461bcd60e51b815260206004820152601d60248201527f5061796d656e7453706c69747465723a207368617265732061726520300000006044820152606401620000a0565b6001600160a01b03821660009081526002602052604090205415620003505760405162461bcd60e51b815260206004820152602b60248201527f5061796d656e7453706c69747465723a206163636f756e7420616c726561647960448201526a206861732073686172657360a81b6064820152608401620000a0565b60048054600181019091557f8a35acfbc15ff81a39ae7d344fd709f28e8600b4aa8c65c6b64bfe7fe36bd19b0180546001600160a01b0319166001600160a01b038416908117909155600090815260026020526040812082905554620003b89082906200062b565b600055604080516001600160a01b0384168152602081018390527f40c340f65e17194d14ddddb073d3c9f888e3cb52b5aae0c6c7706b4fbc905fac910160405180910390a15050565b600880546001600160a01b038381166001600160a01b0319831681179093556040519116919082907f8be0079c531659141344cd1fd0a4f28419497f9722a3daafe3b4186f6b6457e090600090a35050565b600082601f8301126200046557600080fd5b815160206200047e620004788362000605565b620005d2565b80838252828201915082860187848660051b89010111156200049f57600080fd5b60005b85811015620004c057815184529284019290840190600101620004a2565b5090979650505050505050565b60008060008060808587031215620004e457600080fd5b8451620004f181620006a6565b809450506020808601516200050681620006a6565b60408701519094506001600160401b03808211156200052457600080fd5b818801915088601f8301126200053957600080fd5b81516200054a620004788262000605565b8082825285820191508585018c878560051b88010111156200056b57600080fd5b600095505b838610156200059b5780516200058681620006a6565b83526001959095019491860191860162000570565b5060608b01519097509450505080831115620005b657600080fd5b5050620005c68782880162000453565b91505092959194509250565b604051601f8201601f191681016001600160401b0381118282101715620005fd57620005fd62000690565b604052919050565b60006001600160401b0382111562000621576200062162000690565b5060051b60200190565b6000821982111562000641576200064162000664565b500190565b60006000198214156200065d576200065d62000664565b5060010190565b634e487b7160e01b600052601160045260246000fd5b634e487b7160e01b600052603260045260246000fd5b634e487b7160e01b600052604160045260246000fd5b6001600160a01b0381168114620006bc57600080fd5b50565b60805160601c60a05160601c60c05160601c6117a0620007146000396000818161027501528181610be80152610d7301526000818161050a0152610798015260008181610caa0152610db701526117a06000f3fe60806040526004361061016e5760003560e01c80638b83209b116100cb578063ce7c2ac21161007f578063f23a6e6111610059578063f23a6e61146104b8578063f2fde38b146104d8578063f40dc537146104f857600080fd5b8063ce7c2ac214610437578063d79779b21461046d578063e33b7de3146104a357600080fd5b80639852595c116100b05780639852595c146103a8578063bc197c81146103de578063bd94b0051461041757600080fd5b80638b83209b1461036a5780638da5cb5b1461038a57600080fd5b8063406072a91161012257806348b750441161010757806348b7504414610315578063715018a6146103355780637c16e25f1461034a57600080fd5b8063406072a9146102af57806342966c68146102f557600080fd5b80631916558711610153578063191655871461022c5780633a98ef391461024e5780633abce0901461026357600080fd5b806301ffc9a7146101bc57806304e1c14f146101f157600080fd5b366101b7577f6ef95f06320e7a25a04a175ca677b7052bdd97131872c2192525a629f51be77033604080516001600160a01b0390921682523460208301520160405180910390a1005b600080fd5b3480156101c857600080fd5b506101dc6101d7366004611528565b61052c565b60405190151581526020015b60405180910390f35b3480156101fd57600080fd5b5061021e61020c3660046113ae565b60076020526000908152604090205481565b6040519081526020016101e8565b34801561023857600080fd5b5061024c6102473660046113ae565b610563565b005b34801561025a57600080fd5b5060005461021e565b34801561026f57600080fd5b506102977f000000000000000000000000000000000000000000000000000000000000000081565b6040516001600160a01b0390911681526020016101e8565b3480156102bb57600080fd5b5061021e6102ca366004611552565b6001600160a01b03918216600090815260066020908152604080832093909416825291909152205490565b34801561030157600080fd5b5061024c61031036600461158b565b610719565b34801561032157600080fd5b5061024c610330366004611552565b610886565b34801561034157600080fd5b5061024c610af1565b34801561035657600080fd5b5061021e6103653660046115bd565b610b57565b34801561037657600080fd5b5061029761038536600461158b565b610c6d565b34801561039657600080fd5b506008546001600160a01b0316610297565b3480156103b457600080fd5b5061021e6103c33660046113ae565b6001600160a01b031660009081526003602052604090205490565b3480156103ea57600080fd5b506103fe6103f93660046113cb565b610c9d565b6040516001600160e01b031990911681526020016101e8565b34801561042357600080fd5b5061024c61043236600461158b565b610d03565b34801561044357600080fd5b5061021e6104523660046113ae565b6001600160a01b031660009081526002602052604090205490565b34801561047957600080fd5b5061021e6104883660046113ae565b6001600160a01b031660009081526005602052604090205490565b3480156104af57600080fd5b5060015461021e565b3480156104c457600080fd5b506103fe6104d336600461148a565b610daa565b3480156104e457600080fd5b5061024c6104f33660046113ae565b610e11565b34801561050457600080fd5b506102977f000000000000000000000000000000000000000000000000000000000000000081565b60006001600160e01b03198216630271189760e51b148061055d57506301ffc9a760e01b6001600160e01b03198316145b92915050565b6001600160a01b0381166000908152600260205260409020546105dc5760405162461bcd60e51b815260206004820152602660248201527f5061796d656e7453706c69747465723a206163636f756e7420686173206e6f2060448201526573686172657360d01b60648201526084015b60405180910390fd5b60006105e760015490565b6105f190476116b2565b9050600061061e8383610619866001600160a01b031660009081526003602052604090205490565b610ef3565b9050806106815760405162461bcd60e51b815260206004820152602b60248201527f5061796d656e7453706c69747465723a206163636f756e74206973206e6f742060448201526a191d59481c185e5b595b9d60aa1b60648201526084016105d3565b6001600160a01b038316600090815260036020526040812080548392906106a99084906116b2565b9250508190555080600160008282546106c291906116b2565b909155506106d290508382610f38565b604080516001600160a01b0385168152602081018390527fdf20fd1e76bc69d672e4814fafb2c449bba3a5369d8359adf9e05e6fde87b056910160405180910390a1505050565b6008546001600160a01b031633146107735760405162461bcd60e51b815260206004820181905260248201527f4f776e61626c653a2063616c6c6572206973206e6f7420746865206f776e657260448201526064016105d3565b604051627eeac760e11b81523060048201819052602482018390526001600160a01b037f0000000000000000000000000000000000000000000000000000000000000000169163f5298aca91908490849062fdd58e9060440160206040518083038186803b1580156107e457600080fd5b505afa1580156107f8573d6000803e3d6000fd5b505050506040513d601f19601f8201168201806040525081019061081c91906115a4565b6040516001600160e01b031960e086901b1681526001600160a01b039093166004840152602483019190915260448201526064015b600060405180830381600087803b15801561086b57600080fd5b505af115801561087f573d6000803e3d6000fd5b5050505050565b6001600160a01b0381166000908152600260205260409020546108fa5760405162461bcd60e51b815260206004820152602660248201527f5061796d656e7453706c69747465723a206163636f756e7420686173206e6f2060448201526573686172657360d01b60648201526084016105d3565b6001600160a01b0382166000908152600560205260408120546040516370a0823160e01b81523060048201526001600160a01b038516906370a082319060240160206040518083038186803b15801561095257600080fd5b505afa158015610966573d6000803e3d6000fd5b505050506040513d601f19601f8201168201806040525081019061098a91906115a4565b61099491906116b2565b905060006109cd838361061987876001600160a01b03918216600090815260066020908152604080832093909416825291909152205490565b905080610a305760405162461bcd60e51b815260206004820152602b60248201527f5061796d656e7453706c69747465723a206163636f756e74206973206e6f742060448201526a191d59481c185e5b595b9d60aa1b60648201526084016105d3565b6001600160a01b03808516600090815260066020908152604080832093871683529290529081208054839290610a679084906116b2565b90915550506001600160a01b03841660009081526005602052604081208054839290610a949084906116b2565b90915550610aa59050848483611056565b604080516001600160a01b038581168252602082018490528616917f3be5b7a71e84ed12875d241991c70855ac5817d847039e17a9d895c1ceb0f18a910160405180910390a250505050565b6008546001600160a01b03163314610b4b5760405162461bcd60e51b815260206004820181905260248201527f4f776e61626c653a2063616c6c6572206973206e6f7420746865206f776e657260448201526064016105d3565b610b5560006110bd565b565b6008546000906001600160a01b03163314610bb45760405162461bcd60e51b815260206004820181905260248201527f4f776e61626c653a2063616c6c6572206973206e6f7420746865206f776e657260448201526064016105d3565b604051637c16e25f60e01b81526004810186905260248101859052604481018490526001600160a01b0383811660648301527f00000000000000000000000000000000000000000000000000000000000000001690637c16e25f90608401602060405180830381600087803b158015610c2c57600080fd5b505af1158015610c40573d6000803e3d6000fd5b505050506040513d601f19601f82011682018060405250810190610c6491906115a4565b95945050505050565b600060048281548110610c8257610c82611768565b6000918252602090912001546001600160a01b031692915050565b6000336001600160a01b037f00000000000000000000000000000000000000000000000000000000000000001614610cee5733878760405163ca6b346b60e01b81526004016105d39392919061161a565b5063bc197c8160e01b98975050505050505050565b6008546001600160a01b03163314610d5d5760405162461bcd60e51b815260206004820181905260248201527f4f776e61626c653a2063616c6c6572206973206e6f7420746865206f776e657260448201526064016105d3565b60405163bd94b00560e01b8152600481018290527f00000000000000000000000000000000000000000000000000000000000000006001600160a01b03169063bd94b00590602401610851565b6000336001600160a01b037f00000000000000000000000000000000000000000000000000000000000000001614610dfe5760405163448a84cd60e11b8152336004820152602481018690526044016105d3565b5063f23a6e6160e01b9695505050505050565b6008546001600160a01b03163314610e6b5760405162461bcd60e51b815260206004820181905260248201527f4f776e61626c653a2063616c6c6572206973206e6f7420746865206f776e657260448201526064016105d3565b6001600160a01b038116610ee75760405162461bcd60e51b815260206004820152602660248201527f4f776e61626c653a206e6577206f776e657220697320746865207a65726f206160448201527f646472657373000000000000000000000000000000000000000000000000000060648201526084016105d3565b610ef0816110bd565b50565b600080546001600160a01b038516825260026020526040822054839190610f1a90866116ec565b610f2491906116ca565b610f2e919061170b565b90505b9392505050565b80471015610f885760405162461bcd60e51b815260206004820152601d60248201527f416464726573733a20696e73756666696369656e742062616c616e636500000060448201526064016105d3565b6000826001600160a01b03168260405160006040518083038185875af1925050503d8060008114610fd5576040519150601f19603f3d011682016040523d82523d6000602084013e610fda565b606091505b50509050806110515760405162461bcd60e51b815260206004820152603a60248201527f416464726573733a20756e61626c6520746f2073656e642076616c75652c207260448201527f6563697069656e74206d6179206861766520726576657274656400000000000060648201526084016105d3565b505050565b604080516001600160a01b038416602482015260448082018490528251808303909101815260649091019091526020810180517bffffffffffffffffffffffffffffffffffffffffffffffffffffffff1663a9059cbb60e01b179052611051908490611127565b600880546001600160a01b038381167fffffffffffffffffffffffff0000000000000000000000000000000000000000831681179093556040519116919082907f8be0079c531659141344cd1fd0a4f28419497f9722a3daafe3b4186f6b6457e090600090a35050565b600061117c826040518060400160405280602081526020017f5361666545524332303a206c6f772d6c6576656c2063616c6c206661696c6564815250856001600160a01b031661120c9092919063ffffffff16565b805190915015611051578080602001905181019061119a9190611506565b6110515760405162461bcd60e51b815260206004820152602a60248201527f5361666545524332303a204552433230206f7065726174696f6e20646964206e60448201527f6f7420737563636565640000000000000000000000000000000000000000000060648201526084016105d3565b6060610f2e8484600085856001600160a01b0385163b61126e5760405162461bcd60e51b815260206004820152601d60248201527f416464726573733a2063616c6c20746f206e6f6e2d636f6e747261637400000060448201526064016105d3565b600080866001600160a01b0316858760405161128a91906115fe565b60006040518083038185875af1925050503d80600081146112c7576040519150601f19603f3d011682016040523d82523d6000602084013e6112cc565b606091505b50915091506112dc8282866112e7565b979650505050505050565b606083156112f6575081610f31565b8251156113065782518084602001fd5b8160405162461bcd60e51b81526004016105d3919061167f565b60008083601f84011261133257600080fd5b50813567ffffffffffffffff81111561134a57600080fd5b6020830191508360208260051b850101111561136557600080fd5b9250929050565b60008083601f84011261137e57600080fd5b50813567ffffffffffffffff81111561139657600080fd5b60208301915083602082850101111561136557600080fd5b6000602082840312156113c057600080fd5b8135610f318161177e565b60008060008060008060008060a0898b0312156113e757600080fd5b88356113f28161177e565b975060208901356114028161177e565b9650604089013567ffffffffffffffff8082111561141f57600080fd5b61142b8c838d01611320565b909850965060608b013591508082111561144457600080fd5b6114508c838d01611320565b909650945060808b013591508082111561146957600080fd5b506114768b828c0161136c565b999c989b5096995094979396929594505050565b60008060008060008060a087890312156114a357600080fd5b86356114ae8161177e565b955060208701356114be8161177e565b94506040870135935060608701359250608087013567ffffffffffffffff8111156114e857600080fd5b6114f489828a0161136c565b979a9699509497509295939492505050565b60006020828403121561151857600080fd5b81518015158114610f3157600080fd5b60006020828403121561153a57600080fd5b81356001600160e01b031981168114610f3157600080fd5b6000806040838503121561156557600080fd5b82356115708161177e565b915060208301356115808161177e565b809150509250929050565b60006020828403121561159d57600080fd5b5035919050565b6000602082840312156115b657600080fd5b5051919050565b600080600080608085870312156115d357600080fd5b84359350602085013592506040850135915060608501356115f38161177e565b939692955090935050565b60008251611610818460208701611722565b9190910192915050565b6001600160a01b03841681526040602082015281604082015260007f07ffffffffffffffffffffffffffffffffffffffffffffffffffffffffffffff83111561166257600080fd5b8260051b8085606085013760009201606001918252509392505050565b602081526000825180602084015261169e816040850160208701611722565b601f01601f19169190910160400192915050565b600082198211156116c5576116c5611752565b500190565b6000826116e757634e487b7160e01b600052601260045260246000fd5b500490565b600081600019048311821515161561170657611706611752565b500290565b60008282101561171d5761171d611752565b500390565b60005b8381101561173d578181015183820152602001611725565b8381111561174c576000848401525b50505050565b634e487b7160e01b600052601160045260246000fd5b634e487b7160e01b600052603260045260246000fd5b6001600160a01b0381168114610ef057600080fdfea164736f6c6343000807000a",
  "devdoc": {
    "kind": "dev",
    "methods": {
      "owner()": {
        "details": "Returns the address of the current owner."
      },
      "payee(uint256)": {
        "details": "Getter for the address of the payee number `index`."
      },
      "release(address)": {
        "details": "Triggers a transfer to `account` of the amount of Ether they are owed, according to their percentage of the total shares and their previous withdrawals."
      },
      "release(address,address)": {
        "details": "Triggers a transfer to `account` of the amount of `token` tokens they are owed, according to their percentage of the total shares and their previous withdrawals. `token` must be the address of an IERC20 contract."
      },
      "released(address)": {
        "details": "Getter for the amount of Ether already released to a payee."
      },
      "released(address,address)": {
        "details": "Getter for the amount of `token` tokens already released to a payee. `token` should be the address of an IERC20 contract."
      },
      "renounceOwnership()": {
        "details": "Leaves the contract without owner. It will not be possible to call `onlyOwner` functions anymore. Can only be called by the current owner. NOTE: Renouncing ownership will leave the contract without an owner, thereby removing any functionality that is only available to the owner."
      },
      "shares(address)": {
        "details": "Getter for the amount of shares held by an account."
      },
      "supportsInterface(bytes4)": {
        "details": "See {IERC165-supportsInterface}."
      },
      "totalReleased()": {
        "details": "Getter for the total amount of Ether already released."
      },
      "totalReleased(address)": {
        "details": "Getter for the total amount of `token` already released. `token` should be the address of an IERC20 contract."
      },
      "totalShares()": {
        "details": "Getter for the total shares held by payees."
      },
      "transferOwnership(address)": {
        "details": "Transfers ownership of the contract to a new account (`newOwner`). Can only be called by the current owner."
      }
    },
    "version": 1
  },
  "userdoc": {
    "kind": "user",
    "methods": {
      "burn(uint256)": {
        "notice": "by design, the NFTs transferred to this contract can not be withdrawn         so that the minter does not need to trust the contract deployer"
      },
      "onERC1155BatchReceived(address,address,uint256[],uint256[],bytes)": {
        "notice": "Accept batch transfers from ShowtimeMT"
      },
      "onERC1155Received(address,address,uint256,uint256,bytes)": {
        "notice": "Accept transfers from ShowtimeMT"
      }
    },
    "notice": "This contract acts as a delegate for listings on the showtime.io marketplace. It allows trustless sales for 3rd parties such as charities. Usage: 1. deploy a copy of this contract with the appropriate payees and shares. The payees are immutable and auditable by anyone. 2. anybody can mint a Showtime NFT with the royalties recipient set to the address of this contract 3. the minter transfers (some or all of the editions of) the Showtime NFT to this contract 4. the deployer of the contract calls `createSale` 5. (optional) the deployer calls `renounceOwnership()`, proving that the listing and the remaining supply will be permanently left untouched 6. proceeds from primary sales and secondary sales will accrue in this contract 7. anybody can call `release(IERC20 token, address account)` to disperse the funds to the recipients",
    "version": 1
  },
  "storageLayout": {
    "storage": [
      {
        "astId": 141,
        "contract": "src/periphery/ShowtimeSplitterSeller.sol:ShowtimeSplitterSeller",
        "label": "_totalShares",
        "offset": 0,
        "slot": "0",
        "type": "t_uint256"
      },
      {
        "astId": 143,
        "contract": "src/periphery/ShowtimeSplitterSeller.sol:ShowtimeSplitterSeller",
        "label": "_totalReleased",
        "offset": 0,
        "slot": "1",
        "type": "t_uint256"
      },
      {
        "astId": 147,
        "contract": "src/periphery/ShowtimeSplitterSeller.sol:ShowtimeSplitterSeller",
        "label": "_shares",
        "offset": 0,
        "slot": "2",
        "type": "t_mapping(t_address,t_uint256)"
      },
      {
        "astId": 151,
        "contract": "src/periphery/ShowtimeSplitterSeller.sol:ShowtimeSplitterSeller",
        "label": "_released",
        "offset": 0,
        "slot": "3",
        "type": "t_mapping(t_address,t_uint256)"
      },
      {
        "astId": 154,
        "contract": "src/periphery/ShowtimeSplitterSeller.sol:ShowtimeSplitterSeller",
        "label": "_payees",
        "offset": 0,
        "slot": "4",
        "type": "t_array(t_address)dyn_storage"
      },
      {
        "astId": 159,
        "contract": "src/periphery/ShowtimeSplitterSeller.sol:ShowtimeSplitterSeller",
        "label": "_erc20TotalReleased",
        "offset": 0,
        "slot": "5",
        "type": "t_mapping(t_contract(IERC20)2753,t_uint256)"
      },
      {
        "astId": 166,
        "contract": "src/periphery/ShowtimeSplitterSeller.sol:ShowtimeSplitterSeller",
        "label": "_erc20Released",
        "offset": 0,
        "slot": "6",
        "type": "t_mapping(t_contract(IERC20)2753,t_mapping(t_address,t_uint256))"
      },
      {
        "astId": 6467,
        "contract": "src/periphery/ShowtimeSplitterSeller.sol:ShowtimeSplitterSeller",
        "label": "balancesReceived",
        "offset": 0,
        "slot": "7",
        "type": "t_mapping(t_address,t_uint256)"
      },
      {
        "astId": 7,
        "contract": "src/periphery/ShowtimeSplitterSeller.sol:ShowtimeSplitterSeller",
        "label": "_owner",
        "offset": 0,
        "slot": "8",
        "type": "t_address"
      }
    ],
    "types": {
      "t_address": {
        "encoding": "inplace",
        "label": "address",
        "numberOfBytes": "20"
      },
      "t_array(t_address)dyn_storage": {
        "base": "t_address",
        "encoding": "dynamic_array",
        "label": "address[]",
        "numberOfBytes": "32"
      },
      "t_contract(IERC20)2753": {
        "encoding": "inplace",
        "label": "contract IERC20",
        "numberOfBytes": "20"
      },
      "t_mapping(t_address,t_uint256)": {
        "encoding": "mapping",
        "key": "t_address",
        "label": "mapping(address => uint256)",
        "numberOfBytes": "32",
        "value": "t_uint256"
      },
      "t_mapping(t_contract(IERC20)2753,t_mapping(t_address,t_uint256))": {
        "encoding": "mapping",
        "key": "t_contract(IERC20)2753",
        "label": "mapping(contract IERC20 => mapping(address => uint256))",
        "numberOfBytes": "32",
        "value": "t_mapping(t_address,t_uint256)"
      },
      "t_mapping(t_contract(IERC20)2753,t_uint256)": {
        "encoding": "mapping",
        "key": "t_contract(IERC20)2753",
        "label": "mapping(contract IERC20 => uint256)",
        "numberOfBytes": "32",
        "value": "t_uint256"
      },
      "t_uint256": {
        "encoding": "inplace",
        "label": "uint256",
        "numberOfBytes": "32"
      }
    }
  }
}