{
  "address": "0xefb210C93388F50b4611664C97b12f61c2c04F7f",
  "abi": [
    {
      "inputs": [
        {
          "internalType": "address",
          "name": "_owner",
          "type": "address"
        }
      ],
      "stateMutability": "nonpayable",
      "type": "constructor"
    },
    {
      "inputs": [],
      "name": "DeadlineTooLong",
      "type": "error"
    },
    {
      "inputs": [],
      "name": "Expired",
      "type": "error"
    },
    {
      "inputs": [],
      "name": "NullAddress",
      "type": "error"
    },
    {
      "inputs": [
        {
          "internalType": "address",
          "name": "signer",
          "type": "address"
        }
      ],
      "name": "SignerExpired",
      "type": "error"
    },
    {
      "inputs": [],
      "name": "TemporalAnomaly",
      "type": "error"
    },
    {
      "inputs": [],
      "name": "Unauthorized",
      "type": "error"
    },
    {
      "inputs": [
        {
          "internalType": "address",
          "name": "signer",
          "type": "address"
        }
      ],
      "name": "UnknownSigner",
      "type": "error"
    },
    {
      "anonymous": false,
      "inputs": [
        {
          "indexed": true,
          "internalType": "address",
          "name": "previousOwner",
          "type": "address"
        },
        {
          "indexed": true,
          "internalType": "address",
          "name": "newOwner",
          "type": "address"
        }
      ],
      "name": "OwnershipTransferred",
      "type": "event"
    },
    {
      "inputs": [],
      "name": "MAX_ATTESTATION_VALIDITY_SECONDS",
      "outputs": [
        {
          "internalType": "uint256",
          "name": "",
          "type": "uint256"
        }
      ],
      "stateMutability": "view",
      "type": "function"
    },
    {
      "inputs": [],
      "name": "MAX_SIGNER_VALIDITY_DAYS",
      "outputs": [
        {
          "internalType": "uint256",
          "name": "",
          "type": "uint256"
        }
      ],
      "stateMutability": "view",
      "type": "function"
    },
    {
      "inputs": [],
      "name": "REQUEST_TYPE_HASH",
      "outputs": [
        {
          "internalType": "bytes32",
          "name": "",
          "type": "bytes32"
        }
      ],
      "stateMutability": "view",
      "type": "function"
    },
    {
      "inputs": [],
      "name": "domainSeparator",
      "outputs": [
        {
          "internalType": "bytes32",
          "name": "",
          "type": "bytes32"
        }
      ],
      "stateMutability": "view",
      "type": "function"
    },
    {
      "inputs": [
        {
          "components": [
            {
              "internalType": "address",
              "name": "beneficiary",
              "type": "address"
            },
            {
              "internalType": "address",
              "name": "context",
              "type": "address"
            },
            {
              "internalType": "uint256",
              "name": "signedAt",
              "type": "uint256"
            },
            {
              "internalType": "uint256",
              "name": "validUntil",
              "type": "uint256"
            }
          ],
          "internalType": "struct Attestation",
          "name": "attestation",
          "type": "tuple"
        }
      ],
      "name": "encode",
      "outputs": [
        {
          "internalType": "bytes",
          "name": "",
          "type": "bytes"
        }
      ],
      "stateMutability": "pure",
      "type": "function"
    },
    {
      "inputs": [],
      "name": "owner",
      "outputs": [
        {
          "internalType": "address",
          "name": "",
          "type": "address"
        }
      ],
      "stateMutability": "view",
      "type": "function"
    },
    {
      "inputs": [
        {
          "internalType": "address",
          "name": "signer",
          "type": "address"
        },
        {
          "internalType": "uint256",
          "name": "validityDays",
          "type": "uint256"
        }
      ],
      "name": "registerSigner",
      "outputs": [],
      "stateMutability": "nonpayable",
      "type": "function"
    },
    {
      "inputs": [],
      "name": "renounceOwnership",
      "outputs": [],
      "stateMutability": "nonpayable",
      "type": "function"
    },
    {
      "inputs": [],
      "name": "requestType",
      "outputs": [
        {
          "internalType": "bytes",
          "name": "",
          "type": "bytes"
        }
      ],
      "stateMutability": "view",
      "type": "function"
    },
    {
      "inputs": [
        {
          "internalType": "address",
          "name": "signer",
          "type": "address"
        }
      ],
      "name": "revokeSigner",
      "outputs": [],
      "stateMutability": "nonpayable",
      "type": "function"
    },
    {
      "inputs": [
        {
          "internalType": "address",
          "name": "_signerManager",
          "type": "address"
        }
      ],
      "name": "setSignerManager",
      "outputs": [],
      "stateMutability": "nonpayable",
      "type": "function"
    },
    {
      "inputs": [],
      "name": "signerManager",
      "outputs": [
        {
          "internalType": "address",
          "name": "",
          "type": "address"
        }
      ],
      "stateMutability": "view",
      "type": "function"
    },
    {
      "inputs": [
        {
          "internalType": "address",
          "name": "",
          "type": "address"
        }
      ],
      "name": "signerValidity",
      "outputs": [
        {
          "internalType": "uint256",
          "name": "",
          "type": "uint256"
        }
      ],
      "stateMutability": "view",
      "type": "function"
    },
    {
      "inputs": [
        {
          "internalType": "address",
          "name": "newOwner",
          "type": "address"
        }
      ],
      "name": "transferOwnership",
      "outputs": [],
      "stateMutability": "nonpayable",
      "type": "function"
    },
    {
      "inputs": [
        {
          "internalType": "bytes32",
          "name": "typeHash",
          "type": "bytes32"
        },
        {
          "internalType": "bytes",
          "name": "encodedData",
          "type": "bytes"
        },
        {
          "internalType": "bytes",
          "name": "signature",
          "type": "bytes"
        }
      ],
      "name": "verify",
      "outputs": [
        {
          "internalType": "bool",
          "name": "",
          "type": "bool"
        }
      ],
      "stateMutability": "view",
      "type": "function"
    },
    {
      "inputs": [
        {
          "components": [
            {
              "internalType": "address",
              "name": "beneficiary",
              "type": "address"
            },
            {
              "internalType": "address",
              "name": "context",
              "type": "address"
            },
            {
              "internalType": "uint256",
              "name": "signedAt",
              "type": "uint256"
            },
            {
              "internalType": "uint256",
              "name": "validUntil",
              "type": "uint256"
            }
          ],
          "internalType": "struct Attestation",
          "name": "attestation",
          "type": "tuple"
        },
        {
          "internalType": "bytes",
          "name": "signature",
          "type": "bytes"
        }
      ],
      "name": "verify",
      "outputs": [
        {
          "internalType": "bool",
          "name": "",
          "type": "bool"
        }
      ],
      "stateMutability": "view",
      "type": "function"
    }
  ],
  "transactionHash": "0xba919d89f103bc11f2a72df4d69a45c704016bf089af2b7c0e8ad20438902dbe",
  "args": [
    "0x515F7d84cEE53051b7ADF645fA2220f65BC25c68"
  ],
  "numDeployments": 2,
  "solcInputHash": "6e006ac2da1fb2d2a6f2f1ce39c0426d",
  "bytecode": "0x6101406040523480156200001257600080fd5b50604051620013cd380380620013cd833981016040819052620000359162000260565b6040518060400160405280600c81526020016b39b437bbba34b6b2973c3cbd60a11b81525060405180604001604052806002815260200161763160f01b8152506200008f620000896200013760201b60201c565b6200013b565b815160208084019190912082518383012060e08290526101008190524660a0818152604080517f8b73c3c69bb8fe3d512ecc4cf759cc79239f7b179b0ffacaa9a75d522b39400f81880181905281830187905260608201869052608082019490945230818401528151808203909301835260c00190528051940193909320919290916080523060601b60c0526101205250620001309250839150506200018b565b5062000292565b3390565b600080546001600160a01b038381166001600160a01b0319831681178455604051919092169283917f8be0079c531659141344cd1fd0a4f28419497f9722a3daafe3b4186f6b6457e09190a35050565b6000546001600160a01b03163314620001eb5760405162461bcd60e51b815260206004820181905260248201527f4f776e61626c653a2063616c6c6572206973206e6f7420746865206f776e657260448201526064015b60405180910390fd5b6001600160a01b038116620002525760405162461bcd60e51b815260206004820152602660248201527f4f776e61626c653a206e6577206f776e657220697320746865207a65726f206160448201526564647265737360d01b6064820152608401620001e2565b6200025d816200013b565b50565b6000602082840312156200027357600080fd5b81516001600160a01b03811681146200028b57600080fd5b9392505050565b60805160a05160c05160601c60e05161010051610120516110e8620002e560003960006108fc0152600061094b015260006109260152600061087f015260006108a9015260006108d301526110e86000f3fe608060405234801561001057600080fd5b50600436106101005760003560e01c8063cb74082d11610097578063edf8f87811610066578063edf8f87814610207578063f2fde38b14610227578063f698da251461023a578063fde6360a1461024257600080fd5b8063cb74082d146101bb578063cba89d58146101ce578063cfe19798146101e1578063d7bdd1ae146101f457600080fd5b8063715018a6116100d3578063715018a6146101705780638da5cb5b1461017a578063c34b44a01461019f578063ca194c24146101b257600080fd5b80632ff3696914610105578063308b5569146101235780633840497c1461013a5780635bf48e3a1461014d575b600080fd5b61010d61024a565b60405161011a9190610f63565b60405180910390f35b61012c61012c81565b60405190815260200161011a565b61010d610148366004610ecb565b610266565b61016061015b366004610dad565b6102c9565b604051901515815260200161011a565b6101786103cb565b005b6000546001600160a01b03165b6040516001600160a01b03909116815260200161011a565b6101786101ad366004610d61565b610431565b61012c61016d81565b6101606101c9366004610e70565b61048e565b600254610187906001600160a01b031681565b6101786101ef366004610d61565b61054f565b610178610202366004610d83565b6105d8565b61012c610215366004610d61565b60016020526000908152604090205481565b610178610235366004610d61565b610689565b61012c61076b565b61012c61077a565b6040518060800160405280605481526020016110886054913981565b606081600001518260200151836040015184606001516040516020016102b394939291906001600160a01b0394851681529290931660208301526040820152606081019190915260800190565b6040516020818303038152906040529050919050565b60008085856040516020016102df929190610f3d565b60405160208183030381529060405280519060200120905060006103028261079d565b905060006103468287878080601f0160208091040260200160405190810160405280939291908181526020018383808284376000920191909152506107f192505050565b6001600160a01b0381166000908152600160205260409020549091508061039057604051636bf4516160e11b81526001600160a01b03831660048201526024015b60405180910390fd5b804211156103bc57604051635b0a554360e01b81526001600160a01b0383166004820152602401610387565b50600198975050505050505050565b6000546001600160a01b031633146104255760405162461bcd60e51b815260206004820181905260248201527f4f776e61626c653a2063616c6c6572206973206e6f7420746865206f776e65726044820152606401610387565b61042f6000610815565b565b6000546001600160a01b0316331480159061045757506002546001600160a01b03163314155b15610474576040516282b42960e81b815260040160405180910390fd5b6001600160a01b0316600090815260016020526040812055565b600060408401356060850135428211156104bb57604051637ba319a560e11b815260040160405180910390fd5b804211156104dc57604051630407b05b60e31b815260040160405180910390fd5b61012c6104e98383610ffe565b1115610508576040516354090af960e01b815260040160405180910390fd5b61054560405180608001604052806054815260200161108860549139805160209091012061053e610148368a90038a018a610ecb565b87876102c9565b9695505050505050565b6000546001600160a01b031633146105a95760405162461bcd60e51b815260206004820181905260248201527f4f776e61626c653a2063616c6c6572206973206e6f7420746865206f776e65726044820152606401610387565b6002805473ffffffffffffffffffffffffffffffffffffffff19166001600160a01b0392909216919091179055565b6000546001600160a01b031633148015906105fe57506002546001600160a01b03163314155b1561061b576040516282b42960e81b815260040160405180910390fd5b61016d81111561063e576040516354090af960e01b815260040160405180910390fd5b610649816018610fdf565b61065490603c610fdf565b61065f90603c610fdf565b6106699042610fc7565b6001600160a01b0390921660009081526001602052604090209190915550565b6000546001600160a01b031633146106e35760405162461bcd60e51b815260206004820181905260248201527f4f776e61626c653a2063616c6c6572206973206e6f7420746865206f776e65726044820152606401610387565b6001600160a01b03811661075f5760405162461bcd60e51b815260206004820152602660248201527f4f776e61626c653a206e6577206f776e657220697320746865207a65726f206160448201527f64647265737300000000000000000000000000000000000000000000000000006064820152608401610387565b61076881610815565b50565b6000610775610872565b905090565b604051806080016040528060548152602001611088605491398051906020012081565b60006107eb6107aa610872565b8360405161190160f01b6020820152602281018390526042810182905260009060620160405160208183030381529060405280519060200120905092915050565b92915050565b60008060006108008585610999565b9150915061080d81610a09565b509392505050565b600080546001600160a01b0383811673ffffffffffffffffffffffffffffffffffffffff19831681178455604051919092169283917f8be0079c531659141344cd1fd0a4f28419497f9722a3daafe3b4186f6b6457e09190a35050565b6000306001600160a01b037f0000000000000000000000000000000000000000000000000000000000000000161480156108cb57507f000000000000000000000000000000000000000000000000000000000000000046145b156108f557507f000000000000000000000000000000000000000000000000000000000000000090565b50604080517f00000000000000000000000000000000000000000000000000000000000000006020808301919091527f0000000000000000000000000000000000000000000000000000000000000000828401527f000000000000000000000000000000000000000000000000000000000000000060608301524660808301523060a0808401919091528351808403909101815260c0909201909252805191012090565b6000808251604114156109d05760208301516040840151606085015160001a6109c487828585610bc4565b94509450505050610a02565b8251604014156109fa57602083015160408401516109ef868383610cb1565b935093505050610a02565b506000905060025b9250929050565b6000816004811115610a1d57610a1d61105b565b1415610a265750565b6001816004811115610a3a57610a3a61105b565b1415610a885760405162461bcd60e51b815260206004820152601860248201527f45434453413a20696e76616c6964207369676e617475726500000000000000006044820152606401610387565b6002816004811115610a9c57610a9c61105b565b1415610aea5760405162461bcd60e51b815260206004820152601f60248201527f45434453413a20696e76616c6964207369676e6174757265206c656e677468006044820152606401610387565b6003816004811115610afe57610afe61105b565b1415610b575760405162461bcd60e51b815260206004820152602260248201527f45434453413a20696e76616c6964207369676e6174757265202773272076616c604482015261756560f01b6064820152608401610387565b6004816004811115610b6b57610b6b61105b565b14156107685760405162461bcd60e51b815260206004820152602260248201527f45434453413a20696e76616c6964207369676e6174757265202776272076616c604482015261756560f01b6064820152608401610387565b6000807f7fffffffffffffffffffffffffffffff5d576e7357a4501ddfe92f46681b20a0831115610bfb5750600090506003610ca8565b8460ff16601b14158015610c1357508460ff16601c14155b15610c245750600090506004610ca8565b6040805160008082526020820180845289905260ff881692820192909252606081018690526080810185905260019060a0016020604051602081039080840390855afa158015610c78573d6000803e3d6000fd5b5050604051601f1901519150506001600160a01b038116610ca157600060019250925050610ca8565b9150600090505b94509492505050565b6000807f7fffffffffffffffffffffffffffffffffffffffffffffffffffffffffffffff831681610ce760ff86901c601b610fc7565b9050610cf587828885610bc4565b935093505050935093915050565b80356001600160a01b0381168114610d1a57600080fd5b919050565b60008083601f840112610d3157600080fd5b50813567ffffffffffffffff811115610d4957600080fd5b602083019150836020828501011115610a0257600080fd5b600060208284031215610d7357600080fd5b610d7c82610d03565b9392505050565b60008060408385031215610d9657600080fd5b610d9f83610d03565b946020939093013593505050565b60008060008060608587031215610dc357600080fd5b8435935060208086013567ffffffffffffffff80821115610de357600080fd5b818801915088601f830112610df757600080fd5b813581811115610e0957610e09611071565b610e1b601f8201601f19168501610f96565b8181528a85838601011115610e2f57600080fd5b818585018683013760009181019094015291945060408701359180831115610e5657600080fd5b5050610e6487828801610d1f565b95989497509550505050565b600080600083850360a0811215610e8657600080fd5b6080811215610e9457600080fd5b50839250608084013567ffffffffffffffff811115610eb257600080fd5b610ebe86828701610d1f565b9497909650939450505050565b600060808284031215610edd57600080fd5b6040516080810181811067ffffffffffffffff82111715610f0057610f00611071565b604052610f0c83610d03565b8152610f1a60208401610d03565b602082015260408301356040820152606083013560608201528091505092915050565b82815260008251610f55816020850160208701611015565b919091016020019392505050565b6020815260008251806020840152610f82816040850160208701611015565b601f01601f19169190910160400192915050565b604051601f8201601f1916810167ffffffffffffffff81118282101715610fbf57610fbf611071565b604052919050565b60008219821115610fda57610fda611045565b500190565b6000816000190483118215151615610ff957610ff9611045565b500290565b60008282101561101057611010611045565b500390565b60005b83811015611030578181015183820152602001611018565b8381111561103f576000848401525b50505050565b634e487b7160e01b600052601160045260246000fd5b634e487b7160e01b600052602160045260246000fd5b634e487b7160e01b600052604160045260246000fdfe4174746573746174696f6e28616464726573732062656e65666963696172792c6164647265737320636f6e746578742c75696e74323536207369676e656441742c75696e743235362076616c6964556e74696c29a164736f6c6343000807000a",
  "devdoc": {
    "kind": "dev",
    "methods": {
      "owner()": {
        "details": "Returns the address of the current owner."
      },
      "registerSigner(address,uint256)": {
        "params": {
          "signer": "the new signer to register",
          "validityDays": "how long the signer will be valid starting from the moment of registration"
        }
      },
      "renounceOwnership()": {
        "details": "Leaves the contract without owner. It will not be possible to call `onlyOwner` functions anymore. Can only be called by the current owner. NOTE: Renouncing ownership will leave the contract without an owner, thereby removing any functionality that is only available to the owner."
      },
      "setSignerManager(address)": {
        "params": {
          "_signerManager": "the address that will be authorized to add and remove signers (use address 0 to disable)"
        }
      },
      "transferOwnership(address)": {
        "details": "Transfers ownership of the contract to a new account (`newOwner`). Can only be called by the current owner."
      },
      "verify((address,address,uint256,uint256),bytes)": {
        "params": {
          "attestation": "the attestation to verify",
          "signature": "the signature of the attestation"
        },
        "returns": {
          "_0": "true if the attestation is valid, reverts otherwise"
        }
      },
      "verify(bytes32,bytes,bytes)": {
        "details": "see https://eips.ethereum.org/EIPS/eip-712#definition-of-hashstruct",
        "params": {
          "encodedData": "the EIP712-encoded struct data to be verified (32 bytes long members, hashed dynamic types)",
          "signature": "the signature of the hashed struct",
          "typeHash": "the EIP712 type hash for the struct data to be verified"
        },
        "returns": {
          "_0": "true if the signature is valid, reverts otherwise"
        }
      }
    },
    "version": 1
  },
  "userdoc": {
    "kind": "user",
    "methods": {
      "registerSigner(address,uint256)": {
        "notice": "Registers an authorized signer"
      },
      "revokeSigner(address)": {
        "notice": "Remove an authorized signer"
      },
      "setSignerManager(address)": {
        "notice": "Delegates the signer management to another address"
      },
      "verify((address,address,uint256,uint256),bytes)": {
        "notice": "Verifies the given attestationAttestations contain no nonces, so it is up to the calling contract to ensure replay-safety"
      },
      "verify(bytes32,bytes,bytes)": {
        "notice": "Verifies arbitrary typed data"
      }
    },
    "version": 1
  },
  "storageLayout": {
    "storage": [
      {
        "astId": 472,
        "contract": "src/ShowtimeVerifier.sol:ShowtimeVerifier",
        "label": "_owner",
        "offset": 0,
        "slot": "0",
        "type": "t_address"
      },
      {
        "astId": 6044,
        "contract": "src/ShowtimeVerifier.sol:ShowtimeVerifier",
        "label": "signerValidity",
        "offset": 0,
        "slot": "1",
        "type": "t_mapping(t_address,t_uint256)"
      },
      {
        "astId": 6046,
        "contract": "src/ShowtimeVerifier.sol:ShowtimeVerifier",
        "label": "signerManager",
        "offset": 0,
        "slot": "2",
        "type": "t_address"
      }
    ],
    "types": {
      "t_address": {
        "encoding": "inplace",
        "label": "address",
        "numberOfBytes": "20"
      },
      "t_mapping(t_address,t_uint256)": {
        "encoding": "mapping",
        "key": "t_address",
        "label": "mapping(address => uint256)",
        "numberOfBytes": "32",
        "value": "t_uint256"
      },
      "t_uint256": {
        "encoding": "inplace",
        "label": "uint256",
        "numberOfBytes": "32"
      }
    }
  }
}