{
  "address": "0x50c001E4eB10801968F6640E1537D63a557e5d72",
  "abi": [
    {
      "inputs": [
        {
          "internalType": "uint256",
          "name": "_maxDurationSeconds",
          "type": "uint256"
        }
      ],
      "stateMutability": "nonpayable",
      "type": "constructor"
    },
    {
      "inputs": [
        {
          "internalType": "uint256",
          "name": "offsetSeconds",
          "type": "uint256"
        }
      ],
      "name": "InvalidTimeLimit",
      "type": "error"
    },
    {
      "inputs": [],
      "name": "NotCollectionOwner",
      "type": "error"
    },
    {
      "inputs": [],
      "name": "TimeLimitAlreadySet",
      "type": "error"
    },
    {
      "anonymous": false,
      "inputs": [
        {
          "indexed": false,
          "internalType": "address",
          "name": "collection",
          "type": "address"
        },
        {
          "indexed": false,
          "internalType": "uint256",
          "name": "deadline",
          "type": "uint256"
        }
      ],
      "name": "TimeLimitSet",
      "type": "event"
    },
    {
      "inputs": [],
      "name": "MAX_DURATION_SECONDS",
      "outputs": [
        {
          "internalType": "uint256",
          "name": "",
          "type": "uint256"
        }
      ],
      "stateMutability": "view",
      "type": "function"
    },
    {
      "inputs": [
        {
          "internalType": "address",
          "name": "collection",
          "type": "address"
        },
        {
          "internalType": "uint256",
          "name": "offsetSeconds",
          "type": "uint256"
        }
      ],
      "name": "setTimeLimit",
      "outputs": [],
      "stateMutability": "nonpayable",
      "type": "function"
    },
    {
      "inputs": [
        {
          "internalType": "address",
          "name": "collection",
          "type": "address"
        }
      ],
      "name": "timeLimitReached",
      "outputs": [
        {
          "internalType": "bool",
          "name": "",
          "type": "bool"
        }
      ],
      "stateMutability": "view",
      "type": "function"
    },
    {
      "inputs": [
        {
          "internalType": "address",
          "name": "collection",
          "type": "address"
        }
      ],
      "name": "timeLimitSet",
      "outputs": [
        {
          "internalType": "bool",
          "name": "",
          "type": "bool"
        }
      ],
      "stateMutability": "view",
      "type": "function"
    },
    {
      "inputs": [
        {
          "internalType": "address",
          "name": "",
          "type": "address"
        }
      ],
      "name": "timeLimits",
      "outputs": [
        {
          "internalType": "uint256",
          "name": "",
          "type": "uint256"
        }
      ],
      "stateMutability": "view",
      "type": "function"
    }
  ],
  "transactionHash": "0x4a0a3b00ba413d70f0d6f4acace71f605343cae0a68afd1917d4619b7830103e",
  "args": [
    2678400
  ],
  "numDeployments": 1,
  "solcInputHash": "1833dc003425e1951c41a2e7b99a3092",
  "bytecode": "0x60a060405234801561001057600080fd5b5060405161047238038061047283398101604081905261002f91610037565b608052610050565b60006020828403121561004957600080fd5b5051919050565b6080516103fa6100786000396000818160f401528181610153015261017c01526103fa6000f3fe608060405234801561001057600080fd5b50600436106100675760003560e01c806399b491731161005057806399b49173146100c1578063b11d2758146100ef578063cf06dde41461011657600080fd5b806326d79f7c1461006c57806389f25e6214610081575b600080fd5b61007f61007a366004610383565b610129565b005b6100ac61008f366004610342565b6001600160a01b0316600090815260208190526040902054151590565b60405190151581526020015b60405180910390f35b6100e16100cf366004610342565b60006020819052908152604090205481565b6040519081526020016100b8565b6100e17f000000000000000000000000000000000000000000000000000000000000000081565b6100ac610124366004610342565b6102fe565b8061014f5760405163d7f6f2e960e01b8152600481018290526024015b60405180910390fd5b60007f000000000000000000000000000000000000000000000000000000000000000011801561019e57507f000000000000000000000000000000000000000000000000000000000000000081115b156101bf5760405163d7f6f2e960e01b815260048101829052602401610146565b6001600160a01b038216600090815260208190526040902054156101f657604051631c27a43960e21b815260040160405180910390fd5b816001600160a01b0316638da5cb5b6040518163ffffffff1660e01b815260040160206040518083038186803b15801561022f57600080fd5b505afa158015610243573d6000803e3d6000fd5b505050506040513d601f19601f820116820180604052508101906102679190610366565b6001600160a01b0316336001600160a01b031614610298576040516327ecd79f60e11b815260040160405180910390fd5b60006102a482426103af565b6001600160a01b03841660008181526020818152604091829020849055815192835282018390529192507f776e7116fa43d9385f3fd667b2e34d792fd3eec4b5a0aa8d1758b877ab4d6cbe910160405180910390a1505050565b6001600160a01b0381166000908152602081905260408120541515801561033c57506001600160a01b03821660009081526020819052604090205442115b92915050565b60006020828403121561035457600080fd5b813561035f816103d5565b9392505050565b60006020828403121561037857600080fd5b815161035f816103d5565b6000806040838503121561039657600080fd5b82356103a1816103d5565b946020939093013593505050565b600082198211156103d057634e487b7160e01b600052601160045260246000fd5b500190565b6001600160a01b03811681146103ea57600080fd5b5056fea164736f6c6343000807000a",
  "devdoc": {
    "kind": "dev",
    "methods": {
      "constructor": {
        "details": "_maxDurationSeconds can be set to 0 to have no maximum time limit",
        "params": {
          "_maxDurationSeconds": "maximum time limit"
        }
      },
      "setTimeLimit(address,uint256)": {
        "params": {
          "collection": "The address to set the deadline for",
          "offsetSeconds": "a duration in seconds that will be used to set the time limit"
        }
      },
      "timeLimitReached(address)": {
        "returns": {
          "_0": "false if there is no time limit set for that collection"
        }
      }
    },
    "version": 1
  },
  "userdoc": {
    "kind": "user",
    "methods": {
      "setTimeLimit(address,uint256)": {
        "notice": "Sets the deadline for the given collectionOnly the owner of the collection can set the deadline"
      },
      "timeLimits(address)": {
        "notice": "the time limits expressed as a timestamp in seconds"
      }
    },
    "version": 1
  },
  "storageLayout": {
    "storage": [
      {
        "astId": 6492,
        "contract": "src/editions/TimeCop.sol:TimeCop",
        "label": "timeLimits",
        "offset": 0,
        "slot": "0",
        "type": "t_mapping(t_address,t_uint256)"
      }
    ],
    "types": {
      "t_address": {
        "encoding": "inplace",
        "label": "address",
        "numberOfBytes": "20"
      },
      "t_mapping(t_address,t_uint256)": {
        "encoding": "mapping",
        "key": "t_address",
        "label": "mapping(address => uint256)",
        "numberOfBytes": "32",
        "value": "t_uint256"
      },
      "t_uint256": {
        "encoding": "inplace",
        "label": "uint256",
        "numberOfBytes": "32"
      }
    }
  }
}